{
  "_format": "hh-sol-artifact-1",
  "contractName": "Divvy",
  "sourceName": "contracts/Divvy.sol",
  "abi": [
    {
      "inputs": [
        {
          "internalType": "address payable",
          "name": "_seller",
          "type": "address"
        }
      ],
      "stateMutability": "nonpayable",
      "type": "constructor"
    },
    {
      "anonymous": false,
      "inputs": [
        {
          "indexed": true,
          "internalType": "address",
          "name": "owner",
          "type": "address"
        },
        {
          "indexed": true,
          "internalType": "address",
          "name": "approved",
          "type": "address"
        },
        {
          "indexed": true,
          "internalType": "uint256",
          "name": "tokenId",
          "type": "uint256"
        }
      ],
      "name": "Approval",
      "type": "event"
    },
    {
      "anonymous": false,
      "inputs": [
        {
          "indexed": true,
          "internalType": "address",
          "name": "owner",
          "type": "address"
        },
        {
          "indexed": true,
          "internalType": "address",
          "name": "operator",
          "type": "address"
        },
        {
          "indexed": false,
          "internalType": "bool",
          "name": "approved",
          "type": "bool"
        }
      ],
      "name": "ApprovalForAll",
      "type": "event"
    },
    {
      "anonymous": false,
      "inputs": [
        {
          "indexed": false,
          "internalType": "address",
          "name": "_buyer",
          "type": "address"
        },
        {
          "indexed": false,
          "internalType": "uint256",
          "name": "_installment",
          "type": "uint256"
        }
      ],
      "name": "FullPaidEvent",
      "type": "event"
    },
    {
      "anonymous": false,
      "inputs": [
        {
          "indexed": false,
          "internalType": "uint256",
          "name": "_id",
          "type": "uint256"
        }
      ],
      "name": "NFTReceivedEvent",
      "type": "event"
    },
    {
      "anonymous": false,
      "inputs": [
        {
          "indexed": false,
          "internalType": "address",
          "name": "_buyer",
          "type": "address"
        },
        {
          "indexed": false,
          "internalType": "bool",
          "name": "completed",
          "type": "bool"
        }
      ],
      "name": "SettleLoan",
      "type": "event"
    },
    {
      "anonymous": false,
      "inputs": [
        {
          "indexed": true,
          "internalType": "address",
          "name": "from",
          "type": "address"
        },
        {
          "indexed": true,
          "internalType": "address",
          "name": "to",
          "type": "address"
        },
        {
          "indexed": true,
          "internalType": "uint256",
          "name": "tokenId",
          "type": "uint256"
        }
      ],
      "name": "Transfer",
      "type": "event"
    },
    {
      "anonymous": false,
      "inputs": [
        {
          "indexed": false,
          "internalType": "address",
          "name": "_buyer",
          "type": "address"
        },
        {
          "indexed": false,
          "internalType": "uint256",
          "name": "_loanAmount",
          "type": "uint256"
        },
        {
          "indexed": false,
          "internalType": "uint256",
          "name": "_tenure",
          "type": "uint256"
        },
        {
          "indexed": false,
          "internalType": "uint256",
          "name": "startTime",
          "type": "uint256"
        }
      ],
      "name": "initEvent",
      "type": "event"
    },
    {
      "inputs": [
        {
          "internalType": "address",
          "name": "",
          "type": "address"
        }
      ],
      "name": "addressToLoan",
      "outputs": [
        {
          "internalType": "address",
          "name": "buyer",
          "type": "address"
        },
        {
          "internalType": "uint256",
          "name": "loanStart",
          "type": "uint256"
        },
        {
          "internalType": "uint256",
          "name": "loanAmount",
          "type": "uint256"
        },
        {
          "internalType": "uint256",
          "name": "repayAmount",
          "type": "uint256"
        },
        {
          "internalType": "uint256",
          "name": "remainingAmount",
          "type": "uint256"
        },
        {
          "internalType": "uint256",
          "name": "tenure",
          "type": "uint256"
        },
        {
          "internalType": "uint256",
          "name": "payoutPerMonth",
          "type": "uint256"
        },
        {
          "internalType": "uint256",
          "name": "penalty",
          "type": "uint256"
        },
        {
          "internalType": "uint256",
          "name": "intervalTimes",
          "type": "uint256"
        },
        {
          "internalType": "uint256",
          "name": "NFTId",
          "type": "uint256"
        },
        {
          "internalType": "bool",
          "name": "completed",
          "type": "bool"
        }
      ],
      "stateMutability": "view",
      "type": "function"
    },
    {
      "inputs": [
        {
          "internalType": "address",
          "name": "to",
          "type": "address"
        },
        {
          "internalType": "uint256",
          "name": "tokenId",
          "type": "uint256"
        }
      ],
      "name": "approve",
      "outputs": [],
      "stateMutability": "nonpayable",
      "type": "function"
    },
    {
      "inputs": [
        {
          "internalType": "address",
          "name": "owner",
          "type": "address"
        }
      ],
      "name": "balanceOf",
      "outputs": [
        {
          "internalType": "uint256",
          "name": "",
          "type": "uint256"
        }
      ],
      "stateMutability": "view",
      "type": "function"
    },
    {
      "inputs": [
        {
          "internalType": "uint256",
          "name": "",
          "type": "uint256"
        }
      ],
      "name": "borrowers",
      "outputs": [
        {
          "internalType": "address",
          "name": "",
          "type": "address"
        }
      ],
      "stateMutability": "view",
      "type": "function"
    },
    {
      "inputs": [],
      "name": "buyerAddress",
      "outputs": [
        {
          "internalType": "address",
          "name": "",
          "type": "address"
        }
      ],
      "stateMutability": "view",
      "type": "function"
    },
    {
      "inputs": [
        {
          "internalType": "string",
          "name": "tokenURI",
          "type": "string"
        }
      ],
      "name": "createToken",
      "outputs": [
        {
          "internalType": "uint256",
          "name": "",
          "type": "uint256"
        }
      ],
      "stateMutability": "payable",
      "type": "function"
    },
    {
      "inputs": [
        {
          "internalType": "uint256",
          "name": "tokenId",
          "type": "uint256"
        }
      ],
      "name": "getApproved",
      "outputs": [
        {
          "internalType": "address",
          "name": "",
          "type": "address"
        }
      ],
      "stateMutability": "view",
      "type": "function"
    },
    {
      "inputs": [
        {
          "internalType": "address",
          "name": "_buyer",
          "type": "address"
        },
        {
          "internalType": "uint256",
          "name": "_loanAmount",
          "type": "uint256"
        },
        {
          "internalType": "uint256",
          "name": "_tenure",
          "type": "uint256"
        },
        {
          "internalType": "uint256",
          "name": "tokenId",
          "type": "uint256"
        }
      ],
      "name": "init",
      "outputs": [],
      "stateMutability": "nonpayable",
      "type": "function"
    },
    {
      "inputs": [],
      "name": "installmentAmt",
      "outputs": [
        {
          "internalType": "uint256",
          "name": "",
          "type": "uint256"
        }
      ],
      "stateMutability": "view",
      "type": "function"
    },
    {
      "inputs": [],
      "name": "interval",
      "outputs": [
        {
          "internalType": "uint256",
          "name": "",
          "type": "uint256"
        }
      ],
      "stateMutability": "view",
      "type": "function"
    },
    {
      "inputs": [
        {
          "internalType": "address",
          "name": "owner",
          "type": "address"
        },
        {
          "internalType": "address",
          "name": "operator",
          "type": "address"
        }
      ],
      "name": "isApprovedForAll",
      "outputs": [
        {
          "internalType": "bool",
          "name": "",
          "type": "bool"
        }
      ],
      "stateMutability": "view",
      "type": "function"
    },
    {
      "inputs": [],
      "name": "loanAmt",
      "outputs": [
        {
          "internalType": "uint256",
          "name": "",
          "type": "uint256"
        }
      ],
      "stateMutability": "view",
      "type": "function"
    },
    {
      "inputs": [],
      "name": "loanStartedOn",
      "outputs": [
        {
          "internalType": "uint256",
          "name": "",
          "type": "uint256"
        }
      ],
      "stateMutability": "view",
      "type": "function"
    },
    {
      "inputs": [],
      "name": "name",
      "outputs": [
        {
          "internalType": "string",
          "name": "",
          "type": "string"
        }
      ],
      "stateMutability": "view",
      "type": "function"
    },
    {
      "inputs": [
        {
          "internalType": "uint256",
          "name": "tokenId",
          "type": "uint256"
        }
      ],
      "name": "ownerOf",
      "outputs": [
        {
          "internalType": "address",
          "name": "",
          "type": "address"
        }
      ],
      "stateMutability": "view",
      "type": "function"
    },
    {
      "inputs": [],
      "name": "pay",
      "outputs": [],
      "stateMutability": "payable",
      "type": "function"
    },
    {
      "inputs": [],
      "name": "payInFull",
      "outputs": [],
      "stateMutability": "payable",
      "type": "function"
    },
    {
      "inputs": [],
      "name": "repayAmt",
      "outputs": [
        {
          "internalType": "uint256",
          "name": "",
          "type": "uint256"
        }
      ],
      "stateMutability": "view",
      "type": "function"
    },
    {
      "inputs": [
        {
          "internalType": "address",
          "name": "from",
          "type": "address"
        },
        {
          "internalType": "address",
          "name": "to",
          "type": "address"
        },
        {
          "internalType": "uint256",
          "name": "tokenId",
          "type": "uint256"
        }
      ],
      "name": "safeTransferFrom",
      "outputs": [],
      "stateMutability": "nonpayable",
      "type": "function"
    },
    {
      "inputs": [
        {
          "internalType": "address",
          "name": "from",
          "type": "address"
        },
        {
          "internalType": "address",
          "name": "to",
          "type": "address"
        },
        {
          "internalType": "uint256",
          "name": "tokenId",
          "type": "uint256"
        },
        {
          "internalType": "bytes",
          "name": "_data",
          "type": "bytes"
        }
      ],
      "name": "safeTransferFrom",
      "outputs": [],
      "stateMutability": "nonpayable",
      "type": "function"
    },
    {
      "inputs": [],
      "name": "seller",
      "outputs": [
        {
          "internalType": "address payable",
          "name": "",
          "type": "address"
        }
      ],
      "stateMutability": "view",
      "type": "function"
    },
    {
      "inputs": [
        {
          "internalType": "address",
          "name": "operator",
          "type": "address"
        },
        {
          "internalType": "bool",
          "name": "approved",
          "type": "bool"
        }
      ],
      "name": "setApprovalForAll",
      "outputs": [],
      "stateMutability": "nonpayable",
      "type": "function"
    },
    {
      "inputs": [],
      "name": "settleLoan",
      "outputs": [],
      "stateMutability": "nonpayable",
      "type": "function"
    },
    {
      "inputs": [],
      "name": "success",
      "outputs": [
        {
          "internalType": "bool",
          "name": "",
          "type": "bool"
        }
      ],
      "stateMutability": "view",
      "type": "function"
    },
    {
      "inputs": [
        {
          "internalType": "bytes4",
          "name": "interfaceId",
          "type": "bytes4"
        }
      ],
      "name": "supportsInterface",
      "outputs": [
        {
          "internalType": "bool",
          "name": "",
          "type": "bool"
        }
      ],
      "stateMutability": "view",
      "type": "function"
    },
    {
      "inputs": [],
      "name": "symbol",
      "outputs": [
        {
          "internalType": "string",
          "name": "",
          "type": "string"
        }
      ],
      "stateMutability": "view",
      "type": "function"
    },
    {
      "inputs": [],
      "name": "tenure",
      "outputs": [
        {
          "internalType": "uint256",
          "name": "",
          "type": "uint256"
        }
      ],
      "stateMutability": "view",
      "type": "function"
    },
    {
      "inputs": [
        {
          "internalType": "uint256",
          "name": "tokenId",
          "type": "uint256"
        }
      ],
      "name": "tokenURI",
      "outputs": [
        {
          "internalType": "string",
          "name": "",
          "type": "string"
        }
      ],
      "stateMutability": "view",
      "type": "function"
    },
    {
      "inputs": [
        {
          "internalType": "address",
          "name": "from",
          "type": "address"
        },
        {
          "internalType": "address",
          "name": "to",
          "type": "address"
        },
        {
          "internalType": "uint256",
          "name": "tokenId",
          "type": "uint256"
        }
      ],
      "name": "transferFrom",
      "outputs": [],
      "stateMutability": "nonpayable",
      "type": "function"
    }
  ],
  "bytecode": "0x608060405262278d00600b553480156200001857600080fd5b50604051620043833803806200438383398181016040528101906200003e9190620001ed565b6040518060400160405280600881526020017f50726f70657274790000000000000000000000000000000000000000000000008152506040518060400160405280600381526020017f50545900000000000000000000000000000000000000000000000000000000008152508160009080519060200190620000c292919062000126565b508060019080519060200190620000db92919062000126565b50505080600a60006101000a81548173ffffffffffffffffffffffffffffffffffffffff021916908373ffffffffffffffffffffffffffffffffffffffff16021790555050620002cc565b82805462000134906200024d565b90600052602060002090601f016020900481019282620001585760008555620001a4565b82601f106200017357805160ff1916838001178555620001a4565b82800160010185558215620001a4579182015b82811115620001a357825182559160200191906001019062000186565b5b509050620001b39190620001b7565b5090565b5b80821115620001d2576000816000905550600101620001b8565b5090565b600081519050620001e781620002b2565b92915050565b6000602082840312156200020057600080fd5b60006200021084828501620001d6565b91505092915050565b600062000226826200022d565b9050919050565b600073ffffffffffffffffffffffffffffffffffffffff82169050919050565b600060028204905060018216806200026657607f821691505b602082108114156200027d576200027c62000283565b5b50919050565b7f4e487b7100000000000000000000000000000000000000000000000000000000600052602260045260246000fd5b620002bd8162000219565b8114620002c957600080fd5b50565b6140a780620002dc6000396000f3fe6080604052600436106101c25760003560e01c806362b85834116100f757806398c36c0911610095578063c87b56dd11610064578063c87b56dd146105f7578063d47d3b0a14610634578063e985e9c51461067b578063fc71e282146106b8576101c2565b806398c36c0914610551578063a22cb4651461057a578063ae48c8c2146105a3578063b88d4fde146105ce576101c2565b806370a08231116100d157806370a08231146104815780637924d93f146104be578063947a36fb146104fb57806395d89b4114610526576101c2565b806362b85834146104025780636352211e1461042d5780636527ba5c1461046a576101c2565b806311bb92b51161016457806323b872dd1161013e57806323b872dd1461035557806342842e0e1461037e57806344834aca146103a757806345576f94146103d2576101c2565b806311bb92b5146102f55780631b7e0768146103205780631b9265b81461034b576101c2565b8063081812fc116101a0578063081812fc1461023957806308551a5314610276578063095ea7b3146102a15780630b93381b146102ca576101c2565b8063016617a8146101c757806301ffc9a7146101d157806306fdde031461020e575b600080fd5b6101cf6106e3565b005b3480156101dd57600080fd5b506101f860048036038101906101f39190612ccf565b6108a9565b6040516102059190613331565b60405180910390f35b34801561021a57600080fd5b5061022361098b565b604051610230919061334c565b60405180910390f35b34801561024557600080fd5b50610260600480360381019061025b9190612d62565b610a1d565b60405161026d919061316d565b60405180910390f35b34801561028257600080fd5b5061028b610aa2565b6040516102989190613188565b60405180910390f35b3480156102ad57600080fd5b506102c860048036038101906102c39190612c30565b610ac8565b005b3480156102d657600080fd5b506102df610be0565b6040516102ec9190613331565b60405180910390f35b34801561030157600080fd5b5061030a610c37565b604051610317919061360e565b60405180910390f35b34801561032c57600080fd5b50610335610c81565b604051610342919061360e565b60405180910390f35b610353610ccb565b005b34801561036157600080fd5b5061037c60048036038101906103779190612b2a565b610e88565b005b34801561038a57600080fd5b506103a560048036038101906103a09190612b2a565b610ee8565b005b3480156103b357600080fd5b506103bc610f08565b6040516103c9919061316d565b60405180910390f35b6103ec60048036038101906103e79190612d21565b610f72565b6040516103f9919061360e565b60405180910390f35b34801561040e57600080fd5b50610417610fa9565b604051610424919061360e565b60405180910390f35b34801561043957600080fd5b50610454600480360381019061044f9190612d62565b610ff3565b604051610461919061316d565b60405180910390f35b34801561047657600080fd5b5061047f6110a5565b005b34801561048d57600080fd5b506104a860048036038101906104a39190612ac5565b611238565b6040516104b5919061360e565b60405180910390f35b3480156104ca57600080fd5b506104e560048036038101906104e09190612d62565b6112f0565b6040516104f2919061316d565b60405180910390f35b34801561050757600080fd5b5061051061132f565b60405161051d919061360e565b60405180910390f35b34801561053257600080fd5b5061053b611335565b604051610548919061334c565b60405180910390f35b34801561055d57600080fd5b5061057860048036038101906105739190612c6c565b6113c7565b005b34801561058657600080fd5b506105a1600480360381019061059c9190612bf4565b61182a565b005b3480156105af57600080fd5b506105b8611840565b6040516105c5919061360e565b60405180910390f35b3480156105da57600080fd5b506105f560048036038101906105f09190612b79565b61188a565b005b34801561060357600080fd5b5061061e60048036038101906106199190612d62565b6118ec565b60405161062b919061334c565b60405180910390f35b34801561064057600080fd5b5061065b60048036038101906106569190612ac5565b611a3e565b6040516106729b9a99989796959493929190613286565b60405180910390f35b34801561068757600080fd5b506106a2600480360381019061069d9190612aee565b611ac5565b6040516106af9190613331565b60405180910390f35b3480156106c457600080fd5b506106cd611b59565b6040516106da919061360e565b60405180910390f35b6000600960003373ffffffffffffffffffffffffffffffffffffffff1673ffffffffffffffffffffffffffffffffffffffff16815260200190815260200160002090506000151581600a0160009054906101000a900460ff1615151461077e576040517f08c379a0000000000000000000000000000000000000000000000000000000008152600401610775906135ee565b60405180910390fd5b8060070154816003015461079291906136f3565b34146107d3576040517f08c379a00000000000000000000000000000000000000000000000000000000081526004016107ca9061336e565b60405180910390fd5b6000816003018190555060008160080181905550600181600a0160006101000a81548160ff021916908315150217905550600a60009054906101000a900473ffffffffffffffffffffffffffffffffffffffff1673ffffffffffffffffffffffffffffffffffffffff166108fc349081150290604051600060405180830381858888f1935050505015801561086c573d6000803e3d6000fd5b507f53fd6d3875019abc53c67f8d62c99a336c120cebea2b475b8ce3e1fb8268f4ce333460405161089e929190613218565b60405180910390a150565b60007f80ac58cd000000000000000000000000000000000000000000000000000000007bffffffffffffffffffffffffffffffffffffffffffffffffffffffff1916827bffffffffffffffffffffffffffffffffffffffffffffffffffffffff1916148061097457507f5b5e139f000000000000000000000000000000000000000000000000000000007bffffffffffffffffffffffffffffffffffffffffffffffffffffffff1916827bffffffffffffffffffffffffffffffffffffffffffffffffffffffff1916145b80610984575061098382611ba3565b5b9050919050565b60606000805461099a906138fa565b80601f01602080910402602001604051908101604052809291908181526020018280546109c6906138fa565b8015610a135780601f106109e857610100808354040283529160200191610a13565b820191906000526020600020905b8154815290600101906020018083116109f657829003601f168201915b5050505050905090565b6000610a2882611c0d565b610a67576040517f08c379a0000000000000000000000000000000000000000000000000000000008152600401610a5e9061354e565b60405180910390fd5b6004600083815260200190815260200160002060009054906101000a900473ffffffffffffffffffffffffffffffffffffffff169050919050565b600a60009054906101000a900473ffffffffffffffffffffffffffffffffffffffff1681565b6000610ad382610ff3565b90508073ffffffffffffffffffffffffffffffffffffffff168373ffffffffffffffffffffffffffffffffffffffff161415610b44576040517f08c379a0000000000000000000000000000000000000000000000000000000008152600401610b3b906135ae565b60405180910390fd5b8073ffffffffffffffffffffffffffffffffffffffff16610b63611c79565b73ffffffffffffffffffffffffffffffffffffffff161480610b925750610b9181610b8c611c79565b611ac5565b5b610bd1576040517f08c379a0000000000000000000000000000000000000000000000000000000008152600401610bc89061348e565b60405180910390fd5b610bdb8383611c81565b505050565b6000600960003373ffffffffffffffffffffffffffffffffffffffff1673ffffffffffffffffffffffffffffffffffffffff168152602001908152602001600020600a0160009054906101000a900460ff16905090565b6000600960003373ffffffffffffffffffffffffffffffffffffffff1673ffffffffffffffffffffffffffffffffffffffff16815260200190815260200160002060030154905090565b6000600960003373ffffffffffffffffffffffffffffffffffffffff1673ffffffffffffffffffffffffffffffffffffffff16815260200190815260200160002060020154905090565b6000600960003373ffffffffffffffffffffffffffffffffffffffff1673ffffffffffffffffffffffffffffffffffffffff168152602001908152602001600020905080600601543414610d54576040517f08c379a0000000000000000000000000000000000000000000000000000000008152600401610d4b906133ce565b60405180910390fd5b60008160080154148015610d6c575060008160030154145b15610d8f57600181600a0160006101000a81548160ff0219169083151502179055505b6000151581600a0160009054906101000a900460ff16151514610de7576040517f08c379a0000000000000000000000000000000000000000000000000000000008152600401610dde906135ee565b60405180910390fd5b34816003016000828254610dfb91906137d4565b92505081905550806008016000815480929190610e17906138d0565b9190505550600a60009054906101000a900473ffffffffffffffffffffffffffffffffffffffff1673ffffffffffffffffffffffffffffffffffffffff166108fc349081150290604051600060405180830381858888f19350505050158015610e84573d6000803e3d6000fd5b5050565b610e99610e93611c79565b82611d3a565b610ed8576040517f08c379a0000000000000000000000000000000000000000000000000000000008152600401610ecf906135ce565b60405180910390fd5b610ee3838383611e18565b505050565b610f038383836040518060200160405280600081525061188a565b505050565b6000600960003373ffffffffffffffffffffffffffffffffffffffff1673ffffffffffffffffffffffffffffffffffffffff16815260200190815260200160002060000160009054906101000a900473ffffffffffffffffffffffffffffffffffffffff16905090565b6000610f7e600761207f565b6000610f8a6007612095565b9050610f9630826120a3565b610fa0818461227d565b80915050919050565b6000600960003373ffffffffffffffffffffffffffffffffffffffff1673ffffffffffffffffffffffffffffffffffffffff16815260200190815260200160002060080154905090565b6000806002600084815260200190815260200160002060009054906101000a900473ffffffffffffffffffffffffffffffffffffffff169050600073ffffffffffffffffffffffffffffffffffffffff168173ffffffffffffffffffffffffffffffffffffffff16141561109c576040517f08c379a0000000000000000000000000000000000000000000000000000000008152600401611093906134ce565b60405180910390fd5b80915050919050565b6000600960003373ffffffffffffffffffffffffffffffffffffffff1673ffffffffffffffffffffffffffffffffffffffff1681526020019081526020016000209050806005015462093a8042836001015461110191906136f3565b61110b91906136f3565b1161114b576040517f08c379a00000000000000000000000000000000000000000000000000000000081526004016111429061356e565b60405180910390fd5b80600a0160009054906101000a900460ff166111935761119230600a60009054906101000a900473ffffffffffffffffffffffffffffffffffffffff168360090154611e18565b5b80600a0160009054906101000a900460ff16156111de576111dd308260000160009054906101000a900473ffffffffffffffffffffffffffffffffffffffff168360090154611e18565b5b600181600a0160006101000a81548160ff0219169083151502179055507f076232c96e3b52f25ef83ea1bbb596f3c13148c6369986057599f5a426495de433600160405161122d9291906131ef565b60405180910390a150565b60008073ffffffffffffffffffffffffffffffffffffffff168273ffffffffffffffffffffffffffffffffffffffff1614156112a9576040517f08c379a00000000000000000000000000000000000000000000000000000000081526004016112a0906134ae565b60405180910390fd5b600360008373ffffffffffffffffffffffffffffffffffffffff1673ffffffffffffffffffffffffffffffffffffffff168152602001908152602001600020549050919050565b6008818154811061130057600080fd5b906000526020600020016000915054906101000a900473ffffffffffffffffffffffffffffffffffffffff1681565b600b5481565b606060018054611344906138fa565b80601f0160208091040260200160405190810160405280929190818152602001828054611370906138fa565b80156113bd5780601f10611392576101008083540402835291602001916113bd565b820191906000526020600020905b8154815290600101906020018083116113a057829003601f168201915b5050505050905090565b6000805b600880549050811015611488573373ffffffffffffffffffffffffffffffffffffffff1660088281548110611429577f4e487b7100000000000000000000000000000000000000000000000000000000600052603260045260246000fd5b9060005260206000200160009054906101000a900473ffffffffffffffffffffffffffffffffffffffff1673ffffffffffffffffffffffffffffffffffffffff16141561147557600191505b80806114809061395d565b9150506113cb565b5060011515600960003373ffffffffffffffffffffffffffffffffffffffff1673ffffffffffffffffffffffffffffffffffffffff168152602001908152602001600020600a0160009054906101000a900460ff16151514806114ef575060001515811515145b61152e576040517f08c379a00000000000000000000000000000000000000000000000000000000081526004016115259061338e565b60405180910390fd5b600060058561153d9190613749565b8561154891906136f3565b905060008190506000600a8361155e9190613749565b90506000868461156e9190613749565b90506008339080600181540180825580915050600190039060005260206000200160009091909190916101000a81548173ffffffffffffffffffffffffffffffffffffffff021916908373ffffffffffffffffffffffffffffffffffffffff1602179055506040518061016001604052808a73ffffffffffffffffffffffffffffffffffffffff168152602001428152602001670de0b6b3a76400008a611615919061377a565b8152602001670de0b6b3a76400008661162e919061377a565b8152602001670de0b6b3a764000085611647919061377a565b815260200162278d008961165b919061377a565b8152602001670de0b6b3a764000083611674919061377a565b8152602001670de0b6b3a76400008461168d919061377a565b815260200188815260200187815260200160001515815250600960003373ffffffffffffffffffffffffffffffffffffffff1673ffffffffffffffffffffffffffffffffffffffff16815260200190815260200160002060008201518160000160006101000a81548173ffffffffffffffffffffffffffffffffffffffff021916908373ffffffffffffffffffffffffffffffffffffffff1602179055506020820151816001015560408201518160020155606082015181600301556080820151816004015560a0820151816005015560c0820151816006015560e082015181600701556101008201518160080155610120820151816009015561014082015181600a0160006101000a81548160ff0219169083151502179055509050507fd67970a193111ef336477be7fc67703eef6f7e869454f0b197ce2537ddbcc6ee866040516117da919061360e565b60405180910390a17fddc1975e94c24dc6fdd60782dfe8284cdb84a1dda289ac203056950a747bd8a6898989426040516118179493929190613241565b60405180910390a1505050505050505050565b61183c611835611c79565b83836122f1565b5050565b6000600960003373ffffffffffffffffffffffffffffffffffffffff1673ffffffffffffffffffffffffffffffffffffffff16815260200190815260200160002060060154905090565b61189b611895611c79565b83611d3a565b6118da576040517f08c379a00000000000000000000000000000000000000000000000000000000081526004016118d1906135ce565b60405180910390fd5b6118e68484848461245e565b50505050565b60606118f782611c0d565b611936576040517f08c379a000000000000000000000000000000000000000000000000000000000815260040161192d9061352e565b60405180910390fd5b6000600660008481526020019081526020016000208054611956906138fa565b80601f0160208091040260200160405190810160405280929190818152602001828054611982906138fa565b80156119cf5780601f106119a4576101008083540402835291602001916119cf565b820191906000526020600020905b8154815290600101906020018083116119b257829003601f168201915b5050505050905060006119e06124ba565b90506000815114156119f6578192505050611a39565b600082511115611a2b578082604051602001611a13929190613149565b60405160208183030381529060405292505050611a39565b611a34846124d1565b925050505b919050565b60096020528060005260406000206000915090508060000160009054906101000a900473ffffffffffffffffffffffffffffffffffffffff169080600101549080600201549080600301549080600401549080600501549080600601549080600701549080600801549080600901549080600a0160009054906101000a900460ff1690508b565b6000600560008473ffffffffffffffffffffffffffffffffffffffff1673ffffffffffffffffffffffffffffffffffffffff16815260200190815260200160002060008373ffffffffffffffffffffffffffffffffffffffff1673ffffffffffffffffffffffffffffffffffffffff16815260200190815260200160002060009054906101000a900460ff16905092915050565b6000600960003373ffffffffffffffffffffffffffffffffffffffff1673ffffffffffffffffffffffffffffffffffffffff16815260200190815260200160002060010154905090565b60007f01ffc9a7000000000000000000000000000000000000000000000000000000007bffffffffffffffffffffffffffffffffffffffffffffffffffffffff1916827bffffffffffffffffffffffffffffffffffffffffffffffffffffffff1916149050919050565b60008073ffffffffffffffffffffffffffffffffffffffff166002600084815260200190815260200160002060009054906101000a900473ffffffffffffffffffffffffffffffffffffffff1673ffffffffffffffffffffffffffffffffffffffff1614159050919050565b600033905090565b816004600083815260200190815260200160002060006101000a81548173ffffffffffffffffffffffffffffffffffffffff021916908373ffffffffffffffffffffffffffffffffffffffff160217905550808273ffffffffffffffffffffffffffffffffffffffff16611cf483610ff3565b73ffffffffffffffffffffffffffffffffffffffff167f8c5be1e5ebec7d5bd14f71427d1e84f3dd0314c0f7b2291e5b200ac8c7c3b92560405160405180910390a45050565b6000611d4582611c0d565b611d84576040517f08c379a0000000000000000000000000000000000000000000000000000000008152600401611d7b9061346e565b60405180910390fd5b6000611d8f83610ff3565b90508073ffffffffffffffffffffffffffffffffffffffff168473ffffffffffffffffffffffffffffffffffffffff161480611dfe57508373ffffffffffffffffffffffffffffffffffffffff16611de684610a1d565b73ffffffffffffffffffffffffffffffffffffffff16145b80611e0f5750611e0e8185611ac5565b5b91505092915050565b8273ffffffffffffffffffffffffffffffffffffffff16611e3882610ff3565b73ffffffffffffffffffffffffffffffffffffffff1614611e8e576040517f08c379a0000000000000000000000000000000000000000000000000000000008152600401611e85906133ee565b60405180910390fd5b600073ffffffffffffffffffffffffffffffffffffffff168273ffffffffffffffffffffffffffffffffffffffff161415611efe576040517f08c379a0000000000000000000000000000000000000000000000000000000008152600401611ef59061342e565b60405180910390fd5b611f09838383612578565b611f14600082611c81565b6001600360008573ffffffffffffffffffffffffffffffffffffffff1673ffffffffffffffffffffffffffffffffffffffff1681526020019081526020016000206000828254611f6491906137d4565b925050819055506001600360008473ffffffffffffffffffffffffffffffffffffffff1673ffffffffffffffffffffffffffffffffffffffff1681526020019081526020016000206000828254611fbb91906136f3565b92505081905550816002600083815260200190815260200160002060006101000a81548173ffffffffffffffffffffffffffffffffffffffff021916908373ffffffffffffffffffffffffffffffffffffffff160217905550808273ffffffffffffffffffffffffffffffffffffffff168473ffffffffffffffffffffffffffffffffffffffff167fddf252ad1be2c89b69c2b068fc378daa952ba7f163c4a11628f55a4df523b3ef60405160405180910390a461207a83838361257d565b505050565b6001816000016000828254019250508190555050565b600081600001549050919050565b600073ffffffffffffffffffffffffffffffffffffffff168273ffffffffffffffffffffffffffffffffffffffff161415612113576040517f08c379a000000000000000000000000000000000000000000000000000000000815260040161210a9061350e565b60405180910390fd5b61211c81611c0d565b1561215c576040517f08c379a00000000000000000000000000000000000000000000000000000000081526004016121539061340e565b60405180910390fd5b61216860008383612578565b6001600360008473ffffffffffffffffffffffffffffffffffffffff1673ffffffffffffffffffffffffffffffffffffffff16815260200190815260200160002060008282546121b891906136f3565b92505081905550816002600083815260200190815260200160002060006101000a81548173ffffffffffffffffffffffffffffffffffffffff021916908373ffffffffffffffffffffffffffffffffffffffff160217905550808273ffffffffffffffffffffffffffffffffffffffff16600073ffffffffffffffffffffffffffffffffffffffff167fddf252ad1be2c89b69c2b068fc378daa952ba7f163c4a11628f55a4df523b3ef60405160405180910390a46122796000838361257d565b5050565b61228682611c0d565b6122c5576040517f08c379a00000000000000000000000000000000000000000000000000000000081526004016122bc906134ee565b60405180910390fd5b806006600084815260200190815260200160002090805190602001906122ec9291906128e9565b505050565b8173ffffffffffffffffffffffffffffffffffffffff168373ffffffffffffffffffffffffffffffffffffffff161415612360576040517f08c379a00000000000000000000000000000000000000000000000000000000081526004016123579061344e565b60405180910390fd5b80600560008573ffffffffffffffffffffffffffffffffffffffff1673ffffffffffffffffffffffffffffffffffffffff16815260200190815260200160002060008473ffffffffffffffffffffffffffffffffffffffff1673ffffffffffffffffffffffffffffffffffffffff16815260200190815260200160002060006101000a81548160ff0219169083151502179055508173ffffffffffffffffffffffffffffffffffffffff168373ffffffffffffffffffffffffffffffffffffffff167f17307eab39ab6107e8899845ad3d59bd9653f200f220920489ca2b5937696c31836040516124519190613331565b60405180910390a3505050565b612469848484611e18565b61247584848484612582565b6124b4576040517f08c379a00000000000000000000000000000000000000000000000000000000081526004016124ab906133ae565b60405180910390fd5b50505050565b606060405180602001604052806000815250905090565b60606124dc82611c0d565b61251b576040517f08c379a00000000000000000000000000000000000000000000000000000000081526004016125129061358e565b60405180910390fd5b60006125256124ba565b905060008151116125455760405180602001604052806000815250612570565b8061254f84612719565b604051602001612560929190613149565b6040516020818303038152906040525b915050919050565b505050565b505050565b60006125a38473ffffffffffffffffffffffffffffffffffffffff166128c6565b1561270c578373ffffffffffffffffffffffffffffffffffffffff1663150b7a026125cc611c79565b8786866040518563ffffffff1660e01b81526004016125ee94939291906131a3565b602060405180830381600087803b15801561260857600080fd5b505af192505050801561263957506040513d601f19601f820116820180604052508101906126369190612cf8565b60015b6126bc573d8060008114612669576040519150601f19603f3d011682016040523d82523d6000602084013e61266e565b606091505b506000815114156126b4576040517f08c379a00000000000000000000000000000000000000000000000000000000081526004016126ab906133ae565b60405180910390fd5b805181602001fd5b63150b7a0260e01b7bffffffffffffffffffffffffffffffffffffffffffffffffffffffff1916817bffffffffffffffffffffffffffffffffffffffffffffffffffffffff191614915050612711565b600190505b949350505050565b60606000821415612761576040518060400160405280600181526020017f300000000000000000000000000000000000000000000000000000000000000081525090506128c1565b600082905060005b6000821461279357808061277c9061395d565b915050600a8261278c9190613749565b9150612769565b60008167ffffffffffffffff8111156127d5577f4e487b7100000000000000000000000000000000000000000000000000000000600052604160045260246000fd5b6040519080825280601f01601f1916602001820160405280156128075781602001600182028036833780820191505090505b5090505b600085146128ba5760018261282091906137d4565b9150600a8561282f91906139a6565b603061283b91906136f3565b60f81b818381518110612877577f4e487b7100000000000000000000000000000000000000000000000000000000600052603260045260246000fd5b60200101907effffffffffffffffffffffffffffffffffffffffffffffffffffffffffffff1916908160001a905350600a856128b39190613749565b945061280b565b8093505050505b919050565b6000808273ffffffffffffffffffffffffffffffffffffffff163b119050919050565b8280546128f5906138fa565b90600052602060002090601f016020900481019282612917576000855561295e565b82601f1061293057805160ff191683800117855561295e565b8280016001018555821561295e579182015b8281111561295d578251825591602001919060010190612942565b5b50905061296b919061296f565b5090565b5b80821115612988576000816000905550600101612970565b5090565b600061299f61299a8461364e565b613629565b9050828152602081018484840111156129b757600080fd5b6129c284828561388e565b509392505050565b60006129dd6129d88461367f565b613629565b9050828152602081018484840111156129f557600080fd5b612a0084828561388e565b509392505050565b600081359050612a1781614015565b92915050565b600081359050612a2c8161402c565b92915050565b600081359050612a4181614043565b92915050565b600081519050612a5681614043565b92915050565b600082601f830112612a6d57600080fd5b8135612a7d84826020860161298c565b91505092915050565b600082601f830112612a9757600080fd5b8135612aa78482602086016129ca565b91505092915050565b600081359050612abf8161405a565b92915050565b600060208284031215612ad757600080fd5b6000612ae584828501612a08565b91505092915050565b60008060408385031215612b0157600080fd5b6000612b0f85828601612a08565b9250506020612b2085828601612a08565b9150509250929050565b600080600060608486031215612b3f57600080fd5b6000612b4d86828701612a08565b9350506020612b5e86828701612a08565b9250506040612b6f86828701612ab0565b9150509250925092565b60008060008060808587031215612b8f57600080fd5b6000612b9d87828801612a08565b9450506020612bae87828801612a08565b9350506040612bbf87828801612ab0565b925050606085013567ffffffffffffffff811115612bdc57600080fd5b612be887828801612a5c565b91505092959194509250565b60008060408385031215612c0757600080fd5b6000612c1585828601612a08565b9250506020612c2685828601612a1d565b9150509250929050565b60008060408385031215612c4357600080fd5b6000612c5185828601612a08565b9250506020612c6285828601612ab0565b9150509250929050565b60008060008060808587031215612c8257600080fd5b6000612c9087828801612a08565b9450506020612ca187828801612ab0565b9350506040612cb287828801612ab0565b9250506060612cc387828801612ab0565b91505092959194509250565b600060208284031215612ce157600080fd5b6000612cef84828501612a32565b91505092915050565b600060208284031215612d0a57600080fd5b6000612d1884828501612a47565b91505092915050565b600060208284031215612d3357600080fd5b600082013567ffffffffffffffff811115612d4d57600080fd5b612d5984828501612a86565b91505092915050565b600060208284031215612d7457600080fd5b6000612d8284828501612ab0565b91505092915050565b612d948161381a565b82525050565b612da381613808565b82525050565b612db28161382c565b82525050565b6000612dc3826136b0565b612dcd81856136c6565b9350612ddd81856020860161389d565b612de681613a93565b840191505092915050565b6000612dfc826136bb565b612e0681856136d7565b9350612e1681856020860161389d565b612e1f81613a93565b840191505092915050565b6000612e35826136bb565b612e3f81856136e8565b9350612e4f81856020860161389d565b80840191505092915050565b6000612e68601e836136d7565b9150612e7382613aa4565b602082019050919050565b6000612e8b6020836136d7565b9150612e9682613acd565b602082019050919050565b6000612eae6032836136d7565b9150612eb982613af6565b604082019050919050565b6000612ed1601f836136d7565b9150612edc82613b45565b602082019050919050565b6000612ef46025836136d7565b9150612eff82613b6e565b604082019050919050565b6000612f17601c836136d7565b9150612f2282613bbd565b602082019050919050565b6000612f3a6024836136d7565b9150612f4582613be6565b604082019050919050565b6000612f5d6019836136d7565b9150612f6882613c35565b602082019050919050565b6000612f80602c836136d7565b9150612f8b82613c5e565b604082019050919050565b6000612fa36038836136d7565b9150612fae82613cad565b604082019050919050565b6000612fc6602a836136d7565b9150612fd182613cfc565b604082019050919050565b6000612fe96029836136d7565b9150612ff482613d4b565b604082019050919050565b600061300c602e836136d7565b915061301782613d9a565b604082019050919050565b600061302f6020836136d7565b915061303a82613de9565b602082019050919050565b60006130526031836136d7565b915061305d82613e12565b604082019050919050565b6000613075602c836136d7565b915061308082613e61565b604082019050919050565b60006130986023836136d7565b91506130a382613eb0565b604082019050919050565b60006130bb602f836136d7565b91506130c682613eff565b604082019050919050565b60006130de6021836136d7565b91506130e982613f4e565b604082019050919050565b60006131016031836136d7565b915061310c82613f9d565b604082019050919050565b60006131246013836136d7565b915061312f82613fec565b602082019050919050565b61314381613884565b82525050565b60006131558285612e2a565b91506131618284612e2a565b91508190509392505050565b60006020820190506131826000830184612d9a565b92915050565b600060208201905061319d6000830184612d8b565b92915050565b60006080820190506131b86000830187612d9a565b6131c56020830186612d9a565b6131d2604083018561313a565b81810360608301526131e48184612db8565b905095945050505050565b60006040820190506132046000830185612d9a565b6132116020830184612da9565b9392505050565b600060408201905061322d6000830185612d9a565b61323a602083018461313a565b9392505050565b60006080820190506132566000830187612d9a565b613263602083018661313a565b613270604083018561313a565b61327d606083018461313a565b95945050505050565b60006101608201905061329c600083018e612d9a565b6132a9602083018d61313a565b6132b6604083018c61313a565b6132c3606083018b61313a565b6132d0608083018a61313a565b6132dd60a083018961313a565b6132ea60c083018861313a565b6132f760e083018761313a565b61330561010083018661313a565b61331361012083018561313a565b613321610140830184612da9565b9c9b505050505050505050505050565b60006020820190506133466000830184612da9565b92915050565b600060208201905081810360008301526133668184612df1565b905092915050565b6000602082019050818103600083015261338781612e5b565b9050919050565b600060208201905081810360008301526133a781612e7e565b9050919050565b600060208201905081810360008301526133c781612ea1565b9050919050565b600060208201905081810360008301526133e781612ec4565b9050919050565b6000602082019050818103600083015261340781612ee7565b9050919050565b6000602082019050818103600083015261342781612f0a565b9050919050565b6000602082019050818103600083015261344781612f2d565b9050919050565b6000602082019050818103600083015261346781612f50565b9050919050565b6000602082019050818103600083015261348781612f73565b9050919050565b600060208201905081810360008301526134a781612f96565b9050919050565b600060208201905081810360008301526134c781612fb9565b9050919050565b600060208201905081810360008301526134e781612fdc565b9050919050565b6000602082019050818103600083015261350781612fff565b9050919050565b6000602082019050818103600083015261352781613022565b9050919050565b6000602082019050818103600083015261354781613045565b9050919050565b6000602082019050818103600083015261356781613068565b9050919050565b600060208201905081810360008301526135878161308b565b9050919050565b600060208201905081810360008301526135a7816130ae565b9050919050565b600060208201905081810360008301526135c7816130d1565b9050919050565b600060208201905081810360008301526135e7816130f4565b9050919050565b6000602082019050818103600083015261360781613117565b9050919050565b6000602082019050613623600083018461313a565b92915050565b6000613633613644565b905061363f828261392c565b919050565b6000604051905090565b600067ffffffffffffffff82111561366957613668613a64565b5b61367282613a93565b9050602081019050919050565b600067ffffffffffffffff82111561369a57613699613a64565b5b6136a382613a93565b9050602081019050919050565b600081519050919050565b600081519050919050565b600082825260208201905092915050565b600082825260208201905092915050565b600081905092915050565b60006136fe82613884565b915061370983613884565b9250827fffffffffffffffffffffffffffffffffffffffffffffffffffffffffffffffff0382111561373e5761373d6139d7565b5b828201905092915050565b600061375482613884565b915061375f83613884565b92508261376f5761376e613a06565b5b828204905092915050565b600061378582613884565b915061379083613884565b9250817fffffffffffffffffffffffffffffffffffffffffffffffffffffffffffffffff04831182151516156137c9576137c86139d7565b5b828202905092915050565b60006137df82613884565b91506137ea83613884565b9250828210156137fd576137fc6139d7565b5b828203905092915050565b600061381382613864565b9050919050565b600061382582613864565b9050919050565b60008115159050919050565b60007fffffffff0000000000000000000000000000000000000000000000000000000082169050919050565b600073ffffffffffffffffffffffffffffffffffffffff82169050919050565b6000819050919050565b82818337600083830152505050565b60005b838110156138bb5780820151818401526020810190506138a0565b838111156138ca576000848401525b50505050565b60006138db82613884565b915060008214156138ef576138ee6139d7565b5b600182039050919050565b6000600282049050600182168061391257607f821691505b6020821081141561392657613925613a35565b5b50919050565b61393582613a93565b810181811067ffffffffffffffff8211171561395457613953613a64565b5b80604052505050565b600061396882613884565b91507fffffffffffffffffffffffffffffffffffffffffffffffffffffffffffffffff82141561399b5761399a6139d7565b5b600182019050919050565b60006139b182613884565b91506139bc83613884565b9250826139cc576139cb613a06565b5b828206905092915050565b7f4e487b7100000000000000000000000000000000000000000000000000000000600052601160045260246000fd5b7f4e487b7100000000000000000000000000000000000000000000000000000000600052601260045260246000fd5b7f4e487b7100000000000000000000000000000000000000000000000000000000600052602260045260246000fd5b7f4e487b7100000000000000000000000000000000000000000000000000000000600052604160045260246000fd5b6000601f19601f8301169050919050565b7f54686520726570617920616d6f756e74206973206e6f7420656e6f7567680000600082015250565b7f596f7520616c7265616479206861766520612072756e6e696e67206c6f616e2e600082015250565b7f4552433732313a207472616e7366657220746f206e6f6e20455243373231526560008201527f63656976657220696d706c656d656e7465720000000000000000000000000000602082015250565b7f416d6f756e74206e6f742061636375726174652e2054727920616761696e2100600082015250565b7f4552433732313a207472616e736665722066726f6d20696e636f72726563742060008201527f6f776e6572000000000000000000000000000000000000000000000000000000602082015250565b7f4552433732313a20746f6b656e20616c7265616479206d696e74656400000000600082015250565b7f4552433732313a207472616e7366657220746f20746865207a65726f2061646460008201527f7265737300000000000000000000000000000000000000000000000000000000602082015250565b7f4552433732313a20617070726f766520746f2063616c6c657200000000000000600082015250565b7f4552433732313a206f70657261746f7220717565727920666f72206e6f6e657860008201527f697374656e7420746f6b656e0000000000000000000000000000000000000000602082015250565b7f4552433732313a20617070726f76652063616c6c6572206973206e6f74206f7760008201527f6e6572206e6f7220617070726f76656420666f7220616c6c0000000000000000602082015250565b7f4552433732313a2062616c616e636520717565727920666f7220746865207a6560008201527f726f206164647265737300000000000000000000000000000000000000000000602082015250565b7f4552433732313a206f776e657220717565727920666f72206e6f6e657869737460008201527f656e7420746f6b656e0000000000000000000000000000000000000000000000602082015250565b7f45524337323155524953746f726167653a2055524920736574206f66206e6f6e60008201527f6578697374656e7420746f6b656e000000000000000000000000000000000000602082015250565b7f4552433732313a206d696e7420746f20746865207a65726f2061646472657373600082015250565b7f45524337323155524953746f726167653a2055524920717565727920666f722060008201527f6e6f6e6578697374656e7420746f6b656e000000000000000000000000000000602082015250565b7f4552433732313a20617070726f76656420717565727920666f72206e6f6e657860008201527f697374656e7420746f6b656e0000000000000000000000000000000000000000602082015250565b7f54696d65207374696c6c2072656d61696e696e6720666f7220736574746c656d60008201527f656e740000000000000000000000000000000000000000000000000000000000602082015250565b7f4552433732314d657461646174613a2055524920717565727920666f72206e6f60008201527f6e6578697374656e7420746f6b656e0000000000000000000000000000000000602082015250565b7f4552433732313a20617070726f76616c20746f2063757272656e74206f776e6560008201527f7200000000000000000000000000000000000000000000000000000000000000602082015250565b7f4552433732313a207472616e736665722063616c6c6572206973206e6f74206f60008201527f776e6572206e6f7220617070726f766564000000000000000000000000000000602082015250565b7f416d6f756e7420616c7265616479207061696400000000000000000000000000600082015250565b61401e81613808565b811461402957600080fd5b50565b6140358161382c565b811461404057600080fd5b50565b61404c81613838565b811461405757600080fd5b50565b61406381613884565b811461406e57600080fd5b5056fea2646970667358221220481969061524e1e98ce1ac767a2154d85024279b0642d0f77d5576fd17b5285f64736f6c63430008040033",
  "linkReferences": {},
  "deployedLinkReferences": {}
}