{
  "_format": "hh-sol-artifact-1",
  "contractName": "Divvy",
  "sourceName": "contracts/Divvy.sol",
  "abi": [
    {
      "inputs": [
        {
          "internalType": "address payable",
          "name": "_seller",
          "type": "address"
        }
      ],
      "stateMutability": "nonpayable",
      "type": "constructor"
    },
    {
      "anonymous": false,
      "inputs": [
        {
          "indexed": true,
          "internalType": "address",
          "name": "owner",
          "type": "address"
        },
        {
          "indexed": true,
          "internalType": "address",
          "name": "approved",
          "type": "address"
        },
        {
          "indexed": true,
          "internalType": "uint256",
          "name": "tokenId",
          "type": "uint256"
        }
      ],
      "name": "Approval",
      "type": "event"
    },
    {
      "anonymous": false,
      "inputs": [
        {
          "indexed": true,
          "internalType": "address",
          "name": "owner",
          "type": "address"
        },
        {
          "indexed": true,
          "internalType": "address",
          "name": "operator",
          "type": "address"
        },
        {
          "indexed": false,
          "internalType": "bool",
          "name": "approved",
          "type": "bool"
        }
      ],
      "name": "ApprovalForAll",
      "type": "event"
    },
    {
      "anonymous": false,
      "inputs": [
        {
          "indexed": false,
          "internalType": "address",
          "name": "_buyer",
          "type": "address"
        },
        {
          "indexed": false,
          "internalType": "uint256",
          "name": "_installment",
          "type": "uint256"
        }
      ],
      "name": "FullPaidEvent",
      "type": "event"
    },
    {
      "anonymous": false,
      "inputs": [
        {
          "indexed": false,
          "internalType": "uint256",
          "name": "_id",
          "type": "uint256"
        }
      ],
      "name": "NFTReceivedEvent",
      "type": "event"
    },
    {
      "anonymous": false,
      "inputs": [
        {
          "indexed": false,
          "internalType": "address",
          "name": "_buyer",
          "type": "address"
        },
        {
          "indexed": false,
          "internalType": "bool",
          "name": "completed",
          "type": "bool"
        }
      ],
      "name": "SettleLoan",
      "type": "event"
    },
    {
      "anonymous": false,
      "inputs": [
        {
          "indexed": true,
          "internalType": "address",
          "name": "from",
          "type": "address"
        },
        {
          "indexed": true,
          "internalType": "address",
          "name": "to",
          "type": "address"
        },
        {
          "indexed": true,
          "internalType": "uint256",
          "name": "tokenId",
          "type": "uint256"
        }
      ],
      "name": "Transfer",
      "type": "event"
    },
    {
      "anonymous": false,
      "inputs": [
        {
          "indexed": false,
          "internalType": "address",
          "name": "_buyer",
          "type": "address"
        },
        {
          "indexed": false,
          "internalType": "uint256",
          "name": "_loanAmount",
          "type": "uint256"
        },
        {
          "indexed": false,
          "internalType": "uint256",
          "name": "_tenure",
          "type": "uint256"
        },
        {
          "indexed": false,
          "internalType": "uint256",
          "name": "startTime",
          "type": "uint256"
        }
      ],
      "name": "initEvent",
      "type": "event"
    },
    {
      "inputs": [
        {
          "internalType": "address",
          "name": "",
          "type": "address"
        }
      ],
      "name": "addressToLoan",
      "outputs": [
        {
          "internalType": "address",
          "name": "buyer",
          "type": "address"
        },
        {
          "internalType": "uint256",
          "name": "loanStart",
          "type": "uint256"
        },
        {
          "internalType": "uint256",
          "name": "loanAmount",
          "type": "uint256"
        },
        {
          "internalType": "uint256",
          "name": "repayAmount",
          "type": "uint256"
        },
        {
          "internalType": "uint256",
          "name": "remainingAmount",
          "type": "uint256"
        },
        {
          "internalType": "uint256",
          "name": "tenure",
          "type": "uint256"
        },
        {
          "internalType": "uint256",
          "name": "payoutPerMonth",
          "type": "uint256"
        },
        {
          "internalType": "uint256",
          "name": "penalty",
          "type": "uint256"
        },
        {
          "internalType": "uint256",
          "name": "intervalTimes",
          "type": "uint256"
        },
        {
          "internalType": "uint256",
          "name": "NFTId",
          "type": "uint256"
        },
        {
          "internalType": "bool",
          "name": "completed",
          "type": "bool"
        }
      ],
      "stateMutability": "view",
      "type": "function"
    },
    {
      "inputs": [
        {
          "internalType": "address",
          "name": "to",
          "type": "address"
        },
        {
          "internalType": "uint256",
          "name": "tokenId",
          "type": "uint256"
        }
      ],
      "name": "approve",
      "outputs": [],
      "stateMutability": "nonpayable",
      "type": "function"
    },
    {
      "inputs": [
        {
          "internalType": "address",
          "name": "owner",
          "type": "address"
        }
      ],
      "name": "balanceOf",
      "outputs": [
        {
          "internalType": "uint256",
          "name": "",
          "type": "uint256"
        }
      ],
      "stateMutability": "view",
      "type": "function"
    },
    {
      "inputs": [
        {
          "internalType": "uint256",
          "name": "",
          "type": "uint256"
        }
      ],
      "name": "borrowers",
      "outputs": [
        {
          "internalType": "address",
          "name": "",
          "type": "address"
        }
      ],
      "stateMutability": "view",
      "type": "function"
    },
    {
      "inputs": [],
      "name": "buyerAddress",
      "outputs": [
        {
          "internalType": "address",
          "name": "",
          "type": "address"
        }
      ],
      "stateMutability": "view",
      "type": "function"
    },
    {
      "inputs": [
        {
          "internalType": "bytes",
          "name": "",
          "type": "bytes"
        }
      ],
      "name": "checkUpkeep",
      "outputs": [
        {
          "internalType": "bool",
          "name": "upkeepNeeded",
          "type": "bool"
        },
        {
          "internalType": "bytes",
          "name": "",
          "type": "bytes"
        }
      ],
      "stateMutability": "view",
      "type": "function"
    },
    {
      "inputs": [
        {
          "internalType": "string",
          "name": "tokenURI",
          "type": "string"
        }
      ],
      "name": "createToken",
      "outputs": [
        {
          "internalType": "uint256",
          "name": "",
          "type": "uint256"
        }
      ],
      "stateMutability": "payable",
      "type": "function"
    },
    {
      "inputs": [],
      "name": "fullPaymentWithPenalty",
      "outputs": [
        {
          "internalType": "uint256",
          "name": "",
          "type": "uint256"
        }
      ],
      "stateMutability": "view",
      "type": "function"
    },
    {
      "inputs": [
        {
          "internalType": "uint256",
          "name": "tokenId",
          "type": "uint256"
        }
      ],
      "name": "getApproved",
      "outputs": [
        {
          "internalType": "address",
          "name": "",
          "type": "address"
        }
      ],
      "stateMutability": "view",
      "type": "function"
    },
    {
      "inputs": [],
      "name": "getId",
      "outputs": [
        {
          "internalType": "uint256",
          "name": "",
          "type": "uint256"
        }
      ],
      "stateMutability": "view",
      "type": "function"
    },
    {
      "inputs": [],
      "name": "id",
      "outputs": [
        {
          "internalType": "uint256",
          "name": "",
          "type": "uint256"
        }
      ],
      "stateMutability": "view",
      "type": "function"
    },
    {
      "inputs": [
        {
          "internalType": "address",
          "name": "_buyer",
          "type": "address"
        },
        {
          "internalType": "uint256",
          "name": "_loanAmount",
          "type": "uint256"
        },
        {
          "internalType": "uint256",
          "name": "_tenure",
          "type": "uint256"
        },
        {
          "internalType": "uint256",
          "name": "tokenId",
          "type": "uint256"
        }
      ],
      "name": "init",
      "outputs": [],
      "stateMutability": "nonpayable",
      "type": "function"
    },
    {
      "inputs": [],
      "name": "installmentAmt",
      "outputs": [
        {
          "internalType": "uint256",
          "name": "",
          "type": "uint256"
        }
      ],
      "stateMutability": "view",
      "type": "function"
    },
    {
      "inputs": [],
      "name": "interval",
      "outputs": [
        {
          "internalType": "uint256",
          "name": "",
          "type": "uint256"
        }
      ],
      "stateMutability": "view",
      "type": "function"
    },
    {
      "inputs": [
        {
          "internalType": "address",
          "name": "owner",
          "type": "address"
        },
        {
          "internalType": "address",
          "name": "operator",
          "type": "address"
        }
      ],
      "name": "isApprovedForAll",
      "outputs": [
        {
          "internalType": "bool",
          "name": "",
          "type": "bool"
        }
      ],
      "stateMutability": "view",
      "type": "function"
    },
    {
      "inputs": [],
      "name": "lastTimeStamp",
      "outputs": [
        {
          "internalType": "uint256",
          "name": "",
          "type": "uint256"
        }
      ],
      "stateMutability": "view",
      "type": "function"
    },
    {
      "inputs": [],
      "name": "loanAmt",
      "outputs": [
        {
          "internalType": "uint256",
          "name": "",
          "type": "uint256"
        }
      ],
      "stateMutability": "view",
      "type": "function"
    },
    {
      "inputs": [],
      "name": "loanStartedOn",
      "outputs": [
        {
          "internalType": "uint256",
          "name": "",
          "type": "uint256"
        }
      ],
      "stateMutability": "view",
      "type": "function"
    },
    {
      "inputs": [],
      "name": "name",
      "outputs": [
        {
          "internalType": "string",
          "name": "",
          "type": "string"
        }
      ],
      "stateMutability": "view",
      "type": "function"
    },
    {
      "inputs": [
        {
          "internalType": "uint256",
          "name": "tokenId",
          "type": "uint256"
        }
      ],
      "name": "ownerOf",
      "outputs": [
        {
          "internalType": "address",
          "name": "",
          "type": "address"
        }
      ],
      "stateMutability": "view",
      "type": "function"
    },
    {
      "inputs": [],
      "name": "pay",
      "outputs": [],
      "stateMutability": "payable",
      "type": "function"
    },
    {
      "inputs": [],
      "name": "payInFull",
      "outputs": [],
      "stateMutability": "payable",
      "type": "function"
    },
    {
      "inputs": [
        {
          "internalType": "bytes",
          "name": "",
          "type": "bytes"
        }
      ],
      "name": "performUpkeep",
      "outputs": [],
      "stateMutability": "nonpayable",
      "type": "function"
    },
    {
      "inputs": [],
      "name": "repayAmt",
      "outputs": [
        {
          "internalType": "uint256",
          "name": "",
          "type": "uint256"
        }
      ],
      "stateMutability": "view",
      "type": "function"
    },
    {
      "inputs": [
        {
          "internalType": "address",
          "name": "from",
          "type": "address"
        },
        {
          "internalType": "address",
          "name": "to",
          "type": "address"
        },
        {
          "internalType": "uint256",
          "name": "tokenId",
          "type": "uint256"
        }
      ],
      "name": "safeTransferFrom",
      "outputs": [],
      "stateMutability": "nonpayable",
      "type": "function"
    },
    {
      "inputs": [
        {
          "internalType": "address",
          "name": "from",
          "type": "address"
        },
        {
          "internalType": "address",
          "name": "to",
          "type": "address"
        },
        {
          "internalType": "uint256",
          "name": "tokenId",
          "type": "uint256"
        },
        {
          "internalType": "bytes",
          "name": "_data",
          "type": "bytes"
        }
      ],
      "name": "safeTransferFrom",
      "outputs": [],
      "stateMutability": "nonpayable",
      "type": "function"
    },
    {
      "inputs": [],
      "name": "seller",
      "outputs": [
        {
          "internalType": "address payable",
          "name": "",
          "type": "address"
        }
      ],
      "stateMutability": "view",
      "type": "function"
    },
    {
      "inputs": [
        {
          "internalType": "address",
          "name": "operator",
          "type": "address"
        },
        {
          "internalType": "bool",
          "name": "approved",
          "type": "bool"
        }
      ],
      "name": "setApprovalForAll",
      "outputs": [],
      "stateMutability": "nonpayable",
      "type": "function"
    },
    {
      "inputs": [],
      "name": "settleLoan",
      "outputs": [],
      "stateMutability": "nonpayable",
      "type": "function"
    },
    {
      "inputs": [],
      "name": "success",
      "outputs": [
        {
          "internalType": "bool",
          "name": "",
          "type": "bool"
        }
      ],
      "stateMutability": "view",
      "type": "function"
    },
    {
      "inputs": [
        {
          "internalType": "bytes4",
          "name": "interfaceId",
          "type": "bytes4"
        }
      ],
      "name": "supportsInterface",
      "outputs": [
        {
          "internalType": "bool",
          "name": "",
          "type": "bool"
        }
      ],
      "stateMutability": "view",
      "type": "function"
    },
    {
      "inputs": [],
      "name": "symbol",
      "outputs": [
        {
          "internalType": "string",
          "name": "",
          "type": "string"
        }
      ],
      "stateMutability": "view",
      "type": "function"
    },
    {
      "inputs": [],
      "name": "tenure",
      "outputs": [
        {
          "internalType": "uint256",
          "name": "",
          "type": "uint256"
        }
      ],
      "stateMutability": "view",
      "type": "function"
    },
    {
      "inputs": [
        {
          "internalType": "uint256",
          "name": "tokenId",
          "type": "uint256"
        }
      ],
      "name": "tokenURI",
      "outputs": [
        {
          "internalType": "string",
          "name": "",
          "type": "string"
        }
      ],
      "stateMutability": "view",
      "type": "function"
    },
    {
      "inputs": [
        {
          "internalType": "address",
          "name": "from",
          "type": "address"
        },
        {
          "internalType": "address",
          "name": "to",
          "type": "address"
        },
        {
          "internalType": "uint256",
          "name": "tokenId",
          "type": "uint256"
        }
      ],
      "name": "transferFrom",
      "outputs": [],
      "stateMutability": "nonpayable",
      "type": "function"
    }
  ],
  "bytecode": "0x60a06040523480156200001157600080fd5b5060405162004714380380620047148339818101604052810190620000379190620001f8565b6040518060400160405280600881526020017f50726f70657274790000000000000000000000000000000000000000000000008152506040518060400160405280600381526020017f50545900000000000000000000000000000000000000000000000000000000008152508160009080519060200190620000bb92919062000131565b508060019080519060200190620000d492919062000131565b50505080600a60006101000a81548173ffffffffffffffffffffffffffffffffffffffff021916908373ffffffffffffffffffffffffffffffffffffffff16021790555062278d006080818152505042600b8190555050620002d7565b8280546200013f9062000258565b90600052602060002090601f016020900481019282620001635760008555620001af565b82601f106200017e57805160ff1916838001178555620001af565b82800160010185558215620001af579182015b82811115620001ae57825182559160200191906001019062000191565b5b509050620001be9190620001c2565b5090565b5b80821115620001dd576000816000905550600101620001c3565b5090565b600081519050620001f281620002bd565b92915050565b6000602082840312156200020b57600080fd5b60006200021b84828501620001e1565b91505092915050565b6000620002318262000238565b9050919050565b600073ffffffffffffffffffffffffffffffffffffffff82169050919050565b600060028204905060018216806200027157607f821691505b602082108114156200028857620002876200028e565b5b50919050565b7f4e487b7100000000000000000000000000000000000000000000000000000000600052602260045260246000fd5b620002c88162000224565b8114620002d457600080fd5b50565b608051614413620003016000396000818161110d015281816113f301526115ba01526144136000f3fe6080604052600436106102045760003560e01c806362b858341161011857806398c36c09116100a0578063b88d4fde1161006f578063b88d4fde14610723578063c87b56dd1461074c578063d47d3b0a14610789578063e985e9c5146107d0578063fc71e2821461080d57610204565b806398c36c091461067b578063a22cb465146106a4578063ae48c8c2146106cd578063af640d0f146106f857610204565b806370a08231116100e757806370a08231146105805780637924d93f146105bd578063923eade9146105fa578063947a36fb1461062557806395d89b411461065057610204565b806362b85834146104c35780636352211e146104ee5780636527ba5c1461052b5780636e04ff0d1461054257610204565b80631b7e07681161019b57806342842e0e1161016a57806342842e0e146103eb57806344834aca1461041457806345576f941461043f5780634585e33b1461046f5780635d1ca6311461049857610204565b80631b7e0768146103625780631b9265b81461038d57806323b872dd146103975780633f3b3b27146103c057610204565b806308551a53116101d757806308551a53146102b8578063095ea7b3146102e35780630b93381b1461030c57806311bb92b51461033757610204565b8063016617a81461020957806301ffc9a71461021357806306fdde0314610250578063081812fc1461027b575b600080fd5b610211610838565b005b34801561021f57600080fd5b5061023a60048036038101906102359190612fc6565b6109fe565b604051610247919061366d565b60405180910390f35b34801561025c57600080fd5b50610265610ae0565b60405161027291906136b8565b60405180910390f35b34801561028757600080fd5b506102a2600480360381019061029d919061309e565b610b72565b6040516102af91906134a9565b60405180910390f35b3480156102c457600080fd5b506102cd610bf7565b6040516102da91906134c4565b60405180910390f35b3480156102ef57600080fd5b5061030a60048036038101906103059190612f27565b610c1d565b005b34801561031857600080fd5b50610321610d35565b60405161032e919061366d565b60405180910390f35b34801561034357600080fd5b5061034c610d8c565b604051610359919061397a565b60405180910390f35b34801561036e57600080fd5b50610377610dd6565b604051610384919061397a565b60405180910390f35b610395610e20565b005b3480156103a357600080fd5b506103be60048036038101906103b99190612e21565b610fdd565b005b3480156103cc57600080fd5b506103d561103d565b6040516103e2919061397a565b60405180910390f35b3480156103f757600080fd5b50610412600480360381019061040d9190612e21565b611043565b005b34801561042057600080fd5b50610429611063565b60405161043691906134a9565b60405180910390f35b6104596004803603810190610454919061305d565b6110cd565b604051610466919061397a565b60405180910390f35b34801561047b57600080fd5b5061049660048036038101906104919190613018565b61110b565b005b3480156104a457600080fd5b506104ad611154565b6040516104ba919061397a565b60405180910390f35b3480156104cf57600080fd5b506104d861115e565b6040516104e5919061397a565b60405180910390f35b3480156104fa57600080fd5b506105156004803603810190610510919061309e565b6111a8565b60405161052291906134a9565b60405180910390f35b34801561053757600080fd5b5061054061125a565b005b34801561054e57600080fd5b5061056960048036038101906105649190613018565b6113ed565b604051610577929190613688565b60405180910390f35b34801561058c57600080fd5b506105a760048036038101906105a29190612dbc565b61142a565b6040516105b4919061397a565b60405180910390f35b3480156105c957600080fd5b506105e460048036038101906105df919061309e565b6114e2565b6040516105f191906134a9565b60405180910390f35b34801561060657600080fd5b5061060f611521565b60405161061c919061397a565b60405180910390f35b34801561063157600080fd5b5061063a6115b8565b604051610647919061397a565b60405180910390f35b34801561065c57600080fd5b506106656115dc565b60405161067291906136b8565b60405180910390f35b34801561068757600080fd5b506106a2600480360381019061069d9190612f63565b61166e565b005b3480156106b057600080fd5b506106cb60048036038101906106c69190612eeb565b611ad1565b005b3480156106d957600080fd5b506106e2611ae7565b6040516106ef919061397a565b60405180910390f35b34801561070457600080fd5b5061070d611b31565b60405161071a919061397a565b60405180910390f35b34801561072f57600080fd5b5061074a60048036038101906107459190612e70565b611b37565b005b34801561075857600080fd5b50610773600480360381019061076e919061309e565b611b99565b60405161078091906136b8565b60405180910390f35b34801561079557600080fd5b506107b060048036038101906107ab9190612dbc565b611ceb565b6040516107c79b9a999897969594939291906135c2565b60405180910390f35b3480156107dc57600080fd5b506107f760048036038101906107f29190612de5565b611d72565b604051610804919061366d565b60405180910390f35b34801561081957600080fd5b50610822611e06565b60405161082f919061397a565b60405180910390f35b6000600960003373ffffffffffffffffffffffffffffffffffffffff1673ffffffffffffffffffffffffffffffffffffffff16815260200190815260200160002090506000151581600a0160009054906101000a900460ff161515146108d3576040517f08c379a00000000000000000000000000000000000000000000000000000000081526004016108ca9061395a565b60405180910390fd5b806007015481600301546108e79190613a5f565b3414610928576040517f08c379a000000000000000000000000000000000000000000000000000000000815260040161091f906136da565b60405180910390fd5b6000816003018190555060008160080181905550600181600a0160006101000a81548160ff021916908315150217905550600a60009054906101000a900473ffffffffffffffffffffffffffffffffffffffff1673ffffffffffffffffffffffffffffffffffffffff166108fc349081150290604051600060405180830381858888f193505050501580156109c1573d6000803e3d6000fd5b507f53fd6d3875019abc53c67f8d62c99a336c120cebea2b475b8ce3e1fb8268f4ce33346040516109f3929190613554565b60405180910390a150565b60007f80ac58cd000000000000000000000000000000000000000000000000000000007bffffffffffffffffffffffffffffffffffffffffffffffffffffffff1916827bffffffffffffffffffffffffffffffffffffffffffffffffffffffff19161480610ac957507f5b5e139f000000000000000000000000000000000000000000000000000000007bffffffffffffffffffffffffffffffffffffffffffffffffffffffff1916827bffffffffffffffffffffffffffffffffffffffffffffffffffffffff1916145b80610ad95750610ad882611e50565b5b9050919050565b606060008054610aef90613c66565b80601f0160208091040260200160405190810160405280929190818152602001828054610b1b90613c66565b8015610b685780601f10610b3d57610100808354040283529160200191610b68565b820191906000526020600020905b815481529060010190602001808311610b4b57829003601f168201915b5050505050905090565b6000610b7d82611eba565b610bbc576040517f08c379a0000000000000000000000000000000000000000000000000000000008152600401610bb3906138ba565b60405180910390fd5b6004600083815260200190815260200160002060009054906101000a900473ffffffffffffffffffffffffffffffffffffffff169050919050565b600a60009054906101000a900473ffffffffffffffffffffffffffffffffffffffff1681565b6000610c28826111a8565b90508073ffffffffffffffffffffffffffffffffffffffff168373ffffffffffffffffffffffffffffffffffffffff161415610c99576040517f08c379a0000000000000000000000000000000000000000000000000000000008152600401610c909061391a565b60405180910390fd5b8073ffffffffffffffffffffffffffffffffffffffff16610cb8611f26565b73ffffffffffffffffffffffffffffffffffffffff161480610ce75750610ce681610ce1611f26565b611d72565b5b610d26576040517f08c379a0000000000000000000000000000000000000000000000000000000008152600401610d1d906137fa565b60405180910390fd5b610d308383611f2e565b505050565b6000600960003373ffffffffffffffffffffffffffffffffffffffff1673ffffffffffffffffffffffffffffffffffffffff168152602001908152602001600020600a0160009054906101000a900460ff16905090565b6000600960003373ffffffffffffffffffffffffffffffffffffffff1673ffffffffffffffffffffffffffffffffffffffff16815260200190815260200160002060030154905090565b6000600960003373ffffffffffffffffffffffffffffffffffffffff1673ffffffffffffffffffffffffffffffffffffffff16815260200190815260200160002060020154905090565b6000600960003373ffffffffffffffffffffffffffffffffffffffff1673ffffffffffffffffffffffffffffffffffffffff168152602001908152602001600020905080600601543414610ea9576040517f08c379a0000000000000000000000000000000000000000000000000000000008152600401610ea09061373a565b60405180910390fd5b60008160080154148015610ec1575060008160030154145b15610ee457600181600a0160006101000a81548160ff0219169083151502179055505b6000151581600a0160009054906101000a900460ff16151514610f3c576040517f08c379a0000000000000000000000000000000000000000000000000000000008152600401610f339061395a565b60405180910390fd5b34816003016000828254610f509190613b40565b92505081905550806008016000815480929190610f6c90613c3c565b9190505550600a60009054906101000a900473ffffffffffffffffffffffffffffffffffffffff1673ffffffffffffffffffffffffffffffffffffffff166108fc349081150290604051600060405180830381858888f19350505050158015610fd9573d6000803e3d6000fd5b5050565b610fee610fe8611f26565b82611fe7565b61102d576040517f08c379a00000000000000000000000000000000000000000000000000000000081526004016110249061393a565b60405180910390fd5b6110388383836120c5565b505050565b600b5481565b61105e83838360405180602001604052806000815250611b37565b505050565b6000600960003373ffffffffffffffffffffffffffffffffffffffff1673ffffffffffffffffffffffffffffffffffffffff16815260200190815260200160002060000160009054906101000a900473ffffffffffffffffffffffffffffffffffffffff16905090565b60006110d9600761232c565b60006110e56007612342565b90506110f13082612350565b6110fb818461252a565b80600c8190555080915050919050565b7f0000000000000000000000000000000000000000000000000000000000000000600b544261113a9190613b40565b11156111505742600b8190555061114f610e20565b5b5050565b6000600c54905090565b6000600960003373ffffffffffffffffffffffffffffffffffffffff1673ffffffffffffffffffffffffffffffffffffffff16815260200190815260200160002060080154905090565b6000806002600084815260200190815260200160002060009054906101000a900473ffffffffffffffffffffffffffffffffffffffff169050600073ffffffffffffffffffffffffffffffffffffffff168173ffffffffffffffffffffffffffffffffffffffff161415611251576040517f08c379a00000000000000000000000000000000000000000000000000000000081526004016112489061383a565b60405180910390fd5b80915050919050565b6000600960003373ffffffffffffffffffffffffffffffffffffffff1673ffffffffffffffffffffffffffffffffffffffff1681526020019081526020016000209050806005015462093a804283600101546112b69190613a5f565b6112c09190613a5f565b11611300576040517f08c379a00000000000000000000000000000000000000000000000000000000081526004016112f7906138da565b60405180910390fd5b80600a0160009054906101000a900460ff166113485761134730600a60009054906101000a900473ffffffffffffffffffffffffffffffffffffffff1683600901546120c5565b5b80600a0160009054906101000a900460ff161561139357611392308260000160009054906101000a900473ffffffffffffffffffffffffffffffffffffffff1683600901546120c5565b5b600181600a0160006101000a81548160ff0219169083151502179055507f076232c96e3b52f25ef83ea1bbb596f3c13148c6369986057599f5a426495de43360016040516113e292919061352b565b60405180910390a150565b600060607f0000000000000000000000000000000000000000000000000000000000000000600b54426114209190613b40565b1191509250929050565b60008073ffffffffffffffffffffffffffffffffffffffff168273ffffffffffffffffffffffffffffffffffffffff16141561149b576040517f08c379a00000000000000000000000000000000000000000000000000000000081526004016114929061381a565b60405180910390fd5b600360008373ffffffffffffffffffffffffffffffffffffffff1673ffffffffffffffffffffffffffffffffffffffff168152602001908152602001600020549050919050565b600881815481106114f257600080fd5b906000526020600020016000915054906101000a900473ffffffffffffffffffffffffffffffffffffffff1681565b6000600960003373ffffffffffffffffffffffffffffffffffffffff1673ffffffffffffffffffffffffffffffffffffffff16815260200190815260200160002060070154600960003373ffffffffffffffffffffffffffffffffffffffff1673ffffffffffffffffffffffffffffffffffffffff168152602001908152602001600020600301546115b39190613a5f565b905090565b7f000000000000000000000000000000000000000000000000000000000000000081565b6060600180546115eb90613c66565b80601f016020809104026020016040519081016040528092919081815260200182805461161790613c66565b80156116645780601f1061163957610100808354040283529160200191611664565b820191906000526020600020905b81548152906001019060200180831161164757829003601f168201915b5050505050905090565b6000805b60088054905081101561172f573373ffffffffffffffffffffffffffffffffffffffff16600882815481106116d0577f4e487b7100000000000000000000000000000000000000000000000000000000600052603260045260246000fd5b9060005260206000200160009054906101000a900473ffffffffffffffffffffffffffffffffffffffff1673ffffffffffffffffffffffffffffffffffffffff16141561171c57600191505b808061172790613cc9565b915050611672565b5060011515600960003373ffffffffffffffffffffffffffffffffffffffff1673ffffffffffffffffffffffffffffffffffffffff168152602001908152602001600020600a0160009054906101000a900460ff1615151480611796575060001515811515145b6117d5576040517f08c379a00000000000000000000000000000000000000000000000000000000081526004016117cc906136fa565b60405180910390fd5b60006005856117e49190613ab5565b856117ef9190613a5f565b905060008190506000600a836118059190613ab5565b9050600086846118159190613ab5565b90506008339080600181540180825580915050600190039060005260206000200160009091909190916101000a81548173ffffffffffffffffffffffffffffffffffffffff021916908373ffffffffffffffffffffffffffffffffffffffff1602179055506040518061016001604052808a73ffffffffffffffffffffffffffffffffffffffff168152602001428152602001670de0b6b3a76400008a6118bc9190613ae6565b8152602001670de0b6b3a7640000866118d59190613ae6565b8152602001670de0b6b3a7640000856118ee9190613ae6565b815260200162278d00896119029190613ae6565b8152602001670de0b6b3a76400008361191b9190613ae6565b8152602001670de0b6b3a7640000846119349190613ae6565b815260200188815260200187815260200160001515815250600960003373ffffffffffffffffffffffffffffffffffffffff1673ffffffffffffffffffffffffffffffffffffffff16815260200190815260200160002060008201518160000160006101000a81548173ffffffffffffffffffffffffffffffffffffffff021916908373ffffffffffffffffffffffffffffffffffffffff1602179055506020820151816001015560408201518160020155606082015181600301556080820151816004015560a0820151816005015560c0820151816006015560e082015181600701556101008201518160080155610120820151816009015561014082015181600a0160006101000a81548160ff0219169083151502179055509050507fd67970a193111ef336477be7fc67703eef6f7e869454f0b197ce2537ddbcc6ee86604051611a81919061397a565b60405180910390a17fddc1975e94c24dc6fdd60782dfe8284cdb84a1dda289ac203056950a747bd8a689898942604051611abe949392919061357d565b60405180910390a1505050505050505050565b611ae3611adc611f26565b838361259e565b5050565b6000600960003373ffffffffffffffffffffffffffffffffffffffff1673ffffffffffffffffffffffffffffffffffffffff16815260200190815260200160002060060154905090565b600c5481565b611b48611b42611f26565b83611fe7565b611b87576040517f08c379a0000000000000000000000000000000000000000000000000000000008152600401611b7e9061393a565b60405180910390fd5b611b938484848461270b565b50505050565b6060611ba482611eba565b611be3576040517f08c379a0000000000000000000000000000000000000000000000000000000008152600401611bda9061389a565b60405180910390fd5b6000600660008481526020019081526020016000208054611c0390613c66565b80601f0160208091040260200160405190810160405280929190818152602001828054611c2f90613c66565b8015611c7c5780601f10611c5157610100808354040283529160200191611c7c565b820191906000526020600020905b815481529060010190602001808311611c5f57829003601f168201915b505050505090506000611c8d612767565b9050600081511415611ca3578192505050611ce6565b600082511115611cd8578082604051602001611cc0929190613485565b60405160208183030381529060405292505050611ce6565b611ce18461277e565b925050505b919050565b60096020528060005260406000206000915090508060000160009054906101000a900473ffffffffffffffffffffffffffffffffffffffff169080600101549080600201549080600301549080600401549080600501549080600601549080600701549080600801549080600901549080600a0160009054906101000a900460ff1690508b565b6000600560008473ffffffffffffffffffffffffffffffffffffffff1673ffffffffffffffffffffffffffffffffffffffff16815260200190815260200160002060008373ffffffffffffffffffffffffffffffffffffffff1673ffffffffffffffffffffffffffffffffffffffff16815260200190815260200160002060009054906101000a900460ff16905092915050565b6000600960003373ffffffffffffffffffffffffffffffffffffffff1673ffffffffffffffffffffffffffffffffffffffff16815260200190815260200160002060010154905090565b60007f01ffc9a7000000000000000000000000000000000000000000000000000000007bffffffffffffffffffffffffffffffffffffffffffffffffffffffff1916827bffffffffffffffffffffffffffffffffffffffffffffffffffffffff1916149050919050565b60008073ffffffffffffffffffffffffffffffffffffffff166002600084815260200190815260200160002060009054906101000a900473ffffffffffffffffffffffffffffffffffffffff1673ffffffffffffffffffffffffffffffffffffffff1614159050919050565b600033905090565b816004600083815260200190815260200160002060006101000a81548173ffffffffffffffffffffffffffffffffffffffff021916908373ffffffffffffffffffffffffffffffffffffffff160217905550808273ffffffffffffffffffffffffffffffffffffffff16611fa1836111a8565b73ffffffffffffffffffffffffffffffffffffffff167f8c5be1e5ebec7d5bd14f71427d1e84f3dd0314c0f7b2291e5b200ac8c7c3b92560405160405180910390a45050565b6000611ff282611eba565b612031576040517f08c379a0000000000000000000000000000000000000000000000000000000008152600401612028906137da565b60405180910390fd5b600061203c836111a8565b90508073ffffffffffffffffffffffffffffffffffffffff168473ffffffffffffffffffffffffffffffffffffffff1614806120ab57508373ffffffffffffffffffffffffffffffffffffffff1661209384610b72565b73ffffffffffffffffffffffffffffffffffffffff16145b806120bc57506120bb8185611d72565b5b91505092915050565b8273ffffffffffffffffffffffffffffffffffffffff166120e5826111a8565b73ffffffffffffffffffffffffffffffffffffffff161461213b576040517f08c379a00000000000000000000000000000000000000000000000000000000081526004016121329061375a565b60405180910390fd5b600073ffffffffffffffffffffffffffffffffffffffff168273ffffffffffffffffffffffffffffffffffffffff1614156121ab576040517f08c379a00000000000000000000000000000000000000000000000000000000081526004016121a29061379a565b60405180910390fd5b6121b6838383612825565b6121c1600082611f2e565b6001600360008573ffffffffffffffffffffffffffffffffffffffff1673ffffffffffffffffffffffffffffffffffffffff16815260200190815260200160002060008282546122119190613b40565b925050819055506001600360008473ffffffffffffffffffffffffffffffffffffffff1673ffffffffffffffffffffffffffffffffffffffff16815260200190815260200160002060008282546122689190613a5f565b92505081905550816002600083815260200190815260200160002060006101000a81548173ffffffffffffffffffffffffffffffffffffffff021916908373ffffffffffffffffffffffffffffffffffffffff160217905550808273ffffffffffffffffffffffffffffffffffffffff168473ffffffffffffffffffffffffffffffffffffffff167fddf252ad1be2c89b69c2b068fc378daa952ba7f163c4a11628f55a4df523b3ef60405160405180910390a461232783838361282a565b505050565b6001816000016000828254019250508190555050565b600081600001549050919050565b600073ffffffffffffffffffffffffffffffffffffffff168273ffffffffffffffffffffffffffffffffffffffff1614156123c0576040517f08c379a00000000000000000000000000000000000000000000000000000000081526004016123b79061387a565b60405180910390fd5b6123c981611eba565b15612409576040517f08c379a00000000000000000000000000000000000000000000000000000000081526004016124009061377a565b60405180910390fd5b61241560008383612825565b6001600360008473ffffffffffffffffffffffffffffffffffffffff1673ffffffffffffffffffffffffffffffffffffffff16815260200190815260200160002060008282546124659190613a5f565b92505081905550816002600083815260200190815260200160002060006101000a81548173ffffffffffffffffffffffffffffffffffffffff021916908373ffffffffffffffffffffffffffffffffffffffff160217905550808273ffffffffffffffffffffffffffffffffffffffff16600073ffffffffffffffffffffffffffffffffffffffff167fddf252ad1be2c89b69c2b068fc378daa952ba7f163c4a11628f55a4df523b3ef60405160405180910390a46125266000838361282a565b5050565b61253382611eba565b612572576040517f08c379a00000000000000000000000000000000000000000000000000000000081526004016125699061385a565b60405180910390fd5b80600660008481526020019081526020016000209080519060200190612599929190612b96565b505050565b8173ffffffffffffffffffffffffffffffffffffffff168373ffffffffffffffffffffffffffffffffffffffff16141561260d576040517f08c379a0000000000000000000000000000000000000000000000000000000008152600401612604906137ba565b60405180910390fd5b80600560008573ffffffffffffffffffffffffffffffffffffffff1673ffffffffffffffffffffffffffffffffffffffff16815260200190815260200160002060008473ffffffffffffffffffffffffffffffffffffffff1673ffffffffffffffffffffffffffffffffffffffff16815260200190815260200160002060006101000a81548160ff0219169083151502179055508173ffffffffffffffffffffffffffffffffffffffff168373ffffffffffffffffffffffffffffffffffffffff167f17307eab39ab6107e8899845ad3d59bd9653f200f220920489ca2b5937696c31836040516126fe919061366d565b60405180910390a3505050565b6127168484846120c5565b6127228484848461282f565b612761576040517f08c379a00000000000000000000000000000000000000000000000000000000081526004016127589061371a565b60405180910390fd5b50505050565b606060405180602001604052806000815250905090565b606061278982611eba565b6127c8576040517f08c379a00000000000000000000000000000000000000000000000000000000081526004016127bf906138fa565b60405180910390fd5b60006127d2612767565b905060008151116127f2576040518060200160405280600081525061281d565b806127fc846129c6565b60405160200161280d929190613485565b6040516020818303038152906040525b915050919050565b505050565b505050565b60006128508473ffffffffffffffffffffffffffffffffffffffff16612b73565b156129b9578373ffffffffffffffffffffffffffffffffffffffff1663150b7a02612879611f26565b8786866040518563ffffffff1660e01b815260040161289b94939291906134df565b602060405180830381600087803b1580156128b557600080fd5b505af19250505080156128e657506040513d601f19601f820116820180604052508101906128e39190612fef565b60015b612969573d8060008114612916576040519150601f19603f3d011682016040523d82523d6000602084013e61291b565b606091505b50600081511415612961576040517f08c379a00000000000000000000000000000000000000000000000000000000081526004016129589061371a565b60405180910390fd5b805181602001fd5b63150b7a0260e01b7bffffffffffffffffffffffffffffffffffffffffffffffffffffffff1916817bffffffffffffffffffffffffffffffffffffffffffffffffffffffff1916149150506129be565b600190505b949350505050565b60606000821415612a0e576040518060400160405280600181526020017f30000000000000000000000000000000000000000000000000000000000000008152509050612b6e565b600082905060005b60008214612a40578080612a2990613cc9565b915050600a82612a399190613ab5565b9150612a16565b60008167ffffffffffffffff811115612a82577f4e487b7100000000000000000000000000000000000000000000000000000000600052604160045260246000fd5b6040519080825280601f01601f191660200182016040528015612ab45781602001600182028036833780820191505090505b5090505b60008514612b6757600182612acd9190613b40565b9150600a85612adc9190613d12565b6030612ae89190613a5f565b60f81b818381518110612b24577f4e487b7100000000000000000000000000000000000000000000000000000000600052603260045260246000fd5b60200101907effffffffffffffffffffffffffffffffffffffffffffffffffffffffffffff1916908160001a905350600a85612b609190613ab5565b9450612ab8565b8093505050505b919050565b6000808273ffffffffffffffffffffffffffffffffffffffff163b119050919050565b828054612ba290613c66565b90600052602060002090601f016020900481019282612bc45760008555612c0b565b82601f10612bdd57805160ff1916838001178555612c0b565b82800160010185558215612c0b579182015b82811115612c0a578251825591602001919060010190612bef565b5b509050612c189190612c1c565b5090565b5b80821115612c35576000816000905550600101612c1d565b5090565b6000612c4c612c47846139ba565b613995565b905082815260208101848484011115612c6457600080fd5b612c6f848285613bfa565b509392505050565b6000612c8a612c85846139eb565b613995565b905082815260208101848484011115612ca257600080fd5b612cad848285613bfa565b509392505050565b600081359050612cc481614381565b92915050565b600081359050612cd981614398565b92915050565b600081359050612cee816143af565b92915050565b600081519050612d03816143af565b92915050565b60008083601f840112612d1b57600080fd5b8235905067ffffffffffffffff811115612d3457600080fd5b602083019150836001820283011115612d4c57600080fd5b9250929050565b600082601f830112612d6457600080fd5b8135612d74848260208601612c39565b91505092915050565b600082601f830112612d8e57600080fd5b8135612d9e848260208601612c77565b91505092915050565b600081359050612db6816143c6565b92915050565b600060208284031215612dce57600080fd5b6000612ddc84828501612cb5565b91505092915050565b60008060408385031215612df857600080fd5b6000612e0685828601612cb5565b9250506020612e1785828601612cb5565b9150509250929050565b600080600060608486031215612e3657600080fd5b6000612e4486828701612cb5565b9350506020612e5586828701612cb5565b9250506040612e6686828701612da7565b9150509250925092565b60008060008060808587031215612e8657600080fd5b6000612e9487828801612cb5565b9450506020612ea587828801612cb5565b9350506040612eb687828801612da7565b925050606085013567ffffffffffffffff811115612ed357600080fd5b612edf87828801612d53565b91505092959194509250565b60008060408385031215612efe57600080fd5b6000612f0c85828601612cb5565b9250506020612f1d85828601612cca565b9150509250929050565b60008060408385031215612f3a57600080fd5b6000612f4885828601612cb5565b9250506020612f5985828601612da7565b9150509250929050565b60008060008060808587031215612f7957600080fd5b6000612f8787828801612cb5565b9450506020612f9887828801612da7565b9350506040612fa987828801612da7565b9250506060612fba87828801612da7565b91505092959194509250565b600060208284031215612fd857600080fd5b6000612fe684828501612cdf565b91505092915050565b60006020828403121561300157600080fd5b600061300f84828501612cf4565b91505092915050565b6000806020838503121561302b57600080fd5b600083013567ffffffffffffffff81111561304557600080fd5b61305185828601612d09565b92509250509250929050565b60006020828403121561306f57600080fd5b600082013567ffffffffffffffff81111561308957600080fd5b61309584828501612d7d565b91505092915050565b6000602082840312156130b057600080fd5b60006130be84828501612da7565b91505092915050565b6130d081613b86565b82525050565b6130df81613b74565b82525050565b6130ee81613b98565b82525050565b60006130ff82613a1c565b6131098185613a32565b9350613119818560208601613c09565b61312281613dff565b840191505092915050565b600061313882613a27565b6131428185613a43565b9350613152818560208601613c09565b61315b81613dff565b840191505092915050565b600061317182613a27565b61317b8185613a54565b935061318b818560208601613c09565b80840191505092915050565b60006131a4601e83613a43565b91506131af82613e10565b602082019050919050565b60006131c7602083613a43565b91506131d282613e39565b602082019050919050565b60006131ea603283613a43565b91506131f582613e62565b604082019050919050565b600061320d601f83613a43565b915061321882613eb1565b602082019050919050565b6000613230602583613a43565b915061323b82613eda565b604082019050919050565b6000613253601c83613a43565b915061325e82613f29565b602082019050919050565b6000613276602483613a43565b915061328182613f52565b604082019050919050565b6000613299601983613a43565b91506132a482613fa1565b602082019050919050565b60006132bc602c83613a43565b91506132c782613fca565b604082019050919050565b60006132df603883613a43565b91506132ea82614019565b604082019050919050565b6000613302602a83613a43565b915061330d82614068565b604082019050919050565b6000613325602983613a43565b9150613330826140b7565b604082019050919050565b6000613348602e83613a43565b915061335382614106565b604082019050919050565b600061336b602083613a43565b915061337682614155565b602082019050919050565b600061338e603183613a43565b91506133998261417e565b604082019050919050565b60006133b1602c83613a43565b91506133bc826141cd565b604082019050919050565b60006133d4602383613a43565b91506133df8261421c565b604082019050919050565b60006133f7602f83613a43565b91506134028261426b565b604082019050919050565b600061341a602183613a43565b9150613425826142ba565b604082019050919050565b600061343d603183613a43565b915061344882614309565b604082019050919050565b6000613460601383613a43565b915061346b82614358565b602082019050919050565b61347f81613bf0565b82525050565b60006134918285613166565b915061349d8284613166565b91508190509392505050565b60006020820190506134be60008301846130d6565b92915050565b60006020820190506134d960008301846130c7565b92915050565b60006080820190506134f460008301876130d6565b61350160208301866130d6565b61350e6040830185613476565b818103606083015261352081846130f4565b905095945050505050565b600060408201905061354060008301856130d6565b61354d60208301846130e5565b9392505050565b600060408201905061356960008301856130d6565b6135766020830184613476565b9392505050565b600060808201905061359260008301876130d6565b61359f6020830186613476565b6135ac6040830185613476565b6135b96060830184613476565b95945050505050565b6000610160820190506135d8600083018e6130d6565b6135e5602083018d613476565b6135f2604083018c613476565b6135ff606083018b613476565b61360c608083018a613476565b61361960a0830189613476565b61362660c0830188613476565b61363360e0830187613476565b613641610100830186613476565b61364f610120830185613476565b61365d6101408301846130e5565b9c9b505050505050505050505050565b600060208201905061368260008301846130e5565b92915050565b600060408201905061369d60008301856130e5565b81810360208301526136af81846130f4565b90509392505050565b600060208201905081810360008301526136d2818461312d565b905092915050565b600060208201905081810360008301526136f381613197565b9050919050565b60006020820190508181036000830152613713816131ba565b9050919050565b60006020820190508181036000830152613733816131dd565b9050919050565b6000602082019050818103600083015261375381613200565b9050919050565b6000602082019050818103600083015261377381613223565b9050919050565b6000602082019050818103600083015261379381613246565b9050919050565b600060208201905081810360008301526137b381613269565b9050919050565b600060208201905081810360008301526137d38161328c565b9050919050565b600060208201905081810360008301526137f3816132af565b9050919050565b60006020820190508181036000830152613813816132d2565b9050919050565b60006020820190508181036000830152613833816132f5565b9050919050565b6000602082019050818103600083015261385381613318565b9050919050565b600060208201905081810360008301526138738161333b565b9050919050565b600060208201905081810360008301526138938161335e565b9050919050565b600060208201905081810360008301526138b381613381565b9050919050565b600060208201905081810360008301526138d3816133a4565b9050919050565b600060208201905081810360008301526138f3816133c7565b9050919050565b60006020820190508181036000830152613913816133ea565b9050919050565b600060208201905081810360008301526139338161340d565b9050919050565b6000602082019050818103600083015261395381613430565b9050919050565b6000602082019050818103600083015261397381613453565b9050919050565b600060208201905061398f6000830184613476565b92915050565b600061399f6139b0565b90506139ab8282613c98565b919050565b6000604051905090565b600067ffffffffffffffff8211156139d5576139d4613dd0565b5b6139de82613dff565b9050602081019050919050565b600067ffffffffffffffff821115613a0657613a05613dd0565b5b613a0f82613dff565b9050602081019050919050565b600081519050919050565b600081519050919050565b600082825260208201905092915050565b600082825260208201905092915050565b600081905092915050565b6000613a6a82613bf0565b9150613a7583613bf0565b9250827fffffffffffffffffffffffffffffffffffffffffffffffffffffffffffffffff03821115613aaa57613aa9613d43565b5b828201905092915050565b6000613ac082613bf0565b9150613acb83613bf0565b925082613adb57613ada613d72565b5b828204905092915050565b6000613af182613bf0565b9150613afc83613bf0565b9250817fffffffffffffffffffffffffffffffffffffffffffffffffffffffffffffffff0483118215151615613b3557613b34613d43565b5b828202905092915050565b6000613b4b82613bf0565b9150613b5683613bf0565b925082821015613b6957613b68613d43565b5b828203905092915050565b6000613b7f82613bd0565b9050919050565b6000613b9182613bd0565b9050919050565b60008115159050919050565b60007fffffffff0000000000000000000000000000000000000000000000000000000082169050919050565b600073ffffffffffffffffffffffffffffffffffffffff82169050919050565b6000819050919050565b82818337600083830152505050565b60005b83811015613c27578082015181840152602081019050613c0c565b83811115613c36576000848401525b50505050565b6000613c4782613bf0565b91506000821415613c5b57613c5a613d43565b5b600182039050919050565b60006002820490506001821680613c7e57607f821691505b60208210811415613c9257613c91613da1565b5b50919050565b613ca182613dff565b810181811067ffffffffffffffff82111715613cc057613cbf613dd0565b5b80604052505050565b6000613cd482613bf0565b91507fffffffffffffffffffffffffffffffffffffffffffffffffffffffffffffffff821415613d0757613d06613d43565b5b600182019050919050565b6000613d1d82613bf0565b9150613d2883613bf0565b925082613d3857613d37613d72565b5b828206905092915050565b7f4e487b7100000000000000000000000000000000000000000000000000000000600052601160045260246000fd5b7f4e487b7100000000000000000000000000000000000000000000000000000000600052601260045260246000fd5b7f4e487b7100000000000000000000000000000000000000000000000000000000600052602260045260246000fd5b7f4e487b7100000000000000000000000000000000000000000000000000000000600052604160045260246000fd5b6000601f19601f8301169050919050565b7f54686520726570617920616d6f756e74206973206e6f7420656e6f7567680000600082015250565b7f596f7520616c7265616479206861766520612072756e6e696e67206c6f616e2e600082015250565b7f4552433732313a207472616e7366657220746f206e6f6e20455243373231526560008201527f63656976657220696d706c656d656e7465720000000000000000000000000000602082015250565b7f416d6f756e74206e6f742061636375726174652e2054727920616761696e2100600082015250565b7f4552433732313a207472616e736665722066726f6d20696e636f72726563742060008201527f6f776e6572000000000000000000000000000000000000000000000000000000602082015250565b7f4552433732313a20746f6b656e20616c7265616479206d696e74656400000000600082015250565b7f4552433732313a207472616e7366657220746f20746865207a65726f2061646460008201527f7265737300000000000000000000000000000000000000000000000000000000602082015250565b7f4552433732313a20617070726f766520746f2063616c6c657200000000000000600082015250565b7f4552433732313a206f70657261746f7220717565727920666f72206e6f6e657860008201527f697374656e7420746f6b656e0000000000000000000000000000000000000000602082015250565b7f4552433732313a20617070726f76652063616c6c6572206973206e6f74206f7760008201527f6e6572206e6f7220617070726f76656420666f7220616c6c0000000000000000602082015250565b7f4552433732313a2062616c616e636520717565727920666f7220746865207a6560008201527f726f206164647265737300000000000000000000000000000000000000000000602082015250565b7f4552433732313a206f776e657220717565727920666f72206e6f6e657869737460008201527f656e7420746f6b656e0000000000000000000000000000000000000000000000602082015250565b7f45524337323155524953746f726167653a2055524920736574206f66206e6f6e60008201527f6578697374656e7420746f6b656e000000000000000000000000000000000000602082015250565b7f4552433732313a206d696e7420746f20746865207a65726f2061646472657373600082015250565b7f45524337323155524953746f726167653a2055524920717565727920666f722060008201527f6e6f6e6578697374656e7420746f6b656e000000000000000000000000000000602082015250565b7f4552433732313a20617070726f76656420717565727920666f72206e6f6e657860008201527f697374656e7420746f6b656e0000000000000000000000000000000000000000602082015250565b7f54696d65207374696c6c2072656d61696e696e6720666f7220736574746c656d60008201527f656e740000000000000000000000000000000000000000000000000000000000602082015250565b7f4552433732314d657461646174613a2055524920717565727920666f72206e6f60008201527f6e6578697374656e7420746f6b656e0000000000000000000000000000000000602082015250565b7f4552433732313a20617070726f76616c20746f2063757272656e74206f776e6560008201527f7200000000000000000000000000000000000000000000000000000000000000602082015250565b7f4552433732313a207472616e736665722063616c6c6572206973206e6f74206f60008201527f776e6572206e6f7220617070726f766564000000000000000000000000000000602082015250565b7f416d6f756e7420616c7265616479207061696400000000000000000000000000600082015250565b61438a81613b74565b811461439557600080fd5b50565b6143a181613b98565b81146143ac57600080fd5b50565b6143b881613ba4565b81146143c357600080fd5b50565b6143cf81613bf0565b81146143da57600080fd5b5056fea264697066735822122075ee37bcf41b28dae75bf605656d08296a8212ae5a3ec5bd7caa9b7308b041cf64736f6c63430008040033",
  "linkReferences": {},
  "deployedLinkReferences": {}
}