{
  "_format": "hh-sol-artifact-1",
  "contractName": "Divvy",
  "sourceName": "contracts/Divvy.sol",
  "abi": [
    {
      "inputs": [
        {
          "internalType": "address payable",
          "name": "_seller",
          "type": "address"
        }
      ],
      "stateMutability": "nonpayable",
      "type": "constructor"
    },
    {
      "anonymous": false,
      "inputs": [
        {
          "indexed": true,
          "internalType": "address",
          "name": "owner",
          "type": "address"
        },
        {
          "indexed": true,
          "internalType": "address",
          "name": "approved",
          "type": "address"
        },
        {
          "indexed": true,
          "internalType": "uint256",
          "name": "tokenId",
          "type": "uint256"
        }
      ],
      "name": "Approval",
      "type": "event"
    },
    {
      "anonymous": false,
      "inputs": [
        {
          "indexed": true,
          "internalType": "address",
          "name": "owner",
          "type": "address"
        },
        {
          "indexed": true,
          "internalType": "address",
          "name": "operator",
          "type": "address"
        },
        {
          "indexed": false,
          "internalType": "bool",
          "name": "approved",
          "type": "bool"
        }
      ],
      "name": "ApprovalForAll",
      "type": "event"
    },
    {
      "anonymous": false,
      "inputs": [
        {
          "indexed": false,
          "internalType": "address",
          "name": "_buyer",
          "type": "address"
        },
        {
          "indexed": false,
          "internalType": "uint256",
          "name": "_installment",
          "type": "uint256"
        }
      ],
      "name": "FullPaidEvent",
      "type": "event"
    },
    {
      "anonymous": false,
      "inputs": [
        {
          "indexed": false,
          "internalType": "uint256",
          "name": "_id",
          "type": "uint256"
        }
      ],
      "name": "NFTReceivedEvent",
      "type": "event"
    },
    {
      "anonymous": false,
      "inputs": [
        {
          "indexed": false,
          "internalType": "address",
          "name": "_buyer",
          "type": "address"
        },
        {
          "indexed": false,
          "internalType": "bool",
          "name": "completed",
          "type": "bool"
        }
      ],
      "name": "SettleLoan",
      "type": "event"
    },
    {
      "anonymous": false,
      "inputs": [
        {
          "indexed": true,
          "internalType": "address",
          "name": "from",
          "type": "address"
        },
        {
          "indexed": true,
          "internalType": "address",
          "name": "to",
          "type": "address"
        },
        {
          "indexed": true,
          "internalType": "uint256",
          "name": "tokenId",
          "type": "uint256"
        }
      ],
      "name": "Transfer",
      "type": "event"
    },
    {
      "anonymous": false,
      "inputs": [
        {
          "indexed": false,
          "internalType": "address",
          "name": "_buyer",
          "type": "address"
        },
        {
          "indexed": false,
          "internalType": "uint256",
          "name": "_loanAmount",
          "type": "uint256"
        },
        {
          "indexed": false,
          "internalType": "uint256",
          "name": "_tenure",
          "type": "uint256"
        },
        {
          "indexed": false,
          "internalType": "uint256",
          "name": "startTime",
          "type": "uint256"
        }
      ],
      "name": "initEvent",
      "type": "event"
    },
    {
      "inputs": [
        {
          "internalType": "address",
          "name": "",
          "type": "address"
        }
      ],
      "name": "addressToLoan",
      "outputs": [
        {
          "internalType": "address",
          "name": "buyer",
          "type": "address"
        },
        {
          "internalType": "uint256",
          "name": "loanStart",
          "type": "uint256"
        },
        {
          "internalType": "uint256",
          "name": "loanAmount",
          "type": "uint256"
        },
        {
          "internalType": "uint256",
          "name": "repayAmount",
          "type": "uint256"
        },
        {
          "internalType": "uint256",
          "name": "remainingAmount",
          "type": "uint256"
        },
        {
          "internalType": "uint256",
          "name": "tenure",
          "type": "uint256"
        },
        {
          "internalType": "uint256",
          "name": "payoutPerMonth",
          "type": "uint256"
        },
        {
          "internalType": "uint256",
          "name": "penalty",
          "type": "uint256"
        },
        {
          "internalType": "uint256",
          "name": "intervalTimes",
          "type": "uint256"
        },
        {
          "internalType": "uint256",
          "name": "NFTId",
          "type": "uint256"
        },
        {
          "internalType": "bool",
          "name": "completed",
          "type": "bool"
        }
      ],
      "stateMutability": "view",
      "type": "function"
    },
    {
      "inputs": [
        {
          "internalType": "address",
          "name": "to",
          "type": "address"
        },
        {
          "internalType": "uint256",
          "name": "tokenId",
          "type": "uint256"
        }
      ],
      "name": "approve",
      "outputs": [],
      "stateMutability": "nonpayable",
      "type": "function"
    },
    {
      "inputs": [
        {
          "internalType": "address",
          "name": "owner",
          "type": "address"
        }
      ],
      "name": "balanceOf",
      "outputs": [
        {
          "internalType": "uint256",
          "name": "",
          "type": "uint256"
        }
      ],
      "stateMutability": "view",
      "type": "function"
    },
    {
      "inputs": [
        {
          "internalType": "uint256",
          "name": "",
          "type": "uint256"
        }
      ],
      "name": "borrowers",
      "outputs": [
        {
          "internalType": "address",
          "name": "",
          "type": "address"
        }
      ],
      "stateMutability": "view",
      "type": "function"
    },
    {
      "inputs": [],
      "name": "buyerAddress",
      "outputs": [
        {
          "internalType": "address",
          "name": "",
          "type": "address"
        }
      ],
      "stateMutability": "view",
      "type": "function"
    },
    {
      "inputs": [
        {
          "internalType": "bytes",
          "name": "",
          "type": "bytes"
        }
      ],
      "name": "checkUpkeep",
      "outputs": [
        {
          "internalType": "bool",
          "name": "upkeepNeeded",
          "type": "bool"
        },
        {
          "internalType": "bytes",
          "name": "",
          "type": "bytes"
        }
      ],
      "stateMutability": "view",
      "type": "function"
    },
    {
      "inputs": [
        {
          "internalType": "string",
          "name": "tokenURI",
          "type": "string"
        }
      ],
      "name": "createToken",
      "outputs": [
        {
          "internalType": "uint256",
          "name": "",
          "type": "uint256"
        }
      ],
      "stateMutability": "payable",
      "type": "function"
    },
    {
      "inputs": [],
      "name": "fullPaymentWithPenalty",
      "outputs": [
        {
          "internalType": "uint256",
          "name": "",
          "type": "uint256"
        }
      ],
      "stateMutability": "view",
      "type": "function"
    },
    {
      "inputs": [
        {
          "internalType": "uint256",
          "name": "tokenId",
          "type": "uint256"
        }
      ],
      "name": "getApproved",
      "outputs": [
        {
          "internalType": "address",
          "name": "",
          "type": "address"
        }
      ],
      "stateMutability": "view",
      "type": "function"
    },
    {
      "inputs": [
        {
          "internalType": "address",
          "name": "_buyer",
          "type": "address"
        },
        {
          "internalType": "uint256",
          "name": "_loanAmount",
          "type": "uint256"
        },
        {
          "internalType": "uint256",
          "name": "_tenure",
          "type": "uint256"
        },
        {
          "internalType": "uint256",
          "name": "tokenId",
          "type": "uint256"
        }
      ],
      "name": "init",
      "outputs": [],
      "stateMutability": "nonpayable",
      "type": "function"
    },
    {
      "inputs": [],
      "name": "installmentAmt",
      "outputs": [
        {
          "internalType": "uint256",
          "name": "",
          "type": "uint256"
        }
      ],
      "stateMutability": "view",
      "type": "function"
    },
    {
      "inputs": [],
      "name": "interval",
      "outputs": [
        {
          "internalType": "uint256",
          "name": "",
          "type": "uint256"
        }
      ],
      "stateMutability": "view",
      "type": "function"
    },
    {
      "inputs": [
        {
          "internalType": "address",
          "name": "owner",
          "type": "address"
        },
        {
          "internalType": "address",
          "name": "operator",
          "type": "address"
        }
      ],
      "name": "isApprovedForAll",
      "outputs": [
        {
          "internalType": "bool",
          "name": "",
          "type": "bool"
        }
      ],
      "stateMutability": "view",
      "type": "function"
    },
    {
      "inputs": [],
      "name": "lastTimeStamp",
      "outputs": [
        {
          "internalType": "uint256",
          "name": "",
          "type": "uint256"
        }
      ],
      "stateMutability": "view",
      "type": "function"
    },
    {
      "inputs": [],
      "name": "loanAmt",
      "outputs": [
        {
          "internalType": "uint256",
          "name": "",
          "type": "uint256"
        }
      ],
      "stateMutability": "view",
      "type": "function"
    },
    {
      "inputs": [],
      "name": "loanStartedOn",
      "outputs": [
        {
          "internalType": "uint256",
          "name": "",
          "type": "uint256"
        }
      ],
      "stateMutability": "view",
      "type": "function"
    },
    {
      "inputs": [],
      "name": "name",
      "outputs": [
        {
          "internalType": "string",
          "name": "",
          "type": "string"
        }
      ],
      "stateMutability": "view",
      "type": "function"
    },
    {
      "inputs": [
        {
          "internalType": "uint256",
          "name": "tokenId",
          "type": "uint256"
        }
      ],
      "name": "ownerOf",
      "outputs": [
        {
          "internalType": "address",
          "name": "",
          "type": "address"
        }
      ],
      "stateMutability": "view",
      "type": "function"
    },
    {
      "inputs": [],
      "name": "pay",
      "outputs": [],
      "stateMutability": "payable",
      "type": "function"
    },
    {
      "inputs": [],
      "name": "payInFull",
      "outputs": [],
      "stateMutability": "payable",
      "type": "function"
    },
    {
      "inputs": [
        {
          "internalType": "bytes",
          "name": "",
          "type": "bytes"
        }
      ],
      "name": "performUpkeep",
      "outputs": [],
      "stateMutability": "nonpayable",
      "type": "function"
    },
    {
      "inputs": [],
      "name": "repayAmt",
      "outputs": [
        {
          "internalType": "uint256",
          "name": "",
          "type": "uint256"
        }
      ],
      "stateMutability": "view",
      "type": "function"
    },
    {
      "inputs": [
        {
          "internalType": "address",
          "name": "from",
          "type": "address"
        },
        {
          "internalType": "address",
          "name": "to",
          "type": "address"
        },
        {
          "internalType": "uint256",
          "name": "tokenId",
          "type": "uint256"
        }
      ],
      "name": "safeTransferFrom",
      "outputs": [],
      "stateMutability": "nonpayable",
      "type": "function"
    },
    {
      "inputs": [
        {
          "internalType": "address",
          "name": "from",
          "type": "address"
        },
        {
          "internalType": "address",
          "name": "to",
          "type": "address"
        },
        {
          "internalType": "uint256",
          "name": "tokenId",
          "type": "uint256"
        },
        {
          "internalType": "bytes",
          "name": "_data",
          "type": "bytes"
        }
      ],
      "name": "safeTransferFrom",
      "outputs": [],
      "stateMutability": "nonpayable",
      "type": "function"
    },
    {
      "inputs": [],
      "name": "seller",
      "outputs": [
        {
          "internalType": "address payable",
          "name": "",
          "type": "address"
        }
      ],
      "stateMutability": "view",
      "type": "function"
    },
    {
      "inputs": [
        {
          "internalType": "address",
          "name": "operator",
          "type": "address"
        },
        {
          "internalType": "bool",
          "name": "approved",
          "type": "bool"
        }
      ],
      "name": "setApprovalForAll",
      "outputs": [],
      "stateMutability": "nonpayable",
      "type": "function"
    },
    {
      "inputs": [],
      "name": "settleLoan",
      "outputs": [],
      "stateMutability": "nonpayable",
      "type": "function"
    },
    {
      "inputs": [],
      "name": "success",
      "outputs": [
        {
          "internalType": "bool",
          "name": "",
          "type": "bool"
        }
      ],
      "stateMutability": "view",
      "type": "function"
    },
    {
      "inputs": [
        {
          "internalType": "bytes4",
          "name": "interfaceId",
          "type": "bytes4"
        }
      ],
      "name": "supportsInterface",
      "outputs": [
        {
          "internalType": "bool",
          "name": "",
          "type": "bool"
        }
      ],
      "stateMutability": "view",
      "type": "function"
    },
    {
      "inputs": [],
      "name": "symbol",
      "outputs": [
        {
          "internalType": "string",
          "name": "",
          "type": "string"
        }
      ],
      "stateMutability": "view",
      "type": "function"
    },
    {
      "inputs": [],
      "name": "tenure",
      "outputs": [
        {
          "internalType": "uint256",
          "name": "",
          "type": "uint256"
        }
      ],
      "stateMutability": "view",
      "type": "function"
    },
    {
      "inputs": [
        {
          "internalType": "uint256",
          "name": "tokenId",
          "type": "uint256"
        }
      ],
      "name": "tokenURI",
      "outputs": [
        {
          "internalType": "string",
          "name": "",
          "type": "string"
        }
      ],
      "stateMutability": "view",
      "type": "function"
    },
    {
      "inputs": [
        {
          "internalType": "address",
          "name": "from",
          "type": "address"
        },
        {
          "internalType": "address",
          "name": "to",
          "type": "address"
        },
        {
          "internalType": "uint256",
          "name": "tokenId",
          "type": "uint256"
        }
      ],
      "name": "transferFrom",
      "outputs": [],
      "stateMutability": "nonpayable",
      "type": "function"
    }
  ],
  "bytecode": "0x60a06040523480156200001157600080fd5b5060405162004691380380620046918339818101604052810190620000379190620001f8565b6040518060400160405280600881526020017f50726f70657274790000000000000000000000000000000000000000000000008152506040518060400160405280600381526020017f50545900000000000000000000000000000000000000000000000000000000008152508160009080519060200190620000bb92919062000131565b508060019080519060200190620000d492919062000131565b50505080600a60006101000a81548173ffffffffffffffffffffffffffffffffffffffff021916908373ffffffffffffffffffffffffffffffffffffffff16021790555062278d006080818152505042600b8190555050620002d7565b8280546200013f9062000258565b90600052602060002090601f016020900481019282620001635760008555620001af565b82601f106200017e57805160ff1916838001178555620001af565b82800160010185558215620001af579182015b82811115620001ae57825182559160200191906001019062000191565b5b509050620001be9190620001c2565b5090565b5b80821115620001dd576000816000905550600101620001c3565b5090565b600081519050620001f281620002bd565b92915050565b6000602082840312156200020b57600080fd5b60006200021b84828501620001e1565b91505092915050565b6000620002318262000238565b9050919050565b600073ffffffffffffffffffffffffffffffffffffffff82169050919050565b600060028204905060018216806200027157607f821691505b602082108114156200028857620002876200028e565b5b50919050565b7f4e487b7100000000000000000000000000000000000000000000000000000000600052602260045260246000fd5b620002c88162000224565b8114620002d457600080fd5b50565b608051614390620003016000396000818161109a01528181611376015261153d01526143906000f3fe6080604052600436106101ee5760003560e01c806362b858341161010d57806395d89b41116100a0578063b88d4fde1161006f578063b88d4fde146106b7578063c87b56dd146106e0578063d47d3b0a1461071d578063e985e9c514610764578063fc71e282146107a1576101ee565b806395d89b411461060f57806398c36c091461063a578063a22cb46514610663578063ae48c8c21461068c576101ee565b806370a08231116100dc57806370a082311461053f5780637924d93f1461057c578063923eade9146105b9578063947a36fb146105e4576101ee565b806362b85834146104825780636352211e146104ad5780636527ba5c146104ea5780636e04ff0d14610501576101ee565b80631b7e07681161018557806342842e0e1161015457806342842e0e146103d557806344834aca146103fe57806345576f94146104295780634585e33b14610459576101ee565b80631b7e07681461034c5780631b9265b81461037757806323b872dd146103815780633f3b3b27146103aa576101ee565b806308551a53116101c157806308551a53146102a2578063095ea7b3146102cd5780630b93381b146102f657806311bb92b514610321576101ee565b8063016617a8146101f357806301ffc9a7146101fd57806306fdde031461023a578063081812fc14610265575b600080fd5b6101fb6107cc565b005b34801561020957600080fd5b50610224600480360381019061021f9190612f43565b610992565b60405161023191906135ea565b60405180910390f35b34801561024657600080fd5b5061024f610a74565b60405161025c9190613635565b60405180910390f35b34801561027157600080fd5b5061028c6004803603810190610287919061301b565b610b06565b6040516102999190613426565b60405180910390f35b3480156102ae57600080fd5b506102b7610b8b565b6040516102c49190613441565b60405180910390f35b3480156102d957600080fd5b506102f460048036038101906102ef9190612ea4565b610bb1565b005b34801561030257600080fd5b5061030b610cc9565b60405161031891906135ea565b60405180910390f35b34801561032d57600080fd5b50610336610d20565b60405161034391906138f7565b60405180910390f35b34801561035857600080fd5b50610361610d6a565b60405161036e91906138f7565b60405180910390f35b61037f610db4565b005b34801561038d57600080fd5b506103a860048036038101906103a39190612d9e565b610f71565b005b3480156103b657600080fd5b506103bf610fd1565b6040516103cc91906138f7565b60405180910390f35b3480156103e157600080fd5b506103fc60048036038101906103f79190612d9e565b610fd7565b005b34801561040a57600080fd5b50610413610ff7565b6040516104209190613426565b60405180910390f35b610443600480360381019061043e9190612fda565b611061565b60405161045091906138f7565b60405180910390f35b34801561046557600080fd5b50610480600480360381019061047b9190612f95565b611098565b005b34801561048e57600080fd5b506104976110e1565b6040516104a491906138f7565b60405180910390f35b3480156104b957600080fd5b506104d460048036038101906104cf919061301b565b61112b565b6040516104e19190613426565b60405180910390f35b3480156104f657600080fd5b506104ff6111dd565b005b34801561050d57600080fd5b5061052860048036038101906105239190612f95565b611370565b604051610536929190613605565b60405180910390f35b34801561054b57600080fd5b5061056660048036038101906105619190612d39565b6113ad565b60405161057391906138f7565b60405180910390f35b34801561058857600080fd5b506105a3600480360381019061059e919061301b565b611465565b6040516105b09190613426565b60405180910390f35b3480156105c557600080fd5b506105ce6114a4565b6040516105db91906138f7565b60405180910390f35b3480156105f057600080fd5b506105f961153b565b60405161060691906138f7565b60405180910390f35b34801561061b57600080fd5b5061062461155f565b6040516106319190613635565b60405180910390f35b34801561064657600080fd5b50610661600480360381019061065c9190612ee0565b6115f1565b005b34801561066f57600080fd5b5061068a60048036038101906106859190612e68565b611a54565b005b34801561069857600080fd5b506106a1611a6a565b6040516106ae91906138f7565b60405180910390f35b3480156106c357600080fd5b506106de60048036038101906106d99190612ded565b611ab4565b005b3480156106ec57600080fd5b506107076004803603810190610702919061301b565b611b16565b6040516107149190613635565b60405180910390f35b34801561072957600080fd5b50610744600480360381019061073f9190612d39565b611c68565b60405161075b9b9a9998979695949392919061353f565b60405180910390f35b34801561077057600080fd5b5061078b60048036038101906107869190612d62565b611cef565b60405161079891906135ea565b60405180910390f35b3480156107ad57600080fd5b506107b6611d83565b6040516107c391906138f7565b60405180910390f35b6000600960003373ffffffffffffffffffffffffffffffffffffffff1673ffffffffffffffffffffffffffffffffffffffff16815260200190815260200160002090506000151581600a0160009054906101000a900460ff16151514610867576040517f08c379a000000000000000000000000000000000000000000000000000000000815260040161085e906138d7565b60405180910390fd5b8060070154816003015461087b91906139dc565b34146108bc576040517f08c379a00000000000000000000000000000000000000000000000000000000081526004016108b390613657565b60405180910390fd5b6000816003018190555060008160080181905550600181600a0160006101000a81548160ff021916908315150217905550600a60009054906101000a900473ffffffffffffffffffffffffffffffffffffffff1673ffffffffffffffffffffffffffffffffffffffff166108fc349081150290604051600060405180830381858888f19350505050158015610955573d6000803e3d6000fd5b507f53fd6d3875019abc53c67f8d62c99a336c120cebea2b475b8ce3e1fb8268f4ce33346040516109879291906134d1565b60405180910390a150565b60007f80ac58cd000000000000000000000000000000000000000000000000000000007bffffffffffffffffffffffffffffffffffffffffffffffffffffffff1916827bffffffffffffffffffffffffffffffffffffffffffffffffffffffff19161480610a5d57507f5b5e139f000000000000000000000000000000000000000000000000000000007bffffffffffffffffffffffffffffffffffffffffffffffffffffffff1916827bffffffffffffffffffffffffffffffffffffffffffffffffffffffff1916145b80610a6d5750610a6c82611dcd565b5b9050919050565b606060008054610a8390613be3565b80601f0160208091040260200160405190810160405280929190818152602001828054610aaf90613be3565b8015610afc5780601f10610ad157610100808354040283529160200191610afc565b820191906000526020600020905b815481529060010190602001808311610adf57829003601f168201915b5050505050905090565b6000610b1182611e37565b610b50576040517f08c379a0000000000000000000000000000000000000000000000000000000008152600401610b4790613837565b60405180910390fd5b6004600083815260200190815260200160002060009054906101000a900473ffffffffffffffffffffffffffffffffffffffff169050919050565b600a60009054906101000a900473ffffffffffffffffffffffffffffffffffffffff1681565b6000610bbc8261112b565b90508073ffffffffffffffffffffffffffffffffffffffff168373ffffffffffffffffffffffffffffffffffffffff161415610c2d576040517f08c379a0000000000000000000000000000000000000000000000000000000008152600401610c2490613897565b60405180910390fd5b8073ffffffffffffffffffffffffffffffffffffffff16610c4c611ea3565b73ffffffffffffffffffffffffffffffffffffffff161480610c7b5750610c7a81610c75611ea3565b611cef565b5b610cba576040517f08c379a0000000000000000000000000000000000000000000000000000000008152600401610cb190613777565b60405180910390fd5b610cc48383611eab565b505050565b6000600960003373ffffffffffffffffffffffffffffffffffffffff1673ffffffffffffffffffffffffffffffffffffffff168152602001908152602001600020600a0160009054906101000a900460ff16905090565b6000600960003373ffffffffffffffffffffffffffffffffffffffff1673ffffffffffffffffffffffffffffffffffffffff16815260200190815260200160002060030154905090565b6000600960003373ffffffffffffffffffffffffffffffffffffffff1673ffffffffffffffffffffffffffffffffffffffff16815260200190815260200160002060020154905090565b6000600960003373ffffffffffffffffffffffffffffffffffffffff1673ffffffffffffffffffffffffffffffffffffffff168152602001908152602001600020905080600601543414610e3d576040517f08c379a0000000000000000000000000000000000000000000000000000000008152600401610e34906136b7565b60405180910390fd5b60008160080154148015610e55575060008160030154145b15610e7857600181600a0160006101000a81548160ff0219169083151502179055505b6000151581600a0160009054906101000a900460ff16151514610ed0576040517f08c379a0000000000000000000000000000000000000000000000000000000008152600401610ec7906138d7565b60405180910390fd5b34816003016000828254610ee49190613abd565b92505081905550806008016000815480929190610f0090613bb9565b9190505550600a60009054906101000a900473ffffffffffffffffffffffffffffffffffffffff1673ffffffffffffffffffffffffffffffffffffffff166108fc349081150290604051600060405180830381858888f19350505050158015610f6d573d6000803e3d6000fd5b5050565b610f82610f7c611ea3565b82611f64565b610fc1576040517f08c379a0000000000000000000000000000000000000000000000000000000008152600401610fb8906138b7565b60405180910390fd5b610fcc838383612042565b505050565b600b5481565b610ff283838360405180602001604052806000815250611ab4565b505050565b6000600960003373ffffffffffffffffffffffffffffffffffffffff1673ffffffffffffffffffffffffffffffffffffffff16815260200190815260200160002060000160009054906101000a900473ffffffffffffffffffffffffffffffffffffffff16905090565b600061106d60076122a9565b600061107960076122bf565b905061108530826122cd565b61108f81846124a7565b80915050919050565b7f0000000000000000000000000000000000000000000000000000000000000000600b54426110c79190613abd565b11156110dd5742600b819055506110dc610db4565b5b5050565b6000600960003373ffffffffffffffffffffffffffffffffffffffff1673ffffffffffffffffffffffffffffffffffffffff16815260200190815260200160002060080154905090565b6000806002600084815260200190815260200160002060009054906101000a900473ffffffffffffffffffffffffffffffffffffffff169050600073ffffffffffffffffffffffffffffffffffffffff168173ffffffffffffffffffffffffffffffffffffffff1614156111d4576040517f08c379a00000000000000000000000000000000000000000000000000000000081526004016111cb906137b7565b60405180910390fd5b80915050919050565b6000600960003373ffffffffffffffffffffffffffffffffffffffff1673ffffffffffffffffffffffffffffffffffffffff1681526020019081526020016000209050806005015462093a8042836001015461123991906139dc565b61124391906139dc565b11611283576040517f08c379a000000000000000000000000000000000000000000000000000000000815260040161127a90613857565b60405180910390fd5b80600a0160009054906101000a900460ff166112cb576112ca30600a60009054906101000a900473ffffffffffffffffffffffffffffffffffffffff168360090154612042565b5b80600a0160009054906101000a900460ff161561131657611315308260000160009054906101000a900473ffffffffffffffffffffffffffffffffffffffff168360090154612042565b5b600181600a0160006101000a81548160ff0219169083151502179055507f076232c96e3b52f25ef83ea1bbb596f3c13148c6369986057599f5a426495de43360016040516113659291906134a8565b60405180910390a150565b600060607f0000000000000000000000000000000000000000000000000000000000000000600b54426113a39190613abd565b1191509250929050565b60008073ffffffffffffffffffffffffffffffffffffffff168273ffffffffffffffffffffffffffffffffffffffff16141561141e576040517f08c379a000000000000000000000000000000000000000000000000000000000815260040161141590613797565b60405180910390fd5b600360008373ffffffffffffffffffffffffffffffffffffffff1673ffffffffffffffffffffffffffffffffffffffff168152602001908152602001600020549050919050565b6008818154811061147557600080fd5b906000526020600020016000915054906101000a900473ffffffffffffffffffffffffffffffffffffffff1681565b6000600960003373ffffffffffffffffffffffffffffffffffffffff1673ffffffffffffffffffffffffffffffffffffffff16815260200190815260200160002060070154600960003373ffffffffffffffffffffffffffffffffffffffff1673ffffffffffffffffffffffffffffffffffffffff1681526020019081526020016000206003015461153691906139dc565b905090565b7f000000000000000000000000000000000000000000000000000000000000000081565b60606001805461156e90613be3565b80601f016020809104026020016040519081016040528092919081815260200182805461159a90613be3565b80156115e75780601f106115bc576101008083540402835291602001916115e7565b820191906000526020600020905b8154815290600101906020018083116115ca57829003601f168201915b5050505050905090565b6000805b6008805490508110156116b2573373ffffffffffffffffffffffffffffffffffffffff1660088281548110611653577f4e487b7100000000000000000000000000000000000000000000000000000000600052603260045260246000fd5b9060005260206000200160009054906101000a900473ffffffffffffffffffffffffffffffffffffffff1673ffffffffffffffffffffffffffffffffffffffff16141561169f57600191505b80806116aa90613c46565b9150506115f5565b5060011515600960003373ffffffffffffffffffffffffffffffffffffffff1673ffffffffffffffffffffffffffffffffffffffff168152602001908152602001600020600a0160009054906101000a900460ff1615151480611719575060001515811515145b611758576040517f08c379a000000000000000000000000000000000000000000000000000000000815260040161174f90613677565b60405180910390fd5b60006005856117679190613a32565b8561177291906139dc565b905060008190506000600a836117889190613a32565b9050600086846117989190613a32565b90506008339080600181540180825580915050600190039060005260206000200160009091909190916101000a81548173ffffffffffffffffffffffffffffffffffffffff021916908373ffffffffffffffffffffffffffffffffffffffff1602179055506040518061016001604052808a73ffffffffffffffffffffffffffffffffffffffff168152602001428152602001670de0b6b3a76400008a61183f9190613a63565b8152602001670de0b6b3a7640000866118589190613a63565b8152602001670de0b6b3a7640000856118719190613a63565b815260200162278d00896118859190613a63565b8152602001670de0b6b3a76400008361189e9190613a63565b8152602001670de0b6b3a7640000846118b79190613a63565b815260200188815260200187815260200160001515815250600960003373ffffffffffffffffffffffffffffffffffffffff1673ffffffffffffffffffffffffffffffffffffffff16815260200190815260200160002060008201518160000160006101000a81548173ffffffffffffffffffffffffffffffffffffffff021916908373ffffffffffffffffffffffffffffffffffffffff1602179055506020820151816001015560408201518160020155606082015181600301556080820151816004015560a0820151816005015560c0820151816006015560e082015181600701556101008201518160080155610120820151816009015561014082015181600a0160006101000a81548160ff0219169083151502179055509050507fd67970a193111ef336477be7fc67703eef6f7e869454f0b197ce2537ddbcc6ee86604051611a0491906138f7565b60405180910390a17fddc1975e94c24dc6fdd60782dfe8284cdb84a1dda289ac203056950a747bd8a689898942604051611a4194939291906134fa565b60405180910390a1505050505050505050565b611a66611a5f611ea3565b838361251b565b5050565b6000600960003373ffffffffffffffffffffffffffffffffffffffff1673ffffffffffffffffffffffffffffffffffffffff16815260200190815260200160002060060154905090565b611ac5611abf611ea3565b83611f64565b611b04576040517f08c379a0000000000000000000000000000000000000000000000000000000008152600401611afb906138b7565b60405180910390fd5b611b1084848484612688565b50505050565b6060611b2182611e37565b611b60576040517f08c379a0000000000000000000000000000000000000000000000000000000008152600401611b5790613817565b60405180910390fd5b6000600660008481526020019081526020016000208054611b8090613be3565b80601f0160208091040260200160405190810160405280929190818152602001828054611bac90613be3565b8015611bf95780601f10611bce57610100808354040283529160200191611bf9565b820191906000526020600020905b815481529060010190602001808311611bdc57829003601f168201915b505050505090506000611c0a6126e4565b9050600081511415611c20578192505050611c63565b600082511115611c55578082604051602001611c3d929190613402565b60405160208183030381529060405292505050611c63565b611c5e846126fb565b925050505b919050565b60096020528060005260406000206000915090508060000160009054906101000a900473ffffffffffffffffffffffffffffffffffffffff169080600101549080600201549080600301549080600401549080600501549080600601549080600701549080600801549080600901549080600a0160009054906101000a900460ff1690508b565b6000600560008473ffffffffffffffffffffffffffffffffffffffff1673ffffffffffffffffffffffffffffffffffffffff16815260200190815260200160002060008373ffffffffffffffffffffffffffffffffffffffff1673ffffffffffffffffffffffffffffffffffffffff16815260200190815260200160002060009054906101000a900460ff16905092915050565b6000600960003373ffffffffffffffffffffffffffffffffffffffff1673ffffffffffffffffffffffffffffffffffffffff16815260200190815260200160002060010154905090565b60007f01ffc9a7000000000000000000000000000000000000000000000000000000007bffffffffffffffffffffffffffffffffffffffffffffffffffffffff1916827bffffffffffffffffffffffffffffffffffffffffffffffffffffffff1916149050919050565b60008073ffffffffffffffffffffffffffffffffffffffff166002600084815260200190815260200160002060009054906101000a900473ffffffffffffffffffffffffffffffffffffffff1673ffffffffffffffffffffffffffffffffffffffff1614159050919050565b600033905090565b816004600083815260200190815260200160002060006101000a81548173ffffffffffffffffffffffffffffffffffffffff021916908373ffffffffffffffffffffffffffffffffffffffff160217905550808273ffffffffffffffffffffffffffffffffffffffff16611f1e8361112b565b73ffffffffffffffffffffffffffffffffffffffff167f8c5be1e5ebec7d5bd14f71427d1e84f3dd0314c0f7b2291e5b200ac8c7c3b92560405160405180910390a45050565b6000611f6f82611e37565b611fae576040517f08c379a0000000000000000000000000000000000000000000000000000000008152600401611fa590613757565b60405180910390fd5b6000611fb98361112b565b90508073ffffffffffffffffffffffffffffffffffffffff168473ffffffffffffffffffffffffffffffffffffffff16148061202857508373ffffffffffffffffffffffffffffffffffffffff1661201084610b06565b73ffffffffffffffffffffffffffffffffffffffff16145b8061203957506120388185611cef565b5b91505092915050565b8273ffffffffffffffffffffffffffffffffffffffff166120628261112b565b73ffffffffffffffffffffffffffffffffffffffff16146120b8576040517f08c379a00000000000000000000000000000000000000000000000000000000081526004016120af906136d7565b60405180910390fd5b600073ffffffffffffffffffffffffffffffffffffffff168273ffffffffffffffffffffffffffffffffffffffff161415612128576040517f08c379a000000000000000000000000000000000000000000000000000000000815260040161211f90613717565b60405180910390fd5b6121338383836127a2565b61213e600082611eab565b6001600360008573ffffffffffffffffffffffffffffffffffffffff1673ffffffffffffffffffffffffffffffffffffffff168152602001908152602001600020600082825461218e9190613abd565b925050819055506001600360008473ffffffffffffffffffffffffffffffffffffffff1673ffffffffffffffffffffffffffffffffffffffff16815260200190815260200160002060008282546121e591906139dc565b92505081905550816002600083815260200190815260200160002060006101000a81548173ffffffffffffffffffffffffffffffffffffffff021916908373ffffffffffffffffffffffffffffffffffffffff160217905550808273ffffffffffffffffffffffffffffffffffffffff168473ffffffffffffffffffffffffffffffffffffffff167fddf252ad1be2c89b69c2b068fc378daa952ba7f163c4a11628f55a4df523b3ef60405160405180910390a46122a48383836127a7565b505050565b6001816000016000828254019250508190555050565b600081600001549050919050565b600073ffffffffffffffffffffffffffffffffffffffff168273ffffffffffffffffffffffffffffffffffffffff16141561233d576040517f08c379a0000000000000000000000000000000000000000000000000000000008152600401612334906137f7565b60405180910390fd5b61234681611e37565b15612386576040517f08c379a000000000000000000000000000000000000000000000000000000000815260040161237d906136f7565b60405180910390fd5b612392600083836127a2565b6001600360008473ffffffffffffffffffffffffffffffffffffffff1673ffffffffffffffffffffffffffffffffffffffff16815260200190815260200160002060008282546123e291906139dc565b92505081905550816002600083815260200190815260200160002060006101000a81548173ffffffffffffffffffffffffffffffffffffffff021916908373ffffffffffffffffffffffffffffffffffffffff160217905550808273ffffffffffffffffffffffffffffffffffffffff16600073ffffffffffffffffffffffffffffffffffffffff167fddf252ad1be2c89b69c2b068fc378daa952ba7f163c4a11628f55a4df523b3ef60405160405180910390a46124a3600083836127a7565b5050565b6124b082611e37565b6124ef576040517f08c379a00000000000000000000000000000000000000000000000000000000081526004016124e6906137d7565b60405180910390fd5b80600660008481526020019081526020016000209080519060200190612516929190612b13565b505050565b8173ffffffffffffffffffffffffffffffffffffffff168373ffffffffffffffffffffffffffffffffffffffff16141561258a576040517f08c379a000000000000000000000000000000000000000000000000000000000815260040161258190613737565b60405180910390fd5b80600560008573ffffffffffffffffffffffffffffffffffffffff1673ffffffffffffffffffffffffffffffffffffffff16815260200190815260200160002060008473ffffffffffffffffffffffffffffffffffffffff1673ffffffffffffffffffffffffffffffffffffffff16815260200190815260200160002060006101000a81548160ff0219169083151502179055508173ffffffffffffffffffffffffffffffffffffffff168373ffffffffffffffffffffffffffffffffffffffff167f17307eab39ab6107e8899845ad3d59bd9653f200f220920489ca2b5937696c318360405161267b91906135ea565b60405180910390a3505050565b612693848484612042565b61269f848484846127ac565b6126de576040517f08c379a00000000000000000000000000000000000000000000000000000000081526004016126d590613697565b60405180910390fd5b50505050565b606060405180602001604052806000815250905090565b606061270682611e37565b612745576040517f08c379a000000000000000000000000000000000000000000000000000000000815260040161273c90613877565b60405180910390fd5b600061274f6126e4565b9050600081511161276f576040518060200160405280600081525061279a565b8061277984612943565b60405160200161278a929190613402565b6040516020818303038152906040525b915050919050565b505050565b505050565b60006127cd8473ffffffffffffffffffffffffffffffffffffffff16612af0565b15612936578373ffffffffffffffffffffffffffffffffffffffff1663150b7a026127f6611ea3565b8786866040518563ffffffff1660e01b8152600401612818949392919061345c565b602060405180830381600087803b15801561283257600080fd5b505af192505050801561286357506040513d601f19601f820116820180604052508101906128609190612f6c565b60015b6128e6573d8060008114612893576040519150601f19603f3d011682016040523d82523d6000602084013e612898565b606091505b506000815114156128de576040517f08c379a00000000000000000000000000000000000000000000000000000000081526004016128d590613697565b60405180910390fd5b805181602001fd5b63150b7a0260e01b7bffffffffffffffffffffffffffffffffffffffffffffffffffffffff1916817bffffffffffffffffffffffffffffffffffffffffffffffffffffffff19161491505061293b565b600190505b949350505050565b6060600082141561298b576040518060400160405280600181526020017f30000000000000000000000000000000000000000000000000000000000000008152509050612aeb565b600082905060005b600082146129bd5780806129a690613c46565b915050600a826129b69190613a32565b9150612993565b60008167ffffffffffffffff8111156129ff577f4e487b7100000000000000000000000000000000000000000000000000000000600052604160045260246000fd5b6040519080825280601f01601f191660200182016040528015612a315781602001600182028036833780820191505090505b5090505b60008514612ae457600182612a4a9190613abd565b9150600a85612a599190613c8f565b6030612a6591906139dc565b60f81b818381518110612aa1577f4e487b7100000000000000000000000000000000000000000000000000000000600052603260045260246000fd5b60200101907effffffffffffffffffffffffffffffffffffffffffffffffffffffffffffff1916908160001a905350600a85612add9190613a32565b9450612a35565b8093505050505b919050565b6000808273ffffffffffffffffffffffffffffffffffffffff163b119050919050565b828054612b1f90613be3565b90600052602060002090601f016020900481019282612b415760008555612b88565b82601f10612b5a57805160ff1916838001178555612b88565b82800160010185558215612b88579182015b82811115612b87578251825591602001919060010190612b6c565b5b509050612b959190612b99565b5090565b5b80821115612bb2576000816000905550600101612b9a565b5090565b6000612bc9612bc484613937565b613912565b905082815260208101848484011115612be157600080fd5b612bec848285613b77565b509392505050565b6000612c07612c0284613968565b613912565b905082815260208101848484011115612c1f57600080fd5b612c2a848285613b77565b509392505050565b600081359050612c41816142fe565b92915050565b600081359050612c5681614315565b92915050565b600081359050612c6b8161432c565b92915050565b600081519050612c808161432c565b92915050565b60008083601f840112612c9857600080fd5b8235905067ffffffffffffffff811115612cb157600080fd5b602083019150836001820283011115612cc957600080fd5b9250929050565b600082601f830112612ce157600080fd5b8135612cf1848260208601612bb6565b91505092915050565b600082601f830112612d0b57600080fd5b8135612d1b848260208601612bf4565b91505092915050565b600081359050612d3381614343565b92915050565b600060208284031215612d4b57600080fd5b6000612d5984828501612c32565b91505092915050565b60008060408385031215612d7557600080fd5b6000612d8385828601612c32565b9250506020612d9485828601612c32565b9150509250929050565b600080600060608486031215612db357600080fd5b6000612dc186828701612c32565b9350506020612dd286828701612c32565b9250506040612de386828701612d24565b9150509250925092565b60008060008060808587031215612e0357600080fd5b6000612e1187828801612c32565b9450506020612e2287828801612c32565b9350506040612e3387828801612d24565b925050606085013567ffffffffffffffff811115612e5057600080fd5b612e5c87828801612cd0565b91505092959194509250565b60008060408385031215612e7b57600080fd5b6000612e8985828601612c32565b9250506020612e9a85828601612c47565b9150509250929050565b60008060408385031215612eb757600080fd5b6000612ec585828601612c32565b9250506020612ed685828601612d24565b9150509250929050565b60008060008060808587031215612ef657600080fd5b6000612f0487828801612c32565b9450506020612f1587828801612d24565b9350506040612f2687828801612d24565b9250506060612f3787828801612d24565b91505092959194509250565b600060208284031215612f5557600080fd5b6000612f6384828501612c5c565b91505092915050565b600060208284031215612f7e57600080fd5b6000612f8c84828501612c71565b91505092915050565b60008060208385031215612fa857600080fd5b600083013567ffffffffffffffff811115612fc257600080fd5b612fce85828601612c86565b92509250509250929050565b600060208284031215612fec57600080fd5b600082013567ffffffffffffffff81111561300657600080fd5b61301284828501612cfa565b91505092915050565b60006020828403121561302d57600080fd5b600061303b84828501612d24565b91505092915050565b61304d81613b03565b82525050565b61305c81613af1565b82525050565b61306b81613b15565b82525050565b600061307c82613999565b61308681856139af565b9350613096818560208601613b86565b61309f81613d7c565b840191505092915050565b60006130b5826139a4565b6130bf81856139c0565b93506130cf818560208601613b86565b6130d881613d7c565b840191505092915050565b60006130ee826139a4565b6130f881856139d1565b9350613108818560208601613b86565b80840191505092915050565b6000613121601e836139c0565b915061312c82613d8d565b602082019050919050565b60006131446020836139c0565b915061314f82613db6565b602082019050919050565b60006131676032836139c0565b915061317282613ddf565b604082019050919050565b600061318a601f836139c0565b915061319582613e2e565b602082019050919050565b60006131ad6025836139c0565b91506131b882613e57565b604082019050919050565b60006131d0601c836139c0565b91506131db82613ea6565b602082019050919050565b60006131f36024836139c0565b91506131fe82613ecf565b604082019050919050565b60006132166019836139c0565b915061322182613f1e565b602082019050919050565b6000613239602c836139c0565b915061324482613f47565b604082019050919050565b600061325c6038836139c0565b915061326782613f96565b604082019050919050565b600061327f602a836139c0565b915061328a82613fe5565b604082019050919050565b60006132a26029836139c0565b91506132ad82614034565b604082019050919050565b60006132c5602e836139c0565b91506132d082614083565b604082019050919050565b60006132e86020836139c0565b91506132f3826140d2565b602082019050919050565b600061330b6031836139c0565b9150613316826140fb565b604082019050919050565b600061332e602c836139c0565b91506133398261414a565b604082019050919050565b60006133516023836139c0565b915061335c82614199565b604082019050919050565b6000613374602f836139c0565b915061337f826141e8565b604082019050919050565b60006133976021836139c0565b91506133a282614237565b604082019050919050565b60006133ba6031836139c0565b91506133c582614286565b604082019050919050565b60006133dd6013836139c0565b91506133e8826142d5565b602082019050919050565b6133fc81613b6d565b82525050565b600061340e82856130e3565b915061341a82846130e3565b91508190509392505050565b600060208201905061343b6000830184613053565b92915050565b60006020820190506134566000830184613044565b92915050565b60006080820190506134716000830187613053565b61347e6020830186613053565b61348b60408301856133f3565b818103606083015261349d8184613071565b905095945050505050565b60006040820190506134bd6000830185613053565b6134ca6020830184613062565b9392505050565b60006040820190506134e66000830185613053565b6134f360208301846133f3565b9392505050565b600060808201905061350f6000830187613053565b61351c60208301866133f3565b61352960408301856133f3565b61353660608301846133f3565b95945050505050565b600061016082019050613555600083018e613053565b613562602083018d6133f3565b61356f604083018c6133f3565b61357c606083018b6133f3565b613589608083018a6133f3565b61359660a08301896133f3565b6135a360c08301886133f3565b6135b060e08301876133f3565b6135be6101008301866133f3565b6135cc6101208301856133f3565b6135da610140830184613062565b9c9b505050505050505050505050565b60006020820190506135ff6000830184613062565b92915050565b600060408201905061361a6000830185613062565b818103602083015261362c8184613071565b90509392505050565b6000602082019050818103600083015261364f81846130aa565b905092915050565b6000602082019050818103600083015261367081613114565b9050919050565b6000602082019050818103600083015261369081613137565b9050919050565b600060208201905081810360008301526136b08161315a565b9050919050565b600060208201905081810360008301526136d08161317d565b9050919050565b600060208201905081810360008301526136f0816131a0565b9050919050565b60006020820190508181036000830152613710816131c3565b9050919050565b60006020820190508181036000830152613730816131e6565b9050919050565b6000602082019050818103600083015261375081613209565b9050919050565b600060208201905081810360008301526137708161322c565b9050919050565b600060208201905081810360008301526137908161324f565b9050919050565b600060208201905081810360008301526137b081613272565b9050919050565b600060208201905081810360008301526137d081613295565b9050919050565b600060208201905081810360008301526137f0816132b8565b9050919050565b60006020820190508181036000830152613810816132db565b9050919050565b60006020820190508181036000830152613830816132fe565b9050919050565b6000602082019050818103600083015261385081613321565b9050919050565b6000602082019050818103600083015261387081613344565b9050919050565b6000602082019050818103600083015261389081613367565b9050919050565b600060208201905081810360008301526138b08161338a565b9050919050565b600060208201905081810360008301526138d0816133ad565b9050919050565b600060208201905081810360008301526138f0816133d0565b9050919050565b600060208201905061390c60008301846133f3565b92915050565b600061391c61392d565b90506139288282613c15565b919050565b6000604051905090565b600067ffffffffffffffff82111561395257613951613d4d565b5b61395b82613d7c565b9050602081019050919050565b600067ffffffffffffffff82111561398357613982613d4d565b5b61398c82613d7c565b9050602081019050919050565b600081519050919050565b600081519050919050565b600082825260208201905092915050565b600082825260208201905092915050565b600081905092915050565b60006139e782613b6d565b91506139f283613b6d565b9250827fffffffffffffffffffffffffffffffffffffffffffffffffffffffffffffffff03821115613a2757613a26613cc0565b5b828201905092915050565b6000613a3d82613b6d565b9150613a4883613b6d565b925082613a5857613a57613cef565b5b828204905092915050565b6000613a6e82613b6d565b9150613a7983613b6d565b9250817fffffffffffffffffffffffffffffffffffffffffffffffffffffffffffffffff0483118215151615613ab257613ab1613cc0565b5b828202905092915050565b6000613ac882613b6d565b9150613ad383613b6d565b925082821015613ae657613ae5613cc0565b5b828203905092915050565b6000613afc82613b4d565b9050919050565b6000613b0e82613b4d565b9050919050565b60008115159050919050565b60007fffffffff0000000000000000000000000000000000000000000000000000000082169050919050565b600073ffffffffffffffffffffffffffffffffffffffff82169050919050565b6000819050919050565b82818337600083830152505050565b60005b83811015613ba4578082015181840152602081019050613b89565b83811115613bb3576000848401525b50505050565b6000613bc482613b6d565b91506000821415613bd857613bd7613cc0565b5b600182039050919050565b60006002820490506001821680613bfb57607f821691505b60208210811415613c0f57613c0e613d1e565b5b50919050565b613c1e82613d7c565b810181811067ffffffffffffffff82111715613c3d57613c3c613d4d565b5b80604052505050565b6000613c5182613b6d565b91507fffffffffffffffffffffffffffffffffffffffffffffffffffffffffffffffff821415613c8457613c83613cc0565b5b600182019050919050565b6000613c9a82613b6d565b9150613ca583613b6d565b925082613cb557613cb4613cef565b5b828206905092915050565b7f4e487b7100000000000000000000000000000000000000000000000000000000600052601160045260246000fd5b7f4e487b7100000000000000000000000000000000000000000000000000000000600052601260045260246000fd5b7f4e487b7100000000000000000000000000000000000000000000000000000000600052602260045260246000fd5b7f4e487b7100000000000000000000000000000000000000000000000000000000600052604160045260246000fd5b6000601f19601f8301169050919050565b7f54686520726570617920616d6f756e74206973206e6f7420656e6f7567680000600082015250565b7f596f7520616c7265616479206861766520612072756e6e696e67206c6f616e2e600082015250565b7f4552433732313a207472616e7366657220746f206e6f6e20455243373231526560008201527f63656976657220696d706c656d656e7465720000000000000000000000000000602082015250565b7f416d6f756e74206e6f742061636375726174652e2054727920616761696e2100600082015250565b7f4552433732313a207472616e736665722066726f6d20696e636f72726563742060008201527f6f776e6572000000000000000000000000000000000000000000000000000000602082015250565b7f4552433732313a20746f6b656e20616c7265616479206d696e74656400000000600082015250565b7f4552433732313a207472616e7366657220746f20746865207a65726f2061646460008201527f7265737300000000000000000000000000000000000000000000000000000000602082015250565b7f4552433732313a20617070726f766520746f2063616c6c657200000000000000600082015250565b7f4552433732313a206f70657261746f7220717565727920666f72206e6f6e657860008201527f697374656e7420746f6b656e0000000000000000000000000000000000000000602082015250565b7f4552433732313a20617070726f76652063616c6c6572206973206e6f74206f7760008201527f6e6572206e6f7220617070726f76656420666f7220616c6c0000000000000000602082015250565b7f4552433732313a2062616c616e636520717565727920666f7220746865207a6560008201527f726f206164647265737300000000000000000000000000000000000000000000602082015250565b7f4552433732313a206f776e657220717565727920666f72206e6f6e657869737460008201527f656e7420746f6b656e0000000000000000000000000000000000000000000000602082015250565b7f45524337323155524953746f726167653a2055524920736574206f66206e6f6e60008201527f6578697374656e7420746f6b656e000000000000000000000000000000000000602082015250565b7f4552433732313a206d696e7420746f20746865207a65726f2061646472657373600082015250565b7f45524337323155524953746f726167653a2055524920717565727920666f722060008201527f6e6f6e6578697374656e7420746f6b656e000000000000000000000000000000602082015250565b7f4552433732313a20617070726f76656420717565727920666f72206e6f6e657860008201527f697374656e7420746f6b656e0000000000000000000000000000000000000000602082015250565b7f54696d65207374696c6c2072656d61696e696e6720666f7220736574746c656d60008201527f656e740000000000000000000000000000000000000000000000000000000000602082015250565b7f4552433732314d657461646174613a2055524920717565727920666f72206e6f60008201527f6e6578697374656e7420746f6b656e0000000000000000000000000000000000602082015250565b7f4552433732313a20617070726f76616c20746f2063757272656e74206f776e6560008201527f7200000000000000000000000000000000000000000000000000000000000000602082015250565b7f4552433732313a207472616e736665722063616c6c6572206973206e6f74206f60008201527f776e6572206e6f7220617070726f766564000000000000000000000000000000602082015250565b7f416d6f756e7420616c7265616479207061696400000000000000000000000000600082015250565b61430781613af1565b811461431257600080fd5b50565b61431e81613b15565b811461432957600080fd5b50565b61433581613b21565b811461434057600080fd5b50565b61434c81613b6d565b811461435757600080fd5b5056fea264697066735822122075faeb1041f80ff778fbf6b77535238edd283fe92a63ae80601a0bad18ac3c2164736f6c63430008040033",
  "linkReferences": {},
  "deployedLinkReferences": {}
}