{
  "_format": "hh-sol-artifact-1",
  "contractName": "Pool",
  "sourceName": "contracts/Pool.sol",
  "abi": [
    {
      "inputs": [],
      "stateMutability": "nonpayable",
      "type": "constructor"
    },
    {
      "anonymous": false,
      "inputs": [
        {
          "indexed": true,
          "internalType": "address",
          "name": "_from",
          "type": "address"
        },
        {
          "indexed": false,
          "internalType": "uint256",
          "name": "_amount",
          "type": "uint256"
        }
      ],
      "name": "depositAmount",
      "type": "event"
    },
    {
      "anonymous": false,
      "inputs": [
        {
          "indexed": true,
          "internalType": "address",
          "name": "_to",
          "type": "address"
        },
        {
          "indexed": false,
          "internalType": "uint256",
          "name": "_amount",
          "type": "uint256"
        }
      ],
      "name": "transferAmount",
      "type": "event"
    },
    {
      "anonymous": false,
      "inputs": [
        {
          "indexed": true,
          "internalType": "address",
          "name": "_to",
          "type": "address"
        },
        {
          "indexed": false,
          "internalType": "uint256",
          "name": "_amount",
          "type": "uint256"
        }
      ],
      "name": "withdrawAmount",
      "type": "event"
    },
    {
      "inputs": [],
      "name": "addInterestRate",
      "outputs": [],
      "stateMutability": "nonpayable",
      "type": "function"
    },
    {
      "inputs": [],
      "name": "balance",
      "outputs": [
        {
          "internalType": "uint256",
          "name": "",
          "type": "uint256"
        }
      ],
      "stateMutability": "view",
      "type": "function"
    },
    {
      "inputs": [],
      "name": "balanceContract",
      "outputs": [
        {
          "internalType": "uint256",
          "name": "",
          "type": "uint256"
        }
      ],
      "stateMutability": "view",
      "type": "function"
    },
    {
      "inputs": [
        {
          "internalType": "bytes",
          "name": "",
          "type": "bytes"
        }
      ],
      "name": "checkUpkeep",
      "outputs": [
        {
          "internalType": "bool",
          "name": "upkeepNeeded",
          "type": "bool"
        },
        {
          "internalType": "bytes",
          "name": "",
          "type": "bytes"
        }
      ],
      "stateMutability": "view",
      "type": "function"
    },
    {
      "inputs": [],
      "name": "interval",
      "outputs": [
        {
          "internalType": "uint256",
          "name": "",
          "type": "uint256"
        }
      ],
      "stateMutability": "view",
      "type": "function"
    },
    {
      "inputs": [],
      "name": "investedAmount",
      "outputs": [
        {
          "internalType": "uint256",
          "name": "",
          "type": "uint256"
        }
      ],
      "stateMutability": "view",
      "type": "function"
    },
    {
      "inputs": [],
      "name": "lastTimeStamp",
      "outputs": [
        {
          "internalType": "uint256",
          "name": "",
          "type": "uint256"
        }
      ],
      "stateMutability": "view",
      "type": "function"
    },
    {
      "inputs": [],
      "name": "owner",
      "outputs": [
        {
          "internalType": "address",
          "name": "",
          "type": "address"
        }
      ],
      "stateMutability": "view",
      "type": "function"
    },
    {
      "inputs": [
        {
          "internalType": "address",
          "name": "",
          "type": "address"
        }
      ],
      "name": "perPersonAmount",
      "outputs": [
        {
          "internalType": "uint256",
          "name": "investedAmount",
          "type": "uint256"
        },
        {
          "internalType": "uint256",
          "name": "interestAmount",
          "type": "uint256"
        },
        {
          "internalType": "uint256",
          "name": "accountBalance",
          "type": "uint256"
        }
      ],
      "stateMutability": "view",
      "type": "function"
    },
    {
      "inputs": [
        {
          "internalType": "bytes",
          "name": "",
          "type": "bytes"
        }
      ],
      "name": "performUpkeep",
      "outputs": [],
      "stateMutability": "nonpayable",
      "type": "function"
    },
    {
      "inputs": [],
      "name": "receiveEther",
      "outputs": [],
      "stateMutability": "payable",
      "type": "function"
    },
    {
      "inputs": [
        {
          "internalType": "uint256",
          "name": "amount",
          "type": "uint256"
        },
        {
          "internalType": "address payable",
          "name": "to",
          "type": "address"
        }
      ],
      "name": "transferEther",
      "outputs": [],
      "stateMutability": "payable",
      "type": "function"
    },
    {
      "inputs": [
        {
          "internalType": "uint256",
          "name": "amount",
          "type": "uint256"
        }
      ],
      "name": "withdraw",
      "outputs": [],
      "stateMutability": "payable",
      "type": "function"
    }
  ],
  "bytecode": "0x60a060405234801561001057600080fd5b50336000806101000a81548173ffffffffffffffffffffffffffffffffffffffff021916908373ffffffffffffffffffffffffffffffffffffffff1602179055506301e13380608081815250504260028190555060805161117761008d600039600081816105f501528181610642015261069f01526111776000f3fe6080604052600436106100c25760003560e01c80638da5cb5b1161007f578063b69ef8a811610059578063b69ef8a81461023f578063bd03e5011461026a578063e67d5f5414610286578063eaab45971461029d576100c2565b80638da5cb5b146101df578063947a36fb1461020a578063a3912ec814610235576100c2565b8063089fe01d146100c75780632e1a7d4d14610106578063322a5e5f146101225780633f3b3b271461014d5780634585e33b146101785780636e04ff0d146101a1575b600080fd5b3480156100d357600080fd5b506100ee60048036038101906100e99190610b32565b6102c8565b6040516100fd93929190610d9a565b60405180910390f35b610120600480360381019061011b9190610ba0565b6102f2565b005b34801561012e57600080fd5b506101376105e7565b6040516101449190610d7f565b60405180910390f35b34801561015957600080fd5b506101626105ed565b60405161016f9190610d7f565b60405180910390f35b34801561018457600080fd5b5061019f600480360381019061019a9190610b5b565b6105f3565b005b3480156101ad57600080fd5b506101c860048036038101906101c39190610b5b565b61063c565b6040516101d6929190610cef565b60405180910390f35b3480156101eb57600080fd5b506101f4610679565b6040516102019190610cd4565b60405180910390f35b34801561021657600080fd5b5061021f61069d565b60405161022c9190610d7f565b60405180910390f35b61023d6106c1565b005b34801561024b57600080fd5b50610254610827565b6040516102619190610d7f565b60405180910390f35b610284600480360381019061027f9190610bc9565b61082f565b005b34801561029257600080fd5b5061029b6109b6565b005b3480156102a957600080fd5b506102b2610a5f565b6040516102bf9190610d7f565b60405180910390f35b60036020528060005260406000206000915090508060000154908060010154908060020154905083565b8060015411610336576040517f08c379a000000000000000000000000000000000000000000000000000000000815260040161032d90610d1f565b60405180910390fd5b80600360003373ffffffffffffffffffffffffffffffffffffffff1673ffffffffffffffffffffffffffffffffffffffff16815260200190815260200160002060020154116103ba576040517f08c379a00000000000000000000000000000000000000000000000000000000081526004016103b190610d5f565b60405180910390fd5b806005600360003373ffffffffffffffffffffffffffffffffffffffff1673ffffffffffffffffffffffffffffffffffffffff1681526020019081526020016000206002015461040a9190610e54565b1161044a576040517f08c379a000000000000000000000000000000000000000000000000000000000815260040161044190610d3f565b60405180910390fd5b806001600082825461045c9190610edf565b92505081905550600081600360003373ffffffffffffffffffffffffffffffffffffffff1673ffffffffffffffffffffffffffffffffffffffff168152602001908152602001600020600201546104b39190610edf565b9050600060046064836104c69190610e54565b6104d09190610e85565b9050604051806060016040528083815260200182815260200183815250600360003373ffffffffffffffffffffffffffffffffffffffff1673ffffffffffffffffffffffffffffffffffffffff1681526020019081526020016000206000820151816000015560208201518160010155604082015181600201559050503373ffffffffffffffffffffffffffffffffffffffff166108fc849081150290604051600060405180830381858888f19350505050158015610593573d6000803e3d6000fd5b503373ffffffffffffffffffffffffffffffffffffffff167f736fe5656fcd35d9d20cbd1c42f7f6256ee31aea93b61054d47141c4927e220a846040516105da9190610d7f565b60405180910390a2505050565b60015481565b60025481565b7f0000000000000000000000000000000000000000000000000000000000000000600254426106229190610edf565b111561063857426002819055506106376109b6565b5b5050565b600060607f00000000000000000000000000000000000000000000000000000000000000006002544261066f9190610edf565b1191509250929050565b60008054906101000a900473ffffffffffffffffffffffffffffffffffffffff1681565b7f000000000000000000000000000000000000000000000000000000000000000081565b34600160008282546106d39190610dfe565b92505081905550600034600360003373ffffffffffffffffffffffffffffffffffffffff1673ffffffffffffffffffffffffffffffffffffffff1681526020019081526020016000206000015461072a9190610dfe565b90506000600460648361073d9190610e54565b6107479190610e85565b9050600081836107579190610dfe565b9050604051806060016040528084815260200183815260200182815250600360003373ffffffffffffffffffffffffffffffffffffffff1673ffffffffffffffffffffffffffffffffffffffff1681526020019081526020016000206000820151816000015560208201518160010155604082015181600201559050503373ffffffffffffffffffffffffffffffffffffffff167f15c5e5074661a8ead1f42483b78845368a7dcab9d6f0cf5f3c435525e3f0b11f3460405161081a9190610d7f565b60405180910390a2505050565b600047905090565b60008054906101000a900473ffffffffffffffffffffffffffffffffffffffff1673ffffffffffffffffffffffffffffffffffffffff163373ffffffffffffffffffffffffffffffffffffffff161461088757600080fd5b670de0b6b3a76400008261089b9190610e85565b600154116108de576040517f08c379a00000000000000000000000000000000000000000000000000000000081526004016108d590610d1f565b60405180910390fd5b670de0b6b3a7640000826108f29190610e85565b600160008282546109039190610edf565b925050819055508073ffffffffffffffffffffffffffffffffffffffff166108fc670de0b6b3a7640000846109389190610e85565b9081150290604051600060405180830381858888f19350505050158015610963573d6000803e3d6000fd5b508073ffffffffffffffffffffffffffffffffffffffff167fd7081e03acf4f258980c731b12330f7a911d3b76af080a78fbfd2b7b5cc4a623836040516109aa9190610d7f565b60405180910390a25050565b600a600360003373ffffffffffffffffffffffffffffffffffffffff1673ffffffffffffffffffffffffffffffffffffffff16815260200190815260200160002060020154610a059190610e54565b600360003373ffffffffffffffffffffffffffffffffffffffff1673ffffffffffffffffffffffffffffffffffffffff1681526020019081526020016000206002016000828254610a569190610dfe565b92505081905550565b6000600360003373ffffffffffffffffffffffffffffffffffffffff1673ffffffffffffffffffffffffffffffffffffffff16815260200190815260200160002060000154905090565b600081359050610ab8816110fc565b92915050565b600081359050610acd81611113565b92915050565b60008083601f840112610ae557600080fd5b8235905067ffffffffffffffff811115610afe57600080fd5b602083019150836001820283011115610b1657600080fd5b9250929050565b600081359050610b2c8161112a565b92915050565b600060208284031215610b4457600080fd5b6000610b5284828501610aa9565b91505092915050565b60008060208385031215610b6e57600080fd5b600083013567ffffffffffffffff811115610b8857600080fd5b610b9485828601610ad3565b92509250509250929050565b600060208284031215610bb257600080fd5b6000610bc084828501610b1d565b91505092915050565b60008060408385031215610bdc57600080fd5b6000610bea85828601610b1d565b9250506020610bfb85828601610abe565b9150509250929050565b610c0e81610f13565b82525050565b610c1d81610f37565b82525050565b6000610c2e82610dd1565b610c388185610ddc565b9350610c48818560208601610f6d565b610c5181610ffe565b840191505092915050565b6000610c69603183610ded565b9150610c748261100f565b604082019050919050565b6000610c8c602983610ded565b9150610c978261105e565b604082019050919050565b6000610caf602283610ded565b9150610cba826110ad565b604082019050919050565b610cce81610f63565b82525050565b6000602082019050610ce96000830184610c05565b92915050565b6000604082019050610d046000830185610c14565b8181036020830152610d168184610c23565b90509392505050565b60006020820190508181036000830152610d3881610c5c565b9050919050565b60006020820190508181036000830152610d5881610c7f565b9050919050565b60006020820190508181036000830152610d7881610ca2565b9050919050565b6000602082019050610d946000830184610cc5565b92915050565b6000606082019050610daf6000830186610cc5565b610dbc6020830185610cc5565b610dc96040830184610cc5565b949350505050565b600081519050919050565b600082825260208201905092915050565b600082825260208201905092915050565b6000610e0982610f63565b9150610e1483610f63565b9250827fffffffffffffffffffffffffffffffffffffffffffffffffffffffffffffffff03821115610e4957610e48610fa0565b5b828201905092915050565b6000610e5f82610f63565b9150610e6a83610f63565b925082610e7a57610e79610fcf565b5b828204905092915050565b6000610e9082610f63565b9150610e9b83610f63565b9250817fffffffffffffffffffffffffffffffffffffffffffffffffffffffffffffffff0483118215151615610ed457610ed3610fa0565b5b828202905092915050565b6000610eea82610f63565b9150610ef583610f63565b925082821015610f0857610f07610fa0565b5b828203905092915050565b6000610f1e82610f43565b9050919050565b6000610f3082610f43565b9050919050565b60008115159050919050565b600073ffffffffffffffffffffffffffffffffffffffff82169050919050565b6000819050919050565b60005b83811015610f8b578082015181840152602081019050610f70565b83811115610f9a576000848401525b50505050565b7f4e487b7100000000000000000000000000000000000000000000000000000000600052601160045260246000fd5b7f4e487b7100000000000000000000000000000000000000000000000000000000600052601260045260246000fd5b6000601f19601f8301169050919050565b7f496e73756666696369656e742066756e647320696e2074686520706f6f6c2e2060008201527f506c6561736520747279206c6174657221000000000000000000000000000000602082015250565b7f596f752063616e6e6f74207769746864726177206d6f7265207468616e20323060008201527f25206174206f6e63650000000000000000000000000000000000000000000000602082015250565b7f496e73756666696369656e742066756e647320696e20796f7572206163636f7560008201527f6e74000000000000000000000000000000000000000000000000000000000000602082015250565b61110581610f13565b811461111057600080fd5b50565b61111c81610f25565b811461112757600080fd5b50565b61113381610f63565b811461113e57600080fd5b5056fea26469706673582212207baf6140649b00226c95fa1273d5e310ea871f23853c17f3249a04e02411672e64736f6c63430008040033",
  "linkReferences": {},
  "deployedLinkReferences": {}
}