{
  "_format": "hh-sol-artifact-1",
  "contractName": "Pool",
  "sourceName": "contracts/Pool.sol",
  "abi": [
    {
      "inputs": [],
      "stateMutability": "nonpayable",
      "type": "constructor"
    },
    {
      "anonymous": false,
      "inputs": [
        {
          "indexed": true,
          "internalType": "address",
          "name": "_from",
          "type": "address"
        },
        {
          "indexed": false,
          "internalType": "uint256",
          "name": "_amount",
          "type": "uint256"
        }
      ],
      "name": "depositAmount",
      "type": "event"
    },
    {
      "anonymous": false,
      "inputs": [
        {
          "indexed": true,
          "internalType": "address",
          "name": "_to",
          "type": "address"
        },
        {
          "indexed": false,
          "internalType": "uint256",
          "name": "_amount",
          "type": "uint256"
        }
      ],
      "name": "transferAmount",
      "type": "event"
    },
    {
      "anonymous": false,
      "inputs": [
        {
          "indexed": true,
          "internalType": "address",
          "name": "_to",
          "type": "address"
        },
        {
          "indexed": false,
          "internalType": "uint256",
          "name": "_amount",
          "type": "uint256"
        }
      ],
      "name": "withdrawAmount",
      "type": "event"
    },
    {
      "inputs": [],
      "name": "addInterestRate",
      "outputs": [],
      "stateMutability": "nonpayable",
      "type": "function"
    },
    {
      "inputs": [],
      "name": "balance",
      "outputs": [
        {
          "internalType": "uint256",
          "name": "",
          "type": "uint256"
        }
      ],
      "stateMutability": "view",
      "type": "function"
    },
    {
      "inputs": [],
      "name": "balanceContract",
      "outputs": [
        {
          "internalType": "uint256",
          "name": "",
          "type": "uint256"
        }
      ],
      "stateMutability": "view",
      "type": "function"
    },
    {
      "inputs": [
        {
          "internalType": "bytes",
          "name": "",
          "type": "bytes"
        }
      ],
      "name": "checkUpkeep",
      "outputs": [
        {
          "internalType": "bool",
          "name": "upkeepNeeded",
          "type": "bool"
        },
        {
          "internalType": "bytes",
          "name": "",
          "type": "bytes"
        }
      ],
      "stateMutability": "view",
      "type": "function"
    },
    {
      "inputs": [],
      "name": "interval",
      "outputs": [
        {
          "internalType": "uint256",
          "name": "",
          "type": "uint256"
        }
      ],
      "stateMutability": "view",
      "type": "function"
    },
    {
      "inputs": [],
      "name": "lastTimeStamp",
      "outputs": [
        {
          "internalType": "uint256",
          "name": "",
          "type": "uint256"
        }
      ],
      "stateMutability": "view",
      "type": "function"
    },
    {
      "inputs": [],
      "name": "owner",
      "outputs": [
        {
          "internalType": "address",
          "name": "",
          "type": "address"
        }
      ],
      "stateMutability": "view",
      "type": "function"
    },
    {
      "inputs": [
        {
          "internalType": "address",
          "name": "",
          "type": "address"
        }
      ],
      "name": "perPersonAmount",
      "outputs": [
        {
          "internalType": "uint256",
          "name": "investedAmount",
          "type": "uint256"
        },
        {
          "internalType": "uint256",
          "name": "interestAmount",
          "type": "uint256"
        },
        {
          "internalType": "uint256",
          "name": "accountBalance",
          "type": "uint256"
        }
      ],
      "stateMutability": "view",
      "type": "function"
    },
    {
      "inputs": [
        {
          "internalType": "bytes",
          "name": "performData",
          "type": "bytes"
        }
      ],
      "name": "performUpkeep",
      "outputs": [],
      "stateMutability": "nonpayable",
      "type": "function"
    },
    {
      "inputs": [],
      "name": "receiveEther",
      "outputs": [],
      "stateMutability": "payable",
      "type": "function"
    },
    {
      "inputs": [
        {
          "internalType": "uint256",
          "name": "amount",
          "type": "uint256"
        },
        {
          "internalType": "address payable",
          "name": "to",
          "type": "address"
        }
      ],
      "name": "transferEther",
      "outputs": [],
      "stateMutability": "payable",
      "type": "function"
    },
    {
      "inputs": [
        {
          "internalType": "uint256",
          "name": "amount",
          "type": "uint256"
        }
      ],
      "name": "withdraw",
      "outputs": [],
      "stateMutability": "payable",
      "type": "function"
    }
  ],
  "bytecode": "0x60a060405234801561001057600080fd5b50336000806101000a81548173ffffffffffffffffffffffffffffffffffffffff021916908373ffffffffffffffffffffffffffffffffffffffff1602179055506301e1338060808181525050426002819055506080516110e761008d600039600081816105af015281816105fc015261065901526110e76000f3fe6080604052600436106100a75760003560e01c80638da5cb5b116100645780638da5cb5b146101c4578063947a36fb146101ef578063a3912ec81461021a578063b69ef8a814610224578063bd03e5011461024f578063e67d5f541461026b576100a7565b8063089fe01d146100ac5780632e1a7d4d146100eb578063322a5e5f146101075780633f3b3b27146101325780634585e33b1461015d5780636e04ff0d14610186575b600080fd5b3480156100b857600080fd5b506100d360048036038101906100ce9190610aa2565b610282565b6040516100e293929190610d0a565b60405180910390f35b61010560048036038101906101009190610b10565b6102ac565b005b34801561011357600080fd5b5061011c6105a1565b6040516101299190610cef565b60405180910390f35b34801561013e57600080fd5b506101476105a7565b6040516101549190610cef565b60405180910390f35b34801561016957600080fd5b50610184600480360381019061017f9190610acb565b6105ad565b005b34801561019257600080fd5b506101ad60048036038101906101a89190610acb565b6105f6565b6040516101bb929190610c5f565b60405180910390f35b3480156101d057600080fd5b506101d9610633565b6040516101e69190610c44565b60405180910390f35b3480156101fb57600080fd5b50610204610657565b6040516102119190610cef565b60405180910390f35b61022261067b565b005b34801561023057600080fd5b506102396107e1565b6040516102469190610cef565b60405180910390f35b61026960048036038101906102649190610b39565b6107e9565b005b34801561027757600080fd5b50610280610970565b005b60036020528060005260406000206000915090508060000154908060010154908060020154905083565b80600154116102f0576040517f08c379a00000000000000000000000000000000000000000000000000000000081526004016102e790610c8f565b60405180910390fd5b80600360003373ffffffffffffffffffffffffffffffffffffffff1673ffffffffffffffffffffffffffffffffffffffff1681526020019081526020016000206002015411610374576040517f08c379a000000000000000000000000000000000000000000000000000000000815260040161036b90610ccf565b60405180910390fd5b806005600360003373ffffffffffffffffffffffffffffffffffffffff1673ffffffffffffffffffffffffffffffffffffffff168152602001908152602001600020600201546103c49190610dc4565b11610404576040517f08c379a00000000000000000000000000000000000000000000000000000000081526004016103fb90610caf565b60405180910390fd5b80600160008282546104169190610e4f565b92505081905550600081600360003373ffffffffffffffffffffffffffffffffffffffff1673ffffffffffffffffffffffffffffffffffffffff1681526020019081526020016000206002015461046d9190610e4f565b9050600060046064836104809190610dc4565b61048a9190610df5565b9050604051806060016040528083815260200182815260200183815250600360003373ffffffffffffffffffffffffffffffffffffffff1673ffffffffffffffffffffffffffffffffffffffff1681526020019081526020016000206000820151816000015560208201518160010155604082015181600201559050503373ffffffffffffffffffffffffffffffffffffffff166108fc849081150290604051600060405180830381858888f1935050505015801561054d573d6000803e3d6000fd5b503373ffffffffffffffffffffffffffffffffffffffff167f736fe5656fcd35d9d20cbd1c42f7f6256ee31aea93b61054d47141c4927e220a846040516105949190610cef565b60405180910390a2505050565b60015481565b60025481565b7f0000000000000000000000000000000000000000000000000000000000000000600254426105dc9190610e4f565b11156105f257426002819055506105f1610970565b5b5050565b600060607f0000000000000000000000000000000000000000000000000000000000000000600254426106299190610e4f565b1191509250929050565b60008054906101000a900473ffffffffffffffffffffffffffffffffffffffff1681565b7f000000000000000000000000000000000000000000000000000000000000000081565b346001600082825461068d9190610d6e565b92505081905550600034600360003373ffffffffffffffffffffffffffffffffffffffff1673ffffffffffffffffffffffffffffffffffffffff168152602001908152602001600020600001546106e49190610d6e565b9050600060046064836106f79190610dc4565b6107019190610df5565b9050600081836107119190610d6e565b9050604051806060016040528084815260200183815260200182815250600360003373ffffffffffffffffffffffffffffffffffffffff1673ffffffffffffffffffffffffffffffffffffffff1681526020019081526020016000206000820151816000015560208201518160010155604082015181600201559050503373ffffffffffffffffffffffffffffffffffffffff167f15c5e5074661a8ead1f42483b78845368a7dcab9d6f0cf5f3c435525e3f0b11f346040516107d49190610cef565b60405180910390a2505050565b600047905090565b60008054906101000a900473ffffffffffffffffffffffffffffffffffffffff1673ffffffffffffffffffffffffffffffffffffffff163373ffffffffffffffffffffffffffffffffffffffff161461084157600080fd5b670de0b6b3a7640000826108559190610df5565b60015411610898576040517f08c379a000000000000000000000000000000000000000000000000000000000815260040161088f90610c8f565b60405180910390fd5b670de0b6b3a7640000826108ac9190610df5565b600160008282546108bd9190610e4f565b925050819055508073ffffffffffffffffffffffffffffffffffffffff166108fc670de0b6b3a7640000846108f29190610df5565b9081150290604051600060405180830381858888f1935050505015801561091d573d6000803e3d6000fd5b508073ffffffffffffffffffffffffffffffffffffffff167fd7081e03acf4f258980c731b12330f7a911d3b76af080a78fbfd2b7b5cc4a623836040516109649190610cef565b60405180910390a25050565b600a600360003373ffffffffffffffffffffffffffffffffffffffff1673ffffffffffffffffffffffffffffffffffffffff168152602001908152602001600020600201546109bf9190610dc4565b600360003373ffffffffffffffffffffffffffffffffffffffff1673ffffffffffffffffffffffffffffffffffffffff1681526020019081526020016000206002016000828254610a109190610d6e565b92505081905550565b600081359050610a288161106c565b92915050565b600081359050610a3d81611083565b92915050565b60008083601f840112610a5557600080fd5b8235905067ffffffffffffffff811115610a6e57600080fd5b602083019150836001820283011115610a8657600080fd5b9250929050565b600081359050610a9c8161109a565b92915050565b600060208284031215610ab457600080fd5b6000610ac284828501610a19565b91505092915050565b60008060208385031215610ade57600080fd5b600083013567ffffffffffffffff811115610af857600080fd5b610b0485828601610a43565b92509250509250929050565b600060208284031215610b2257600080fd5b6000610b3084828501610a8d565b91505092915050565b60008060408385031215610b4c57600080fd5b6000610b5a85828601610a8d565b9250506020610b6b85828601610a2e565b9150509250929050565b610b7e81610e83565b82525050565b610b8d81610ea7565b82525050565b6000610b9e82610d41565b610ba88185610d4c565b9350610bb8818560208601610edd565b610bc181610f6e565b840191505092915050565b6000610bd9603183610d5d565b9150610be482610f7f565b604082019050919050565b6000610bfc602983610d5d565b9150610c0782610fce565b604082019050919050565b6000610c1f602283610d5d565b9150610c2a8261101d565b604082019050919050565b610c3e81610ed3565b82525050565b6000602082019050610c596000830184610b75565b92915050565b6000604082019050610c746000830185610b84565b8181036020830152610c868184610b93565b90509392505050565b60006020820190508181036000830152610ca881610bcc565b9050919050565b60006020820190508181036000830152610cc881610bef565b9050919050565b60006020820190508181036000830152610ce881610c12565b9050919050565b6000602082019050610d046000830184610c35565b92915050565b6000606082019050610d1f6000830186610c35565b610d2c6020830185610c35565b610d396040830184610c35565b949350505050565b600081519050919050565b600082825260208201905092915050565b600082825260208201905092915050565b6000610d7982610ed3565b9150610d8483610ed3565b9250827fffffffffffffffffffffffffffffffffffffffffffffffffffffffffffffffff03821115610db957610db8610f10565b5b828201905092915050565b6000610dcf82610ed3565b9150610dda83610ed3565b925082610dea57610de9610f3f565b5b828204905092915050565b6000610e0082610ed3565b9150610e0b83610ed3565b9250817fffffffffffffffffffffffffffffffffffffffffffffffffffffffffffffffff0483118215151615610e4457610e43610f10565b5b828202905092915050565b6000610e5a82610ed3565b9150610e6583610ed3565b925082821015610e7857610e77610f10565b5b828203905092915050565b6000610e8e82610eb3565b9050919050565b6000610ea082610eb3565b9050919050565b60008115159050919050565b600073ffffffffffffffffffffffffffffffffffffffff82169050919050565b6000819050919050565b60005b83811015610efb578082015181840152602081019050610ee0565b83811115610f0a576000848401525b50505050565b7f4e487b7100000000000000000000000000000000000000000000000000000000600052601160045260246000fd5b7f4e487b7100000000000000000000000000000000000000000000000000000000600052601260045260246000fd5b6000601f19601f8301169050919050565b7f496e73756666696369656e742066756e647320696e2074686520706f6f6c2e2060008201527f506c6561736520747279206c6174657221000000000000000000000000000000602082015250565b7f596f752063616e6e6f74207769746864726177206d6f7265207468616e20323060008201527f25206174206f6e63650000000000000000000000000000000000000000000000602082015250565b7f496e73756666696369656e742066756e647320696e20796f7572206163636f7560008201527f6e74000000000000000000000000000000000000000000000000000000000000602082015250565b61107581610e83565b811461108057600080fd5b50565b61108c81610e95565b811461109757600080fd5b50565b6110a381610ed3565b81146110ae57600080fd5b5056fea2646970667358221220ab4ceceb2f8deaf736825ae164723db00f6489c20c15f80986b2c244b623cab264736f6c63430008040033",
  "linkReferences": {},
  "deployedLinkReferences": {}
}