{
  "_format": "hh-sol-artifact-1",
  "contractName": "Divvy",
  "sourceName": "contracts/Divvy.sol",
  "abi": [
    {
      "inputs": [
        {
          "internalType": "address payable",
          "name": "_seller",
          "type": "address"
        }
      ],
      "stateMutability": "nonpayable",
      "type": "constructor"
    },
    {
      "anonymous": false,
      "inputs": [
        {
          "indexed": true,
          "internalType": "address",
          "name": "owner",
          "type": "address"
        },
        {
          "indexed": true,
          "internalType": "address",
          "name": "approved",
          "type": "address"
        },
        {
          "indexed": true,
          "internalType": "uint256",
          "name": "tokenId",
          "type": "uint256"
        }
      ],
      "name": "Approval",
      "type": "event"
    },
    {
      "anonymous": false,
      "inputs": [
        {
          "indexed": true,
          "internalType": "address",
          "name": "owner",
          "type": "address"
        },
        {
          "indexed": true,
          "internalType": "address",
          "name": "operator",
          "type": "address"
        },
        {
          "indexed": false,
          "internalType": "bool",
          "name": "approved",
          "type": "bool"
        }
      ],
      "name": "ApprovalForAll",
      "type": "event"
    },
    {
      "anonymous": false,
      "inputs": [
        {
          "indexed": false,
          "internalType": "address",
          "name": "_buyer",
          "type": "address"
        },
        {
          "indexed": false,
          "internalType": "uint256",
          "name": "_installment",
          "type": "uint256"
        }
      ],
      "name": "FullPaidEvent",
      "type": "event"
    },
    {
      "anonymous": false,
      "inputs": [
        {
          "indexed": false,
          "internalType": "uint256",
          "name": "_id",
          "type": "uint256"
        }
      ],
      "name": "NFTReceivedEvent",
      "type": "event"
    },
    {
      "anonymous": false,
      "inputs": [
        {
          "indexed": false,
          "internalType": "address",
          "name": "_buyer",
          "type": "address"
        },
        {
          "indexed": false,
          "internalType": "bool",
          "name": "completed",
          "type": "bool"
        }
      ],
      "name": "SettleLoan",
      "type": "event"
    },
    {
      "anonymous": false,
      "inputs": [
        {
          "indexed": true,
          "internalType": "address",
          "name": "from",
          "type": "address"
        },
        {
          "indexed": true,
          "internalType": "address",
          "name": "to",
          "type": "address"
        },
        {
          "indexed": true,
          "internalType": "uint256",
          "name": "tokenId",
          "type": "uint256"
        }
      ],
      "name": "Transfer",
      "type": "event"
    },
    {
      "anonymous": false,
      "inputs": [
        {
          "indexed": false,
          "internalType": "address",
          "name": "_buyer",
          "type": "address"
        },
        {
          "indexed": false,
          "internalType": "uint256",
          "name": "_loanAmount",
          "type": "uint256"
        },
        {
          "indexed": false,
          "internalType": "uint256",
          "name": "_tenure",
          "type": "uint256"
        },
        {
          "indexed": false,
          "internalType": "uint256",
          "name": "startTime",
          "type": "uint256"
        }
      ],
      "name": "initEvent",
      "type": "event"
    },
    {
      "inputs": [
        {
          "internalType": "address",
          "name": "",
          "type": "address"
        }
      ],
      "name": "addressToLoan",
      "outputs": [
        {
          "internalType": "address",
          "name": "buyer",
          "type": "address"
        },
        {
          "internalType": "uint256",
          "name": "loanStart",
          "type": "uint256"
        },
        {
          "internalType": "uint256",
          "name": "loanAmount",
          "type": "uint256"
        },
        {
          "internalType": "uint256",
          "name": "repayAmount",
          "type": "uint256"
        },
        {
          "internalType": "uint256",
          "name": "remainingAmount",
          "type": "uint256"
        },
        {
          "internalType": "uint256",
          "name": "tenure",
          "type": "uint256"
        },
        {
          "internalType": "uint256",
          "name": "payoutPerMonth",
          "type": "uint256"
        },
        {
          "internalType": "uint256",
          "name": "penalty",
          "type": "uint256"
        },
        {
          "internalType": "uint256",
          "name": "intervalTimes",
          "type": "uint256"
        },
        {
          "internalType": "uint256",
          "name": "NFTId",
          "type": "uint256"
        },
        {
          "internalType": "bool",
          "name": "completed",
          "type": "bool"
        }
      ],
      "stateMutability": "view",
      "type": "function"
    },
    {
      "inputs": [
        {
          "internalType": "address",
          "name": "to",
          "type": "address"
        },
        {
          "internalType": "uint256",
          "name": "tokenId",
          "type": "uint256"
        }
      ],
      "name": "approve",
      "outputs": [],
      "stateMutability": "nonpayable",
      "type": "function"
    },
    {
      "inputs": [
        {
          "internalType": "address",
          "name": "owner",
          "type": "address"
        }
      ],
      "name": "balanceOf",
      "outputs": [
        {
          "internalType": "uint256",
          "name": "",
          "type": "uint256"
        }
      ],
      "stateMutability": "view",
      "type": "function"
    },
    {
      "inputs": [
        {
          "internalType": "uint256",
          "name": "",
          "type": "uint256"
        }
      ],
      "name": "borrowers",
      "outputs": [
        {
          "internalType": "address",
          "name": "",
          "type": "address"
        }
      ],
      "stateMutability": "view",
      "type": "function"
    },
    {
      "inputs": [],
      "name": "buyerAddress",
      "outputs": [
        {
          "internalType": "address",
          "name": "",
          "type": "address"
        }
      ],
      "stateMutability": "view",
      "type": "function"
    },
    {
      "inputs": [
        {
          "internalType": "bytes",
          "name": "",
          "type": "bytes"
        }
      ],
      "name": "checkUpkeep",
      "outputs": [
        {
          "internalType": "bool",
          "name": "upkeepNeeded",
          "type": "bool"
        },
        {
          "internalType": "bytes",
          "name": "",
          "type": "bytes"
        }
      ],
      "stateMutability": "view",
      "type": "function"
    },
    {
      "inputs": [
        {
          "internalType": "string",
          "name": "tokenURI",
          "type": "string"
        }
      ],
      "name": "createToken",
      "outputs": [
        {
          "internalType": "uint256",
          "name": "",
          "type": "uint256"
        }
      ],
      "stateMutability": "payable",
      "type": "function"
    },
    {
      "inputs": [],
      "name": "fullPaymentWithPenalty",
      "outputs": [
        {
          "internalType": "uint256",
          "name": "",
          "type": "uint256"
        }
      ],
      "stateMutability": "view",
      "type": "function"
    },
    {
      "inputs": [
        {
          "internalType": "uint256",
          "name": "tokenId",
          "type": "uint256"
        }
      ],
      "name": "getApproved",
      "outputs": [
        {
          "internalType": "address",
          "name": "",
          "type": "address"
        }
      ],
      "stateMutability": "view",
      "type": "function"
    },
    {
      "inputs": [],
      "name": "getId",
      "outputs": [
        {
          "internalType": "uint256",
          "name": "",
          "type": "uint256"
        }
      ],
      "stateMutability": "view",
      "type": "function"
    },
    {
      "inputs": [],
      "name": "id",
      "outputs": [
        {
          "internalType": "uint256",
          "name": "",
          "type": "uint256"
        }
      ],
      "stateMutability": "view",
      "type": "function"
    },
    {
      "inputs": [
        {
          "internalType": "address",
          "name": "_buyer",
          "type": "address"
        },
        {
          "internalType": "uint256",
          "name": "_loanAmount",
          "type": "uint256"
        },
        {
          "internalType": "uint256",
          "name": "_tenure",
          "type": "uint256"
        },
        {
          "internalType": "uint256",
          "name": "tokenId",
          "type": "uint256"
        }
      ],
      "name": "init",
      "outputs": [],
      "stateMutability": "nonpayable",
      "type": "function"
    },
    {
      "inputs": [],
      "name": "installmentAmt",
      "outputs": [
        {
          "internalType": "uint256",
          "name": "",
          "type": "uint256"
        }
      ],
      "stateMutability": "view",
      "type": "function"
    },
    {
      "inputs": [],
      "name": "interval",
      "outputs": [
        {
          "internalType": "uint256",
          "name": "",
          "type": "uint256"
        }
      ],
      "stateMutability": "view",
      "type": "function"
    },
    {
      "inputs": [
        {
          "internalType": "address",
          "name": "owner",
          "type": "address"
        },
        {
          "internalType": "address",
          "name": "operator",
          "type": "address"
        }
      ],
      "name": "isApprovedForAll",
      "outputs": [
        {
          "internalType": "bool",
          "name": "",
          "type": "bool"
        }
      ],
      "stateMutability": "view",
      "type": "function"
    },
    {
      "inputs": [],
      "name": "lastTimeStamp",
      "outputs": [
        {
          "internalType": "uint256",
          "name": "",
          "type": "uint256"
        }
      ],
      "stateMutability": "view",
      "type": "function"
    },
    {
      "inputs": [],
      "name": "loanAmt",
      "outputs": [
        {
          "internalType": "uint256",
          "name": "",
          "type": "uint256"
        }
      ],
      "stateMutability": "view",
      "type": "function"
    },
    {
      "inputs": [],
      "name": "loanStartedOn",
      "outputs": [
        {
          "internalType": "uint256",
          "name": "",
          "type": "uint256"
        }
      ],
      "stateMutability": "view",
      "type": "function"
    },
    {
      "inputs": [],
      "name": "name",
      "outputs": [
        {
          "internalType": "string",
          "name": "",
          "type": "string"
        }
      ],
      "stateMutability": "view",
      "type": "function"
    },
    {
      "inputs": [
        {
          "internalType": "uint256",
          "name": "tokenId",
          "type": "uint256"
        }
      ],
      "name": "ownerOf",
      "outputs": [
        {
          "internalType": "address",
          "name": "",
          "type": "address"
        }
      ],
      "stateMutability": "view",
      "type": "function"
    },
    {
      "inputs": [],
      "name": "pay",
      "outputs": [],
      "stateMutability": "payable",
      "type": "function"
    },
    {
      "inputs": [],
      "name": "payInFull",
      "outputs": [],
      "stateMutability": "payable",
      "type": "function"
    },
    {
      "inputs": [
        {
          "internalType": "bytes",
          "name": "",
          "type": "bytes"
        }
      ],
      "name": "performUpkeep",
      "outputs": [],
      "stateMutability": "nonpayable",
      "type": "function"
    },
    {
      "inputs": [],
      "name": "repayAmt",
      "outputs": [
        {
          "internalType": "uint256",
          "name": "",
          "type": "uint256"
        }
      ],
      "stateMutability": "view",
      "type": "function"
    },
    {
      "inputs": [
        {
          "internalType": "address",
          "name": "from",
          "type": "address"
        },
        {
          "internalType": "address",
          "name": "to",
          "type": "address"
        },
        {
          "internalType": "uint256",
          "name": "tokenId",
          "type": "uint256"
        }
      ],
      "name": "safeTransferFrom",
      "outputs": [],
      "stateMutability": "nonpayable",
      "type": "function"
    },
    {
      "inputs": [
        {
          "internalType": "address",
          "name": "from",
          "type": "address"
        },
        {
          "internalType": "address",
          "name": "to",
          "type": "address"
        },
        {
          "internalType": "uint256",
          "name": "tokenId",
          "type": "uint256"
        },
        {
          "internalType": "bytes",
          "name": "_data",
          "type": "bytes"
        }
      ],
      "name": "safeTransferFrom",
      "outputs": [],
      "stateMutability": "nonpayable",
      "type": "function"
    },
    {
      "inputs": [],
      "name": "seller",
      "outputs": [
        {
          "internalType": "address payable",
          "name": "",
          "type": "address"
        }
      ],
      "stateMutability": "view",
      "type": "function"
    },
    {
      "inputs": [
        {
          "internalType": "address",
          "name": "operator",
          "type": "address"
        },
        {
          "internalType": "bool",
          "name": "approved",
          "type": "bool"
        }
      ],
      "name": "setApprovalForAll",
      "outputs": [],
      "stateMutability": "nonpayable",
      "type": "function"
    },
    {
      "inputs": [],
      "name": "settleLoan",
      "outputs": [],
      "stateMutability": "nonpayable",
      "type": "function"
    },
    {
      "inputs": [],
      "name": "success",
      "outputs": [
        {
          "internalType": "bool",
          "name": "",
          "type": "bool"
        }
      ],
      "stateMutability": "view",
      "type": "function"
    },
    {
      "inputs": [
        {
          "internalType": "bytes4",
          "name": "interfaceId",
          "type": "bytes4"
        }
      ],
      "name": "supportsInterface",
      "outputs": [
        {
          "internalType": "bool",
          "name": "",
          "type": "bool"
        }
      ],
      "stateMutability": "view",
      "type": "function"
    },
    {
      "inputs": [],
      "name": "symbol",
      "outputs": [
        {
          "internalType": "string",
          "name": "",
          "type": "string"
        }
      ],
      "stateMutability": "view",
      "type": "function"
    },
    {
      "inputs": [],
      "name": "tenure",
      "outputs": [
        {
          "internalType": "uint256",
          "name": "",
          "type": "uint256"
        }
      ],
      "stateMutability": "view",
      "type": "function"
    },
    {
      "inputs": [
        {
          "internalType": "uint256",
          "name": "tokenId",
          "type": "uint256"
        }
      ],
      "name": "tokenURI",
      "outputs": [
        {
          "internalType": "string",
          "name": "",
          "type": "string"
        }
      ],
      "stateMutability": "view",
      "type": "function"
    },
    {
      "inputs": [
        {
          "internalType": "address",
          "name": "from",
          "type": "address"
        },
        {
          "internalType": "address",
          "name": "to",
          "type": "address"
        },
        {
          "internalType": "uint256",
          "name": "tokenId",
          "type": "uint256"
        }
      ],
      "name": "transferFrom",
      "outputs": [],
      "stateMutability": "nonpayable",
      "type": "function"
    }
  ],
  "bytecode": "0x60a06040523480156200001157600080fd5b5060405162004898380380620048988339818101604052810190620000379190620001f8565b6040518060400160405280600881526020017f50726f70657274790000000000000000000000000000000000000000000000008152506040518060400160405280600381526020017f50545900000000000000000000000000000000000000000000000000000000008152508160009080519060200190620000bb92919062000131565b508060019080519060200190620000d492919062000131565b50505080600a60006101000a81548173ffffffffffffffffffffffffffffffffffffffff021916908373ffffffffffffffffffffffffffffffffffffffff16021790555062278d006080818152505042600c8190555050620002d7565b8280546200013f9062000258565b90600052602060002090601f016020900481019282620001635760008555620001af565b82601f106200017e57805160ff1916838001178555620001af565b82800160010185558215620001af579182015b82811115620001ae57825182559160200191906001019062000191565b5b509050620001be9190620001c2565b5090565b5b80821115620001dd576000816000905550600101620001c3565b5090565b600081519050620001f281620002bd565b92915050565b6000602082840312156200020b57600080fd5b60006200021b84828501620001e1565b91505092915050565b6000620002318262000238565b9050919050565b600073ffffffffffffffffffffffffffffffffffffffff82169050919050565b600060028204905060018216806200027157607f821691505b602082108114156200028857620002876200028e565b5b50919050565b7f4e487b7100000000000000000000000000000000000000000000000000000000600052602260045260246000fd5b620002c88162000224565b8114620002d457600080fd5b50565b60805161459762000301600039600081816111df015281816114c5015261168c01526145976000f3fe6080604052600436106102045760003560e01c806362b858341161011857806398c36c09116100a0578063b88d4fde1161006f578063b88d4fde14610723578063c87b56dd1461074c578063d47d3b0a14610789578063e985e9c5146107d0578063fc71e2821461080d57610204565b806398c36c091461067b578063a22cb465146106a4578063ae48c8c2146106cd578063af640d0f146106f857610204565b806370a08231116100e757806370a08231146105805780637924d93f146105bd578063923eade9146105fa578063947a36fb1461062557806395d89b411461065057610204565b806362b85834146104c35780636352211e146104ee5780636527ba5c1461052b5780636e04ff0d1461054257610204565b80631b7e07681161019b57806342842e0e1161016a57806342842e0e146103eb57806344834aca1461041457806345576f941461043f5780634585e33b1461046f5780635d1ca6311461049857610204565b80631b7e0768146103625780631b9265b81461038d57806323b872dd146103975780633f3b3b27146103c057610204565b806308551a53116101d757806308551a53146102b8578063095ea7b3146102e35780630b93381b1461030c57806311bb92b51461033757610204565b8063016617a81461020957806301ffc9a71461021357806306fdde0314610250578063081812fc1461027b575b600080fd5b610211610838565b005b34801561021f57600080fd5b5061023a60048036038101906102359190613098565b610a67565b604051610247919061379a565b60405180910390f35b34801561025c57600080fd5b50610265610b49565b60405161027291906137e5565b60405180910390f35b34801561028757600080fd5b506102a2600480360381019061029d9190613170565b610bdb565b6040516102af91906135d6565b60405180910390f35b3480156102c457600080fd5b506102cd610c60565b6040516102da91906135f1565b60405180910390f35b3480156102ef57600080fd5b5061030a60048036038101906103059190612ff9565b610c86565b005b34801561031857600080fd5b50610321610d9e565b60405161032e919061379a565b60405180910390f35b34801561034357600080fd5b5061034c610df5565b6040516103599190613ac7565b60405180910390f35b34801561036e57600080fd5b50610377610e3f565b6040516103849190613ac7565b60405180910390f35b610395610e89565b005b3480156103a357600080fd5b506103be60048036038101906103b99190612ef3565b6110af565b005b3480156103cc57600080fd5b506103d561110f565b6040516103e29190613ac7565b60405180910390f35b3480156103f757600080fd5b50610412600480360381019061040d9190612ef3565b611115565b005b34801561042057600080fd5b50610429611135565b60405161043691906135d6565b60405180910390f35b6104596004803603810190610454919061312f565b61119f565b6040516104669190613ac7565b60405180910390f35b34801561047b57600080fd5b50610496600480360381019061049191906130ea565b6111dd565b005b3480156104a457600080fd5b506104ad611226565b6040516104ba9190613ac7565b60405180910390f35b3480156104cf57600080fd5b506104d8611230565b6040516104e59190613ac7565b60405180910390f35b3480156104fa57600080fd5b5061051560048036038101906105109190613170565b61127a565b60405161052291906135d6565b60405180910390f35b34801561053757600080fd5b5061054061132c565b005b34801561054e57600080fd5b50610569600480360381019061056491906130ea565b6114bf565b6040516105779291906137b5565b60405180910390f35b34801561058c57600080fd5b506105a760048036038101906105a29190612e8e565b6114fc565b6040516105b49190613ac7565b60405180910390f35b3480156105c957600080fd5b506105e460048036038101906105df9190613170565b6115b4565b6040516105f191906135d6565b60405180910390f35b34801561060657600080fd5b5061060f6115f3565b60405161061c9190613ac7565b60405180910390f35b34801561063157600080fd5b5061063a61168a565b6040516106479190613ac7565b60405180910390f35b34801561065c57600080fd5b506106656116ae565b60405161067291906137e5565b60405180910390f35b34801561068757600080fd5b506106a2600480360381019061069d9190613035565b611740565b005b3480156106b057600080fd5b506106cb60048036038101906106c69190612fbd565b611ba3565b005b3480156106d957600080fd5b506106e2611bb9565b6040516106ef9190613ac7565b60405180910390f35b34801561070457600080fd5b5061070d611c03565b60405161071a9190613ac7565b60405180910390f35b34801561072f57600080fd5b5061074a60048036038101906107459190612f42565b611c09565b005b34801561075857600080fd5b50610773600480360381019061076e9190613170565b611c6b565b60405161078091906137e5565b60405180910390f35b34801561079557600080fd5b506107b060048036038101906107ab9190612e8e565b611dbd565b6040516107c79b9a999897969594939291906136ef565b60405180910390f35b3480156107dc57600080fd5b506107f760048036038101906107f29190612eb7565b611e44565b604051610804919061379a565b60405180910390f35b34801561081957600080fd5b50610822611ed8565b60405161082f9190613ac7565b60405180910390f35b6000600960003373ffffffffffffffffffffffffffffffffffffffff1673ffffffffffffffffffffffffffffffffffffffff16815260200190815260200160002090506000151581600a0160009054906101000a900460ff161515146108d3576040517f08c379a00000000000000000000000000000000000000000000000000000000081526004016108ca90613aa7565b60405180910390fd5b806007015481600301546108e79190613bb7565b3414610928576040517f08c379a000000000000000000000000000000000000000000000000000000000815260040161091f90613807565b60405180910390fd5b6000816003018190555060008160080181905550600181600a0160006101000a81548160ff021916908315150217905550600080600a60009054906101000a900473ffffffffffffffffffffffffffffffffffffffff1673ffffffffffffffffffffffffffffffffffffffff16346040516109a2906135c1565b60006040518083038185875af1925050503d80600081146109df576040519150601f19603f3d011682016040523d82523d6000602084013e6109e4565b606091505b509150915081610a29576040517f08c379a0000000000000000000000000000000000000000000000000000000008152600401610a2090613887565b60405180910390fd5b7f53fd6d3875019abc53c67f8d62c99a336c120cebea2b475b8ce3e1fb8268f4ce3334604051610a5a929190613681565b60405180910390a1505050565b60007f80ac58cd000000000000000000000000000000000000000000000000000000007bffffffffffffffffffffffffffffffffffffffffffffffffffffffff1916827bffffffffffffffffffffffffffffffffffffffffffffffffffffffff19161480610b3257507f5b5e139f000000000000000000000000000000000000000000000000000000007bffffffffffffffffffffffffffffffffffffffffffffffffffffffff1916827bffffffffffffffffffffffffffffffffffffffffffffffffffffffff1916145b80610b425750610b4182611f22565b5b9050919050565b606060008054610b5890613dbe565b80601f0160208091040260200160405190810160405280929190818152602001828054610b8490613dbe565b8015610bd15780601f10610ba657610100808354040283529160200191610bd1565b820191906000526020600020905b815481529060010190602001808311610bb457829003601f168201915b5050505050905090565b6000610be682611f8c565b610c25576040517f08c379a0000000000000000000000000000000000000000000000000000000008152600401610c1c90613a07565b60405180910390fd5b6004600083815260200190815260200160002060009054906101000a900473ffffffffffffffffffffffffffffffffffffffff169050919050565b600a60009054906101000a900473ffffffffffffffffffffffffffffffffffffffff1681565b6000610c918261127a565b90508073ffffffffffffffffffffffffffffffffffffffff168373ffffffffffffffffffffffffffffffffffffffff161415610d02576040517f08c379a0000000000000000000000000000000000000000000000000000000008152600401610cf990613a67565b60405180910390fd5b8073ffffffffffffffffffffffffffffffffffffffff16610d21611ff8565b73ffffffffffffffffffffffffffffffffffffffff161480610d505750610d4f81610d4a611ff8565b611e44565b5b610d8f576040517f08c379a0000000000000000000000000000000000000000000000000000000008152600401610d8690613947565b60405180910390fd5b610d998383612000565b505050565b6000600960003373ffffffffffffffffffffffffffffffffffffffff1673ffffffffffffffffffffffffffffffffffffffff168152602001908152602001600020600a0160009054906101000a900460ff16905090565b6000600960003373ffffffffffffffffffffffffffffffffffffffff1673ffffffffffffffffffffffffffffffffffffffff16815260200190815260200160002060030154905090565b6000600960003373ffffffffffffffffffffffffffffffffffffffff1673ffffffffffffffffffffffffffffffffffffffff16815260200190815260200160002060020154905090565b6000600960003373ffffffffffffffffffffffffffffffffffffffff1673ffffffffffffffffffffffffffffffffffffffff168152602001908152602001600020905080600601543414610f12576040517f08c379a0000000000000000000000000000000000000000000000000000000008152600401610f0990613867565b60405180910390fd5b60008160080154148015610f2a575060008160030154145b15610f4d57600181600a0160006101000a81548160ff0219169083151502179055505b6000151581600a0160009054906101000a900460ff16151514610fa5576040517f08c379a0000000000000000000000000000000000000000000000000000000008152600401610f9c90613aa7565b60405180910390fd5b34816003016000828254610fb99190613c98565b92505081905550806008016000815480929190610fd590613d94565b9190505550600080600a60009054906101000a900473ffffffffffffffffffffffffffffffffffffffff1673ffffffffffffffffffffffffffffffffffffffff1634604051611023906135c1565b60006040518083038185875af1925050503d8060008114611060576040519150601f19603f3d011682016040523d82523d6000602084013e611065565b606091505b5091509150816110aa576040517f08c379a00000000000000000000000000000000000000000000000000000000081526004016110a190613887565b60405180910390fd5b505050565b6110c06110ba611ff8565b826120b9565b6110ff576040517f08c379a00000000000000000000000000000000000000000000000000000000081526004016110f690613a87565b60405180910390fd5b61110a838383612197565b505050565b600c5481565b61113083838360405180602001604052806000815250611c09565b505050565b6000600960003373ffffffffffffffffffffffffffffffffffffffff1673ffffffffffffffffffffffffffffffffffffffff16815260200190815260200160002060000160009054906101000a900473ffffffffffffffffffffffffffffffffffffffff16905090565b60006111ab60076123fe565b60006111b76007612414565b90506111c33082612422565b6111cd81846125fc565b80600b8190555080915050919050565b7f0000000000000000000000000000000000000000000000000000000000000000600c544261120c9190613c98565b11156112225742600c81905550611221610e89565b5b5050565b6000600b54905090565b6000600960003373ffffffffffffffffffffffffffffffffffffffff1673ffffffffffffffffffffffffffffffffffffffff16815260200190815260200160002060080154905090565b6000806002600084815260200190815260200160002060009054906101000a900473ffffffffffffffffffffffffffffffffffffffff169050600073ffffffffffffffffffffffffffffffffffffffff168173ffffffffffffffffffffffffffffffffffffffff161415611323576040517f08c379a000000000000000000000000000000000000000000000000000000000815260040161131a90613987565b60405180910390fd5b80915050919050565b6000600960003373ffffffffffffffffffffffffffffffffffffffff1673ffffffffffffffffffffffffffffffffffffffff1681526020019081526020016000209050806005015462093a804283600101546113889190613bb7565b6113929190613bb7565b116113d2576040517f08c379a00000000000000000000000000000000000000000000000000000000081526004016113c990613a27565b60405180910390fd5b80600a0160009054906101000a900460ff1661141a5761141930600a60009054906101000a900473ffffffffffffffffffffffffffffffffffffffff168360090154612197565b5b80600a0160009054906101000a900460ff161561146557611464308260000160009054906101000a900473ffffffffffffffffffffffffffffffffffffffff168360090154612197565b5b600181600a0160006101000a81548160ff0219169083151502179055507f076232c96e3b52f25ef83ea1bbb596f3c13148c6369986057599f5a426495de43360016040516114b4929190613658565b60405180910390a150565b600060607f0000000000000000000000000000000000000000000000000000000000000000600c54426114f29190613c98565b1191509250929050565b60008073ffffffffffffffffffffffffffffffffffffffff168273ffffffffffffffffffffffffffffffffffffffff16141561156d576040517f08c379a000000000000000000000000000000000000000000000000000000000815260040161156490613967565b60405180910390fd5b600360008373ffffffffffffffffffffffffffffffffffffffff1673ffffffffffffffffffffffffffffffffffffffff168152602001908152602001600020549050919050565b600881815481106115c457600080fd5b906000526020600020016000915054906101000a900473ffffffffffffffffffffffffffffffffffffffff1681565b6000600960003373ffffffffffffffffffffffffffffffffffffffff1673ffffffffffffffffffffffffffffffffffffffff16815260200190815260200160002060070154600960003373ffffffffffffffffffffffffffffffffffffffff1673ffffffffffffffffffffffffffffffffffffffff168152602001908152602001600020600301546116859190613bb7565b905090565b7f000000000000000000000000000000000000000000000000000000000000000081565b6060600180546116bd90613dbe565b80601f01602080910402602001604051908101604052809291908181526020018280546116e990613dbe565b80156117365780601f1061170b57610100808354040283529160200191611736565b820191906000526020600020905b81548152906001019060200180831161171957829003601f168201915b5050505050905090565b6000805b600880549050811015611801573373ffffffffffffffffffffffffffffffffffffffff16600882815481106117a2577f4e487b7100000000000000000000000000000000000000000000000000000000600052603260045260246000fd5b9060005260206000200160009054906101000a900473ffffffffffffffffffffffffffffffffffffffff1673ffffffffffffffffffffffffffffffffffffffff1614156117ee57600191505b80806117f990613e21565b915050611744565b5060011515600960003373ffffffffffffffffffffffffffffffffffffffff1673ffffffffffffffffffffffffffffffffffffffff168152602001908152602001600020600a0160009054906101000a900460ff1615151480611868575060001515811515145b6118a7576040517f08c379a000000000000000000000000000000000000000000000000000000000815260040161189e90613827565b60405180910390fd5b60006005856118b69190613c0d565b856118c19190613bb7565b905060008190506000600a836118d79190613c0d565b9050600086846118e79190613c0d565b90506008339080600181540180825580915050600190039060005260206000200160009091909190916101000a81548173ffffffffffffffffffffffffffffffffffffffff021916908373ffffffffffffffffffffffffffffffffffffffff1602179055506040518061016001604052808a73ffffffffffffffffffffffffffffffffffffffff168152602001428152602001670de0b6b3a76400008a61198e9190613c3e565b8152602001670de0b6b3a7640000866119a79190613c3e565b8152602001670de0b6b3a7640000856119c09190613c3e565b815260200162278d00896119d49190613c3e565b8152602001670de0b6b3a7640000836119ed9190613c3e565b8152602001670de0b6b3a764000084611a069190613c3e565b815260200188815260200187815260200160001515815250600960003373ffffffffffffffffffffffffffffffffffffffff1673ffffffffffffffffffffffffffffffffffffffff16815260200190815260200160002060008201518160000160006101000a81548173ffffffffffffffffffffffffffffffffffffffff021916908373ffffffffffffffffffffffffffffffffffffffff1602179055506020820151816001015560408201518160020155606082015181600301556080820151816004015560a0820151816005015560c0820151816006015560e082015181600701556101008201518160080155610120820151816009015561014082015181600a0160006101000a81548160ff0219169083151502179055509050507fd67970a193111ef336477be7fc67703eef6f7e869454f0b197ce2537ddbcc6ee86604051611b539190613ac7565b60405180910390a17fddc1975e94c24dc6fdd60782dfe8284cdb84a1dda289ac203056950a747bd8a689898942604051611b9094939291906136aa565b60405180910390a1505050505050505050565b611bb5611bae611ff8565b8383612670565b5050565b6000600960003373ffffffffffffffffffffffffffffffffffffffff1673ffffffffffffffffffffffffffffffffffffffff16815260200190815260200160002060060154905090565b600b5481565b611c1a611c14611ff8565b836120b9565b611c59576040517f08c379a0000000000000000000000000000000000000000000000000000000008152600401611c5090613a87565b60405180910390fd5b611c65848484846127dd565b50505050565b6060611c7682611f8c565b611cb5576040517f08c379a0000000000000000000000000000000000000000000000000000000008152600401611cac906139e7565b60405180910390fd5b6000600660008481526020019081526020016000208054611cd590613dbe565b80601f0160208091040260200160405190810160405280929190818152602001828054611d0190613dbe565b8015611d4e5780601f10611d2357610100808354040283529160200191611d4e565b820191906000526020600020905b815481529060010190602001808311611d3157829003601f168201915b505050505090506000611d5f612839565b9050600081511415611d75578192505050611db8565b600082511115611daa578082604051602001611d9292919061359d565b60405160208183030381529060405292505050611db8565b611db384612850565b925050505b919050565b60096020528060005260406000206000915090508060000160009054906101000a900473ffffffffffffffffffffffffffffffffffffffff169080600101549080600201549080600301549080600401549080600501549080600601549080600701549080600801549080600901549080600a0160009054906101000a900460ff1690508b565b6000600560008473ffffffffffffffffffffffffffffffffffffffff1673ffffffffffffffffffffffffffffffffffffffff16815260200190815260200160002060008373ffffffffffffffffffffffffffffffffffffffff1673ffffffffffffffffffffffffffffffffffffffff16815260200190815260200160002060009054906101000a900460ff16905092915050565b6000600960003373ffffffffffffffffffffffffffffffffffffffff1673ffffffffffffffffffffffffffffffffffffffff16815260200190815260200160002060010154905090565b60007f01ffc9a7000000000000000000000000000000000000000000000000000000007bffffffffffffffffffffffffffffffffffffffffffffffffffffffff1916827bffffffffffffffffffffffffffffffffffffffffffffffffffffffff1916149050919050565b60008073ffffffffffffffffffffffffffffffffffffffff166002600084815260200190815260200160002060009054906101000a900473ffffffffffffffffffffffffffffffffffffffff1673ffffffffffffffffffffffffffffffffffffffff1614159050919050565b600033905090565b816004600083815260200190815260200160002060006101000a81548173ffffffffffffffffffffffffffffffffffffffff021916908373ffffffffffffffffffffffffffffffffffffffff160217905550808273ffffffffffffffffffffffffffffffffffffffff166120738361127a565b73ffffffffffffffffffffffffffffffffffffffff167f8c5be1e5ebec7d5bd14f71427d1e84f3dd0314c0f7b2291e5b200ac8c7c3b92560405160405180910390a45050565b60006120c482611f8c565b612103576040517f08c379a00000000000000000000000000000000000000000000000000000000081526004016120fa90613927565b60405180910390fd5b600061210e8361127a565b90508073ffffffffffffffffffffffffffffffffffffffff168473ffffffffffffffffffffffffffffffffffffffff16148061217d57508373ffffffffffffffffffffffffffffffffffffffff1661216584610bdb565b73ffffffffffffffffffffffffffffffffffffffff16145b8061218e575061218d8185611e44565b5b91505092915050565b8273ffffffffffffffffffffffffffffffffffffffff166121b78261127a565b73ffffffffffffffffffffffffffffffffffffffff161461220d576040517f08c379a0000000000000000000000000000000000000000000000000000000008152600401612204906138a7565b60405180910390fd5b600073ffffffffffffffffffffffffffffffffffffffff168273ffffffffffffffffffffffffffffffffffffffff16141561227d576040517f08c379a0000000000000000000000000000000000000000000000000000000008152600401612274906138e7565b60405180910390fd5b6122888383836128f7565b612293600082612000565b6001600360008573ffffffffffffffffffffffffffffffffffffffff1673ffffffffffffffffffffffffffffffffffffffff16815260200190815260200160002060008282546122e39190613c98565b925050819055506001600360008473ffffffffffffffffffffffffffffffffffffffff1673ffffffffffffffffffffffffffffffffffffffff168152602001908152602001600020600082825461233a9190613bb7565b92505081905550816002600083815260200190815260200160002060006101000a81548173ffffffffffffffffffffffffffffffffffffffff021916908373ffffffffffffffffffffffffffffffffffffffff160217905550808273ffffffffffffffffffffffffffffffffffffffff168473ffffffffffffffffffffffffffffffffffffffff167fddf252ad1be2c89b69c2b068fc378daa952ba7f163c4a11628f55a4df523b3ef60405160405180910390a46123f98383836128fc565b505050565b6001816000016000828254019250508190555050565b600081600001549050919050565b600073ffffffffffffffffffffffffffffffffffffffff168273ffffffffffffffffffffffffffffffffffffffff161415612492576040517f08c379a0000000000000000000000000000000000000000000000000000000008152600401612489906139c7565b60405180910390fd5b61249b81611f8c565b156124db576040517f08c379a00000000000000000000000000000000000000000000000000000000081526004016124d2906138c7565b60405180910390fd5b6124e7600083836128f7565b6001600360008473ffffffffffffffffffffffffffffffffffffffff1673ffffffffffffffffffffffffffffffffffffffff16815260200190815260200160002060008282546125379190613bb7565b92505081905550816002600083815260200190815260200160002060006101000a81548173ffffffffffffffffffffffffffffffffffffffff021916908373ffffffffffffffffffffffffffffffffffffffff160217905550808273ffffffffffffffffffffffffffffffffffffffff16600073ffffffffffffffffffffffffffffffffffffffff167fddf252ad1be2c89b69c2b068fc378daa952ba7f163c4a11628f55a4df523b3ef60405160405180910390a46125f8600083836128fc565b5050565b61260582611f8c565b612644576040517f08c379a000000000000000000000000000000000000000000000000000000000815260040161263b906139a7565b60405180910390fd5b8060066000848152602001908152602001600020908051906020019061266b929190612c68565b505050565b8173ffffffffffffffffffffffffffffffffffffffff168373ffffffffffffffffffffffffffffffffffffffff1614156126df576040517f08c379a00000000000000000000000000000000000000000000000000000000081526004016126d690613907565b60405180910390fd5b80600560008573ffffffffffffffffffffffffffffffffffffffff1673ffffffffffffffffffffffffffffffffffffffff16815260200190815260200160002060008473ffffffffffffffffffffffffffffffffffffffff1673ffffffffffffffffffffffffffffffffffffffff16815260200190815260200160002060006101000a81548160ff0219169083151502179055508173ffffffffffffffffffffffffffffffffffffffff168373ffffffffffffffffffffffffffffffffffffffff167f17307eab39ab6107e8899845ad3d59bd9653f200f220920489ca2b5937696c31836040516127d0919061379a565b60405180910390a3505050565b6127e8848484612197565b6127f484848484612901565b612833576040517f08c379a000000000000000000000000000000000000000000000000000000000815260040161282a90613847565b60405180910390fd5b50505050565b606060405180602001604052806000815250905090565b606061285b82611f8c565b61289a576040517f08c379a000000000000000000000000000000000000000000000000000000000815260040161289190613a47565b60405180910390fd5b60006128a4612839565b905060008151116128c457604051806020016040528060008152506128ef565b806128ce84612a98565b6040516020016128df92919061359d565b6040516020818303038152906040525b915050919050565b505050565b505050565b60006129228473ffffffffffffffffffffffffffffffffffffffff16612c45565b15612a8b578373ffffffffffffffffffffffffffffffffffffffff1663150b7a0261294b611ff8565b8786866040518563ffffffff1660e01b815260040161296d949392919061360c565b602060405180830381600087803b15801561298757600080fd5b505af19250505080156129b857506040513d601f19601f820116820180604052508101906129b591906130c1565b60015b612a3b573d80600081146129e8576040519150601f19603f3d011682016040523d82523d6000602084013e6129ed565b606091505b50600081511415612a33576040517f08c379a0000000000000000000000000000000000000000000000000000000008152600401612a2a90613847565b60405180910390fd5b805181602001fd5b63150b7a0260e01b7bffffffffffffffffffffffffffffffffffffffffffffffffffffffff1916817bffffffffffffffffffffffffffffffffffffffffffffffffffffffff191614915050612a90565b600190505b949350505050565b60606000821415612ae0576040518060400160405280600181526020017f30000000000000000000000000000000000000000000000000000000000000008152509050612c40565b600082905060005b60008214612b12578080612afb90613e21565b915050600a82612b0b9190613c0d565b9150612ae8565b60008167ffffffffffffffff811115612b54577f4e487b7100000000000000000000000000000000000000000000000000000000600052604160045260246000fd5b6040519080825280601f01601f191660200182016040528015612b865781602001600182028036833780820191505090505b5090505b60008514612c3957600182612b9f9190613c98565b9150600a85612bae9190613e6a565b6030612bba9190613bb7565b60f81b818381518110612bf6577f4e487b7100000000000000000000000000000000000000000000000000000000600052603260045260246000fd5b60200101907effffffffffffffffffffffffffffffffffffffffffffffffffffffffffffff1916908160001a905350600a85612c329190613c0d565b9450612b8a565b8093505050505b919050565b6000808273ffffffffffffffffffffffffffffffffffffffff163b119050919050565b828054612c7490613dbe565b90600052602060002090601f016020900481019282612c965760008555612cdd565b82601f10612caf57805160ff1916838001178555612cdd565b82800160010185558215612cdd579182015b82811115612cdc578251825591602001919060010190612cc1565b5b509050612cea9190612cee565b5090565b5b80821115612d07576000816000905550600101612cef565b5090565b6000612d1e612d1984613b07565b613ae2565b905082815260208101848484011115612d3657600080fd5b612d41848285613d52565b509392505050565b6000612d5c612d5784613b38565b613ae2565b905082815260208101848484011115612d7457600080fd5b612d7f848285613d52565b509392505050565b600081359050612d9681614505565b92915050565b600081359050612dab8161451c565b92915050565b600081359050612dc081614533565b92915050565b600081519050612dd581614533565b92915050565b60008083601f840112612ded57600080fd5b8235905067ffffffffffffffff811115612e0657600080fd5b602083019150836001820283011115612e1e57600080fd5b9250929050565b600082601f830112612e3657600080fd5b8135612e46848260208601612d0b565b91505092915050565b600082601f830112612e6057600080fd5b8135612e70848260208601612d49565b91505092915050565b600081359050612e888161454a565b92915050565b600060208284031215612ea057600080fd5b6000612eae84828501612d87565b91505092915050565b60008060408385031215612eca57600080fd5b6000612ed885828601612d87565b9250506020612ee985828601612d87565b9150509250929050565b600080600060608486031215612f0857600080fd5b6000612f1686828701612d87565b9350506020612f2786828701612d87565b9250506040612f3886828701612e79565b9150509250925092565b60008060008060808587031215612f5857600080fd5b6000612f6687828801612d87565b9450506020612f7787828801612d87565b9350506040612f8887828801612e79565b925050606085013567ffffffffffffffff811115612fa557600080fd5b612fb187828801612e25565b91505092959194509250565b60008060408385031215612fd057600080fd5b6000612fde85828601612d87565b9250506020612fef85828601612d9c565b9150509250929050565b6000806040838503121561300c57600080fd5b600061301a85828601612d87565b925050602061302b85828601612e79565b9150509250929050565b6000806000806080858703121561304b57600080fd5b600061305987828801612d87565b945050602061306a87828801612e79565b935050604061307b87828801612e79565b925050606061308c87828801612e79565b91505092959194509250565b6000602082840312156130aa57600080fd5b60006130b884828501612db1565b91505092915050565b6000602082840312156130d357600080fd5b60006130e184828501612dc6565b91505092915050565b600080602083850312156130fd57600080fd5b600083013567ffffffffffffffff81111561311757600080fd5b61312385828601612ddb565b92509250509250929050565b60006020828403121561314157600080fd5b600082013567ffffffffffffffff81111561315b57600080fd5b61316784828501612e4f565b91505092915050565b60006020828403121561318257600080fd5b600061319084828501612e79565b91505092915050565b6131a281613cde565b82525050565b6131b181613ccc565b82525050565b6131c081613cf0565b82525050565b60006131d182613b69565b6131db8185613b7f565b93506131eb818560208601613d61565b6131f481613f57565b840191505092915050565b600061320a82613b74565b6132148185613b9b565b9350613224818560208601613d61565b61322d81613f57565b840191505092915050565b600061324382613b74565b61324d8185613bac565b935061325d818560208601613d61565b80840191505092915050565b6000613276601e83613b9b565b915061328182613f68565b602082019050919050565b6000613299602083613b9b565b91506132a482613f91565b602082019050919050565b60006132bc603283613b9b565b91506132c782613fba565b604082019050919050565b60006132df601f83613b9b565b91506132ea82614009565b602082019050919050565b6000613302600f83613b9b565b915061330d82614032565b602082019050919050565b6000613325602583613b9b565b91506133308261405b565b604082019050919050565b6000613348601c83613b9b565b9150613353826140aa565b602082019050919050565b600061336b602483613b9b565b9150613376826140d3565b604082019050919050565b600061338e601983613b9b565b915061339982614122565b602082019050919050565b60006133b1602c83613b9b565b91506133bc8261414b565b604082019050919050565b60006133d4603883613b9b565b91506133df8261419a565b604082019050919050565b60006133f7602a83613b9b565b9150613402826141e9565b604082019050919050565b600061341a602983613b9b565b915061342582614238565b604082019050919050565b600061343d602e83613b9b565b915061344882614287565b604082019050919050565b6000613460602083613b9b565b915061346b826142d6565b602082019050919050565b6000613483603183613b9b565b915061348e826142ff565b604082019050919050565b60006134a6602c83613b9b565b91506134b18261434e565b604082019050919050565b60006134c9602383613b9b565b91506134d48261439d565b604082019050919050565b60006134ec602f83613b9b565b91506134f7826143ec565b604082019050919050565b600061350f602183613b9b565b915061351a8261443b565b604082019050919050565b6000613532600083613b90565b915061353d8261448a565b600082019050919050565b6000613555603183613b9b565b91506135608261448d565b604082019050919050565b6000613578601383613b9b565b9150613583826144dc565b602082019050919050565b61359781613d48565b82525050565b60006135a98285613238565b91506135b58284613238565b91508190509392505050565b60006135cc82613525565b9150819050919050565b60006020820190506135eb60008301846131a8565b92915050565b60006020820190506136066000830184613199565b92915050565b600060808201905061362160008301876131a8565b61362e60208301866131a8565b61363b604083018561358e565b818103606083015261364d81846131c6565b905095945050505050565b600060408201905061366d60008301856131a8565b61367a60208301846131b7565b9392505050565b600060408201905061369660008301856131a8565b6136a3602083018461358e565b9392505050565b60006080820190506136bf60008301876131a8565b6136cc602083018661358e565b6136d9604083018561358e565b6136e6606083018461358e565b95945050505050565b600061016082019050613705600083018e6131a8565b613712602083018d61358e565b61371f604083018c61358e565b61372c606083018b61358e565b613739608083018a61358e565b61374660a083018961358e565b61375360c083018861358e565b61376060e083018761358e565b61376e61010083018661358e565b61377c61012083018561358e565b61378a6101408301846131b7565b9c9b505050505050505050505050565b60006020820190506137af60008301846131b7565b92915050565b60006040820190506137ca60008301856131b7565b81810360208301526137dc81846131c6565b90509392505050565b600060208201905081810360008301526137ff81846131ff565b905092915050565b6000602082019050818103600083015261382081613269565b9050919050565b600060208201905081810360008301526138408161328c565b9050919050565b60006020820190508181036000830152613860816132af565b9050919050565b60006020820190508181036000830152613880816132d2565b9050919050565b600060208201905081810360008301526138a0816132f5565b9050919050565b600060208201905081810360008301526138c081613318565b9050919050565b600060208201905081810360008301526138e08161333b565b9050919050565b600060208201905081810360008301526139008161335e565b9050919050565b6000602082019050818103600083015261392081613381565b9050919050565b60006020820190508181036000830152613940816133a4565b9050919050565b60006020820190508181036000830152613960816133c7565b9050919050565b60006020820190508181036000830152613980816133ea565b9050919050565b600060208201905081810360008301526139a08161340d565b9050919050565b600060208201905081810360008301526139c081613430565b9050919050565b600060208201905081810360008301526139e081613453565b9050919050565b60006020820190508181036000830152613a0081613476565b9050919050565b60006020820190508181036000830152613a2081613499565b9050919050565b60006020820190508181036000830152613a40816134bc565b9050919050565b60006020820190508181036000830152613a60816134df565b9050919050565b60006020820190508181036000830152613a8081613502565b9050919050565b60006020820190508181036000830152613aa081613548565b9050919050565b60006020820190508181036000830152613ac08161356b565b9050919050565b6000602082019050613adc600083018461358e565b92915050565b6000613aec613afd565b9050613af88282613df0565b919050565b6000604051905090565b600067ffffffffffffffff821115613b2257613b21613f28565b5b613b2b82613f57565b9050602081019050919050565b600067ffffffffffffffff821115613b5357613b52613f28565b5b613b5c82613f57565b9050602081019050919050565b600081519050919050565b600081519050919050565b600082825260208201905092915050565b600081905092915050565b600082825260208201905092915050565b600081905092915050565b6000613bc282613d48565b9150613bcd83613d48565b9250827fffffffffffffffffffffffffffffffffffffffffffffffffffffffffffffffff03821115613c0257613c01613e9b565b5b828201905092915050565b6000613c1882613d48565b9150613c2383613d48565b925082613c3357613c32613eca565b5b828204905092915050565b6000613c4982613d48565b9150613c5483613d48565b9250817fffffffffffffffffffffffffffffffffffffffffffffffffffffffffffffffff0483118215151615613c8d57613c8c613e9b565b5b828202905092915050565b6000613ca382613d48565b9150613cae83613d48565b925082821015613cc157613cc0613e9b565b5b828203905092915050565b6000613cd782613d28565b9050919050565b6000613ce982613d28565b9050919050565b60008115159050919050565b60007fffffffff0000000000000000000000000000000000000000000000000000000082169050919050565b600073ffffffffffffffffffffffffffffffffffffffff82169050919050565b6000819050919050565b82818337600083830152505050565b60005b83811015613d7f578082015181840152602081019050613d64565b83811115613d8e576000848401525b50505050565b6000613d9f82613d48565b91506000821415613db357613db2613e9b565b5b600182039050919050565b60006002820490506001821680613dd657607f821691505b60208210811415613dea57613de9613ef9565b5b50919050565b613df982613f57565b810181811067ffffffffffffffff82111715613e1857613e17613f28565b5b80604052505050565b6000613e2c82613d48565b91507fffffffffffffffffffffffffffffffffffffffffffffffffffffffffffffffff821415613e5f57613e5e613e9b565b5b600182019050919050565b6000613e7582613d48565b9150613e8083613d48565b925082613e9057613e8f613eca565b5b828206905092915050565b7f4e487b7100000000000000000000000000000000000000000000000000000000600052601160045260246000fd5b7f4e487b7100000000000000000000000000000000000000000000000000000000600052601260045260246000fd5b7f4e487b7100000000000000000000000000000000000000000000000000000000600052602260045260246000fd5b7f4e487b7100000000000000000000000000000000000000000000000000000000600052604160045260246000fd5b6000601f19601f8301169050919050565b7f54686520726570617920616d6f756e74206973206e6f7420656e6f7567680000600082015250565b7f596f7520616c7265616479206861766520612072756e6e696e67206c6f616e2e600082015250565b7f4552433732313a207472616e7366657220746f206e6f6e20455243373231526560008201527f63656976657220696d706c656d656e7465720000000000000000000000000000602082015250565b7f416d6f756e74206e6f742061636375726174652e2054727920616761696e2100600082015250565b7f5472616e73666572206661696c65640000000000000000000000000000000000600082015250565b7f4552433732313a207472616e736665722066726f6d20696e636f72726563742060008201527f6f776e6572000000000000000000000000000000000000000000000000000000602082015250565b7f4552433732313a20746f6b656e20616c7265616479206d696e74656400000000600082015250565b7f4552433732313a207472616e7366657220746f20746865207a65726f2061646460008201527f7265737300000000000000000000000000000000000000000000000000000000602082015250565b7f4552433732313a20617070726f766520746f2063616c6c657200000000000000600082015250565b7f4552433732313a206f70657261746f7220717565727920666f72206e6f6e657860008201527f697374656e7420746f6b656e0000000000000000000000000000000000000000602082015250565b7f4552433732313a20617070726f76652063616c6c6572206973206e6f74206f7760008201527f6e6572206e6f7220617070726f76656420666f7220616c6c0000000000000000602082015250565b7f4552433732313a2062616c616e636520717565727920666f7220746865207a6560008201527f726f206164647265737300000000000000000000000000000000000000000000602082015250565b7f4552433732313a206f776e657220717565727920666f72206e6f6e657869737460008201527f656e7420746f6b656e0000000000000000000000000000000000000000000000602082015250565b7f45524337323155524953746f726167653a2055524920736574206f66206e6f6e60008201527f6578697374656e7420746f6b656e000000000000000000000000000000000000602082015250565b7f4552433732313a206d696e7420746f20746865207a65726f2061646472657373600082015250565b7f45524337323155524953746f726167653a2055524920717565727920666f722060008201527f6e6f6e6578697374656e7420746f6b656e000000000000000000000000000000602082015250565b7f4552433732313a20617070726f76656420717565727920666f72206e6f6e657860008201527f697374656e7420746f6b656e0000000000000000000000000000000000000000602082015250565b7f54696d65207374696c6c2072656d61696e696e6720666f7220736574746c656d60008201527f656e740000000000000000000000000000000000000000000000000000000000602082015250565b7f4552433732314d657461646174613a2055524920717565727920666f72206e6f60008201527f6e6578697374656e7420746f6b656e0000000000000000000000000000000000602082015250565b7f4552433732313a20617070726f76616c20746f2063757272656e74206f776e6560008201527f7200000000000000000000000000000000000000000000000000000000000000602082015250565b50565b7f4552433732313a207472616e736665722063616c6c6572206973206e6f74206f60008201527f776e6572206e6f7220617070726f766564000000000000000000000000000000602082015250565b7f416d6f756e7420616c7265616479207061696400000000000000000000000000600082015250565b61450e81613ccc565b811461451957600080fd5b50565b61452581613cf0565b811461453057600080fd5b50565b61453c81613cfc565b811461454757600080fd5b50565b61455381613d48565b811461455e57600080fd5b5056fea26469706673582212205fe5b2046e1b2bd22c9ae8ac18d3152c93b499d68113317d41c1bdb2c8786a6b64736f6c63430008040033",
  "linkReferences": {},
  "deployedLinkReferences": {}
}