{
  "_format": "hh-sol-artifact-1",
  "contractName": "Pool",
  "sourceName": "contracts/Pool.sol",
  "abi": [
    {
      "inputs": [],
      "stateMutability": "nonpayable",
      "type": "constructor"
    },
    {
      "anonymous": false,
      "inputs": [
        {
          "indexed": true,
          "internalType": "address",
          "name": "_from",
          "type": "address"
        },
        {
          "indexed": false,
          "internalType": "uint256",
          "name": "_amount",
          "type": "uint256"
        }
      ],
      "name": "depositAmount",
      "type": "event"
    },
    {
      "anonymous": false,
      "inputs": [
        {
          "indexed": false,
          "internalType": "string",
          "name": "message",
          "type": "string"
        }
      ],
      "name": "log",
      "type": "event"
    },
    {
      "anonymous": false,
      "inputs": [
        {
          "indexed": true,
          "internalType": "address",
          "name": "_to",
          "type": "address"
        },
        {
          "indexed": false,
          "internalType": "uint256",
          "name": "_amount",
          "type": "uint256"
        }
      ],
      "name": "transferAmount",
      "type": "event"
    },
    {
      "anonymous": false,
      "inputs": [
        {
          "indexed": true,
          "internalType": "address",
          "name": "_to",
          "type": "address"
        },
        {
          "indexed": false,
          "internalType": "uint256",
          "name": "_amount",
          "type": "uint256"
        }
      ],
      "name": "withdrawAmount",
      "type": "event"
    },
    {
      "stateMutability": "payable",
      "type": "fallback"
    },
    {
      "inputs": [],
      "name": "accountBal",
      "outputs": [
        {
          "internalType": "uint256",
          "name": "",
          "type": "uint256"
        }
      ],
      "stateMutability": "view",
      "type": "function"
    },
    {
      "inputs": [],
      "name": "addInterestRate",
      "outputs": [],
      "stateMutability": "nonpayable",
      "type": "function"
    },
    {
      "inputs": [],
      "name": "balance",
      "outputs": [
        {
          "internalType": "uint256",
          "name": "",
          "type": "uint256"
        }
      ],
      "stateMutability": "view",
      "type": "function"
    },
    {
      "inputs": [],
      "name": "balanceContract",
      "outputs": [
        {
          "internalType": "uint256",
          "name": "",
          "type": "uint256"
        }
      ],
      "stateMutability": "view",
      "type": "function"
    },
    {
      "inputs": [
        {
          "internalType": "bytes",
          "name": "",
          "type": "bytes"
        }
      ],
      "name": "checkUpkeep",
      "outputs": [
        {
          "internalType": "bool",
          "name": "upkeepNeeded",
          "type": "bool"
        },
        {
          "internalType": "bytes",
          "name": "",
          "type": "bytes"
        }
      ],
      "stateMutability": "view",
      "type": "function"
    },
    {
      "inputs": [],
      "name": "interval",
      "outputs": [
        {
          "internalType": "uint256",
          "name": "",
          "type": "uint256"
        }
      ],
      "stateMutability": "view",
      "type": "function"
    },
    {
      "inputs": [],
      "name": "investedAmount",
      "outputs": [
        {
          "internalType": "uint256",
          "name": "",
          "type": "uint256"
        }
      ],
      "stateMutability": "view",
      "type": "function"
    },
    {
      "inputs": [],
      "name": "lastTimeStamp",
      "outputs": [
        {
          "internalType": "uint256",
          "name": "",
          "type": "uint256"
        }
      ],
      "stateMutability": "view",
      "type": "function"
    },
    {
      "inputs": [],
      "name": "owner",
      "outputs": [
        {
          "internalType": "address",
          "name": "",
          "type": "address"
        }
      ],
      "stateMutability": "view",
      "type": "function"
    },
    {
      "inputs": [
        {
          "internalType": "address",
          "name": "",
          "type": "address"
        }
      ],
      "name": "perPersonAmount",
      "outputs": [
        {
          "internalType": "uint256",
          "name": "investedAmount",
          "type": "uint256"
        },
        {
          "internalType": "uint256",
          "name": "interestAmount",
          "type": "uint256"
        },
        {
          "internalType": "uint256",
          "name": "accountBalance",
          "type": "uint256"
        }
      ],
      "stateMutability": "view",
      "type": "function"
    },
    {
      "inputs": [
        {
          "internalType": "bytes",
          "name": "",
          "type": "bytes"
        }
      ],
      "name": "performUpkeep",
      "outputs": [],
      "stateMutability": "nonpayable",
      "type": "function"
    },
    {
      "inputs": [],
      "name": "receiveEther",
      "outputs": [],
      "stateMutability": "payable",
      "type": "function"
    },
    {
      "inputs": [
        {
          "internalType": "uint256",
          "name": "amount",
          "type": "uint256"
        },
        {
          "internalType": "address payable",
          "name": "to",
          "type": "address"
        }
      ],
      "name": "transferEther",
      "outputs": [],
      "stateMutability": "payable",
      "type": "function"
    },
    {
      "inputs": [
        {
          "internalType": "uint256",
          "name": "amount",
          "type": "uint256"
        }
      ],
      "name": "withdraw",
      "outputs": [],
      "stateMutability": "payable",
      "type": "function"
    },
    {
      "stateMutability": "payable",
      "type": "receive"
    }
  ],
  "bytecode": "0x60a060405234801561001057600080fd5b50336000806101000a81548173ffffffffffffffffffffffffffffffffffffffff021916908373ffffffffffffffffffffffffffffffffffffffff1602179055506301e13380608081815250504260028190555060805161135161008d600039600081816106ad0152818161074401526107a101526113516000f3fe6080604052600436106100e15760003560e01c80638da5cb5b1161007f578063b69ef8a811610059578063b69ef8a8146102f7578063bd03e50114610322578063e67d5f541461033e578063eaab4597146103555761011d565b80638da5cb5b14610297578063947a36fb146102c2578063a3912ec8146102ed5761011d565b80633f3b3b27116100bb5780633f3b3b27146101da5780634585e33b146102055780634fa743ec1461022e5780636e04ff0d146102595761011d565b8063089fe01d146101545780632e1a7d4d14610193578063322a5e5f146101af5761011d565b3661011d577f41304facd9323d75b11bcdd609cb38effffdb05710f7caf0e9b16c6d9d709f5060405161011390610ec7565b60405180910390a1005b7f41304facd9323d75b11bcdd609cb38effffdb05710f7caf0e9b16c6d9d709f5060405161014a90610ea7565b60405180910390a1005b34801561016057600080fd5b5061017b60048036038101906101769190610c34565b610380565b60405161018a93929190610f22565b60405180910390f35b6101ad60048036038101906101a89190610ca2565b6103aa565b005b3480156101bb57600080fd5b506101c461069f565b6040516101d19190610f07565b60405180910390f35b3480156101e657600080fd5b506101ef6106a5565b6040516101fc9190610f07565b60405180910390f35b34801561021157600080fd5b5061022c60048036038101906102279190610c5d565b6106ab565b005b34801561023a57600080fd5b506102436106f4565b6040516102509190610f07565b60405180910390f35b34801561026557600080fd5b50610280600480360381019061027b9190610c5d565b61073e565b60405161028e929190610e37565b60405180910390f35b3480156102a357600080fd5b506102ac61077b565b6040516102b99190610e1c565b60405180910390f35b3480156102ce57600080fd5b506102d761079f565b6040516102e49190610f07565b60405180910390f35b6102f56107c3565b005b34801561030357600080fd5b5061030c610929565b6040516103199190610f07565b60405180910390f35b61033c60048036038101906103379190610ccb565b610931565b005b34801561034a57600080fd5b50610353610ab8565b005b34801561036157600080fd5b5061036a610b61565b6040516103779190610f07565b60405180910390f35b60036020528060005260406000206000915090508060000154908060010154908060020154905083565b80600154116103ee576040517f08c379a00000000000000000000000000000000000000000000000000000000081526004016103e590610e67565b60405180910390fd5b80600360003373ffffffffffffffffffffffffffffffffffffffff1673ffffffffffffffffffffffffffffffffffffffff1681526020019081526020016000206002015411610472576040517f08c379a000000000000000000000000000000000000000000000000000000000815260040161046990610ee7565b60405180910390fd5b806005600360003373ffffffffffffffffffffffffffffffffffffffff1673ffffffffffffffffffffffffffffffffffffffff168152602001908152602001600020600201546104c29190610fdc565b11610502576040517f08c379a00000000000000000000000000000000000000000000000000000000081526004016104f990610e87565b60405180910390fd5b80600160008282546105149190611067565b92505081905550600081600360003373ffffffffffffffffffffffffffffffffffffffff1673ffffffffffffffffffffffffffffffffffffffff1681526020019081526020016000206002015461056b9190611067565b90506000600460648361057e9190610fdc565b610588919061100d565b9050604051806060016040528083815260200182815260200183815250600360003373ffffffffffffffffffffffffffffffffffffffff1673ffffffffffffffffffffffffffffffffffffffff1681526020019081526020016000206000820151816000015560208201518160010155604082015181600201559050503373ffffffffffffffffffffffffffffffffffffffff166108fc849081150290604051600060405180830381858888f1935050505015801561064b573d6000803e3d6000fd5b503373ffffffffffffffffffffffffffffffffffffffff167f736fe5656fcd35d9d20cbd1c42f7f6256ee31aea93b61054d47141c4927e220a846040516106929190610f07565b60405180910390a2505050565b60015481565b60025481565b7f0000000000000000000000000000000000000000000000000000000000000000600254426106da9190611067565b11156106f057426002819055506106ef610ab8565b5b5050565b6000600360003373ffffffffffffffffffffffffffffffffffffffff1673ffffffffffffffffffffffffffffffffffffffff16815260200190815260200160002060020154905090565b600060607f0000000000000000000000000000000000000000000000000000000000000000600254426107719190611067565b1191509250929050565b60008054906101000a900473ffffffffffffffffffffffffffffffffffffffff1681565b7f000000000000000000000000000000000000000000000000000000000000000081565b34600160008282546107d59190610f86565b92505081905550600034600360003373ffffffffffffffffffffffffffffffffffffffff1673ffffffffffffffffffffffffffffffffffffffff1681526020019081526020016000206000015461082c9190610f86565b90506000600460648361083f9190610fdc565b610849919061100d565b9050600081836108599190610f86565b9050604051806060016040528084815260200183815260200182815250600360003373ffffffffffffffffffffffffffffffffffffffff1673ffffffffffffffffffffffffffffffffffffffff1681526020019081526020016000206000820151816000015560208201518160010155604082015181600201559050503373ffffffffffffffffffffffffffffffffffffffff167f15c5e5074661a8ead1f42483b78845368a7dcab9d6f0cf5f3c435525e3f0b11f3460405161091c9190610f07565b60405180910390a2505050565b600047905090565b60008054906101000a900473ffffffffffffffffffffffffffffffffffffffff1673ffffffffffffffffffffffffffffffffffffffff163373ffffffffffffffffffffffffffffffffffffffff161461098957600080fd5b670de0b6b3a76400008261099d919061100d565b600154116109e0576040517f08c379a00000000000000000000000000000000000000000000000000000000081526004016109d790610e67565b60405180910390fd5b670de0b6b3a7640000826109f4919061100d565b60016000828254610a059190611067565b925050819055508073ffffffffffffffffffffffffffffffffffffffff166108fc670de0b6b3a764000084610a3a919061100d565b9081150290604051600060405180830381858888f19350505050158015610a65573d6000803e3d6000fd5b508073ffffffffffffffffffffffffffffffffffffffff167fd7081e03acf4f258980c731b12330f7a911d3b76af080a78fbfd2b7b5cc4a62383604051610aac9190610f07565b60405180910390a25050565b600a600360003373ffffffffffffffffffffffffffffffffffffffff1673ffffffffffffffffffffffffffffffffffffffff16815260200190815260200160002060020154610b079190610fdc565b600360003373ffffffffffffffffffffffffffffffffffffffff1673ffffffffffffffffffffffffffffffffffffffff1681526020019081526020016000206002016000828254610b589190610f86565b92505081905550565b6000600360003373ffffffffffffffffffffffffffffffffffffffff1673ffffffffffffffffffffffffffffffffffffffff16815260200190815260200160002060000154905090565b600081359050610bba816112d6565b92915050565b600081359050610bcf816112ed565b92915050565b60008083601f840112610be757600080fd5b8235905067ffffffffffffffff811115610c0057600080fd5b602083019150836001820283011115610c1857600080fd5b9250929050565b600081359050610c2e81611304565b92915050565b600060208284031215610c4657600080fd5b6000610c5484828501610bab565b91505092915050565b60008060208385031215610c7057600080fd5b600083013567ffffffffffffffff811115610c8a57600080fd5b610c9685828601610bd5565b92509250509250929050565b600060208284031215610cb457600080fd5b6000610cc284828501610c1f565b91505092915050565b60008060408385031215610cde57600080fd5b6000610cec85828601610c1f565b9250506020610cfd85828601610bc0565b9150509250929050565b610d108161109b565b82525050565b610d1f816110bf565b82525050565b6000610d3082610f59565b610d3a8185610f64565b9350610d4a8185602086016110f5565b610d5381611186565b840191505092915050565b6000610d6b603183610f75565b9150610d7682611197565b604082019050919050565b6000610d8e602983610f75565b9150610d99826111e6565b604082019050919050565b6000610db1600883610f75565b9150610dbc82611235565b602082019050919050565b6000610dd4600783610f75565b9150610ddf8261125e565b602082019050919050565b6000610df7602283610f75565b9150610e0282611287565b604082019050919050565b610e16816110eb565b82525050565b6000602082019050610e316000830184610d07565b92915050565b6000604082019050610e4c6000830185610d16565b8181036020830152610e5e8184610d25565b90509392505050565b60006020820190508181036000830152610e8081610d5e565b9050919050565b60006020820190508181036000830152610ea081610d81565b9050919050565b60006020820190508181036000830152610ec081610da4565b9050919050565b60006020820190508181036000830152610ee081610dc7565b9050919050565b60006020820190508181036000830152610f0081610dea565b9050919050565b6000602082019050610f1c6000830184610e0d565b92915050565b6000606082019050610f376000830186610e0d565b610f446020830185610e0d565b610f516040830184610e0d565b949350505050565b600081519050919050565b600082825260208201905092915050565b600082825260208201905092915050565b6000610f91826110eb565b9150610f9c836110eb565b9250827fffffffffffffffffffffffffffffffffffffffffffffffffffffffffffffffff03821115610fd157610fd0611128565b5b828201905092915050565b6000610fe7826110eb565b9150610ff2836110eb565b92508261100257611001611157565b5b828204905092915050565b6000611018826110eb565b9150611023836110eb565b9250817fffffffffffffffffffffffffffffffffffffffffffffffffffffffffffffffff048311821515161561105c5761105b611128565b5b828202905092915050565b6000611072826110eb565b915061107d836110eb565b9250828210156110905761108f611128565b5b828203905092915050565b60006110a6826110cb565b9050919050565b60006110b8826110cb565b9050919050565b60008115159050919050565b600073ffffffffffffffffffffffffffffffffffffffff82169050919050565b6000819050919050565b60005b838110156111135780820151818401526020810190506110f8565b83811115611122576000848401525b50505050565b7f4e487b7100000000000000000000000000000000000000000000000000000000600052601160045260246000fd5b7f4e487b7100000000000000000000000000000000000000000000000000000000600052601260045260246000fd5b6000601f19601f8301169050919050565b7f496e73756666696369656e742066756e647320696e2074686520706f6f6c2e2060008201527f506c6561736520747279206c6174657221000000000000000000000000000000602082015250565b7f596f752063616e6e6f74207769746864726177206d6f7265207468616e20323060008201527f25206174206f6e63650000000000000000000000000000000000000000000000602082015250565b7f66616c6c6261636b000000000000000000000000000000000000000000000000600082015250565b7f7265636569766500000000000000000000000000000000000000000000000000600082015250565b7f496e73756666696369656e742066756e647320696e20796f7572206163636f7560008201527f6e74000000000000000000000000000000000000000000000000000000000000602082015250565b6112df8161109b565b81146112ea57600080fd5b50565b6112f6816110ad565b811461130157600080fd5b50565b61130d816110eb565b811461131857600080fd5b5056fea2646970667358221220c966a83a233433ee724f62c8cd3f938bf25ea8766fd53f8f0175b777720914c764736f6c63430008040033",
  "linkReferences": {},
  "deployedLinkReferences": {}
}